:020000040800F2
:100000005856002039030008735C00083755000873
:10001000715C0008F1320008E16500080000000092
:10002000000000000000000000000000975C0008D5
:100030009534000800000000955C0008695D000828
:100040005303000853030008530300085303000838
:100050005303000853030008530300085303000828
:100060005303000853030008530300085303000818
:100070005303000853030008530300085303000808
:10008000CD330008530300087930000853030008FB
:1000900053030008530300085303000853030008E8
:1000A00053030008530300085303000853030008D8
:1000B00053030008530300085303000853030008C8
:1000C00053030008530300085303000853030008B8
:1000D00053030008D56500085303000853030008C4
:1000E0005303000853030008530300085303000898
:1000F0005303000853030008530300085303000888
:100100005303000853030008530300085303000877
:100110005303000853030008530300085303000867
:10012000D933000853030008E533000853030008DF
:100130005303000853030008530300085303000847
:100140005303000853030008530300085303000837
:100150005303000853030008530300085303000827
:100160005303000853030008530300085303000817
:100170005303000853030008530300080000000065
:1001800053030008530300085303000853030008F7
:1001900053030008530300085303000853030008E7
:1001A00053030008530300085303000800F002F84B
:1001B00000F0B2F80AA090E8000C82448344AAF14F
:1001C0000107DA4501D100F0A7F8AFF2090EBAE84D
:1001D0000F0013F0010F18BFFB1A43F0010318477B
:1001E000C4E20000E4E200000A444FF0000C10F802
:1001F000013B13F0070408BF10F8014B1D1108BFA5
:1002000010F8015B641E05D010F8016B641E01F844
:10021000016BF9D113F0080F1EBF10F8014BAD1C94
:100220000C1B09D16D1E58BF01F801CBFAD505E0B2
:1002300014F8016B01F8016B6D1EF9D59142D6D30C
:10024000704700000023002400250026103A28BF34
:1002500078C1FBD8520728BF30C148BF0B60704738
:100260006E2900F01C85702901F0758066290DF05B
:10027000A98065290DF0A68067290DF0A38061296A
:100280000DF0A28003681B0A28BF41F08001692994
:1002900000F04281642900F03F81752900F03C8123
:1002A0006F2901F00280782901F04180E92900F0EE
:1002B0009D87E42900F09A87F52900F09787EF29B8
:1002C00000F0FF87F82901F040800368DB0928BFB0
:1002D00041F08001632901F02185732901F0268511
:1002E000E32901F03185F32901F0368500207047BC
:1002F0001FB50DF05AF801F0F3FA040000200021B8
:100300000CF0DAFD401C6060002000210CF0BEFD06
:10031000E0601FBD10B510BD01F090FF1146FFF762
:10032000E7FF0BF025F802F0E1F903B4FFF7F2FF65
:1003300003BC00F00FFC0000094880470948004753
:10034000FEE7FEE7FEE7FEE7FEE7FEE7FEE7FEE785
:10035000FEE7FEE704480549054A064B70470000E2
:10036000095E0008AD0100085850002058560020D2
:10037000585200205852002053EA020C00F06980C5
:100380002DE9F04B4FF00006002B1FBFB3FA83F5A9
:1003900003FA05F424FA05F65E4012BF1643B2FADA
:1003A00082F502FA05F4C5F120051EBF22FA05FC0C
:1003B00044EA0C04203556EA044C4FEA144418BFB2
:1003C000641C4FF000084FF00009904271EB030CE1
:1003D00039D3002919BFB1FA81F701FA07F6B0FA4B
:1003E00080F700FA07F6C7F120071EBF20FA07FCC6
:1003F00046EA0C062037B6FBF4FCA7EB0507103FD6
:1004000007F01F0BCBF120060CFA0BFB2CFA06F6BB
:1004100044BFB3460026202FA4BF5E464FF0000B1A
:100420005BEA060C08BF4FF0010B19EB0B09ABFBA5
:10043000027C48EB0608C01B06FB02CC0BFB03CC7E
:1004400071EB0C01C1E70B46024641464846BDE848
:10045000F08B13B54FF000004FF00001AFF30080B8
:10046000BDE81C40704700007CB51D4616460C00D8
:10047000009001D02044401E074B7B442A46694629
:100480000190304600F033FE05461CB1002069465D
:1004900000F040FE28467CBDA10C00000FB41CB546
:1004A000084B06AA7B4469460090059800F01FFEA1
:1004B00004460020694600F02DFE20461CBC5DF875
:1004C00014FB00006D0C000070B5044685690068DF
:1004D000C10601D5302600E02026C00707D070BD38
:1004E000D4E9012130469047206A401C20626D1EED
:1004F000F6D570BD70B5044685690078C00707D190
:1005000070BDD4E9012120209047206A401C206260
:100510006D1EF6D570BD00002DE9F04106460024A1
:1005200010687529314616A510D000F024FB00286C
:1005300002DA404213A507E031688A0701D512A507
:1005400002E0490704D511A5012401E000F01CFBDD
:1005500000210A2206F1240709E0B0FBF2FCB0FBFF
:10056000F2F302FB1C00303078541846491C002876
:10057000F3D123462A463046BDE8F04100F036BBB1
:10058000000000002D0000002B00000020000000F3
:100590002DE9F05F894604464FF0000ADFF874B198
:1005A000FB44C0F820A02046E1688847002874D0AA
:1005B000252806D0D4E901219047206A401C2062FA
:1005C000F1E700265F462046E16888472028054677
:1005D00007DB312D05D2781910F8200C08B106433D
:1005E000F1E7B00701D526F00406C4F81CA00027E7
:1005F000C4F818A02A2D09D028460AF063FB38B3A6
:1006000004EB8708303DC8F8185019E059F8041B6E
:10061000204604EB87029161E1688847012F054677
:1006200018D1E069002820DA26F020061DE0D8F86D
:10063000180000EB800005EB40003038C8F81800C7
:100640002046E168884705460AF03CFB0028EED1C9
:10065000012F0AD02E2D08D12046E16888477F1C43
:100660000546022F46F02006C4DBA069002803DA05
:10067000404246F00106A061F00701D026F01006C6
:100680006C2D0BD0682D09D04C2D39D06A2D35D06A
:10069000742D35D07A2D33D016E038E0E1682F463E
:1006A00020468847B842054609D16C2F26D04FF422
:1006B0008060E168064320468847054604E06C2FC9
:1006C0001AD04FF4807006430DB3A5F141001928EC
:1006D00002D8203546F400664A4629462046266060
:1006E0004E46FFF7BDFD80B101280BD0F61D26F068
:1006F000070000F1080956E74020E4E78020D8E72A
:100700000020D6E706F104094DE7284652E7206AA3
:10071000BDE8F09F9CDA00000FB400B58DB010A9C1
:10072000099000910B904FF0FF300A9000200C9040
:10073000064878440690064878446A4607900F9920
:1007400009A801F095F80DB05DF814FB5B110000ED
:10075000731100002DE9FF5F4FF000089946144621
:1007600046469169D2E901A7DDF838B0019888477B
:10077000054659EA0B0005D009E0A1690198761CED
:1007800088470546216A284688470028F5D1681C15
:1007900003D05FEACA7005D015E04FF0FF3004B017
:1007A000BDE8F09F2068011D2160D0F800800AE0BC
:1007B0005FEACA7001D108F8015BA169761C019853
:1007C0007F1E88470546002F1ADD681C18D0B9F136
:1007D000000F0DD0E81705EBD060421120F01F008C
:1007E00059F822102A1A012090400142E0D107E076
:1007F000BBF1000FDCD12846216A88470028D7D0FA
:10080000E16901988847BBF1000F07D1002E05DD93
:100810005FEACA7002D1002188F80010A068B842CF
:1008200003DDBBF1000F03D017B16FF00100B6E795
:100830003046B4E710B5002001F04AF8FFF76AFD32
:10084000BDE81040012000F085B9401ECAB210F882
:10085000011F8A4202D00029F9D10020704740EAE6
:10086000010310B59B070FD1042A0DD310C808C986
:10087000121F9C42F8D020BA19BA884201D901202F
:1008800010BD4FF0FF3010BD1AB1D30703D0521C7A
:1008900007E0002010BD10F8013B11F8014B1B1BB5
:1008A00007D110F8013B11F8014B1B1B01D1921E1F
:1008B000F1D1184610BD40EA0103024630B59B074E
:1008C00010D14FF0013400E008C208C91D1B9D4340
:1008D00015EAC41FF8D013F0FF0102F8011B0DD078
:1008E0001B0AF8E711F8013B002B02F8013B05D089
:1008F00011F8013B002B02F8013BF3D130BD10B5DC
:10090000431C02E010F8011B71B18107FAD14FF0CE
:10091000013202C88C1A8C4314EAC211F9D0C01AF1
:100920000A0603D0C01E10BDC01A10BD0A0401D0B3
:10093000801E10BD0902FCD0401E10BD032A40F2EB
:10094000308010F0030C00F0158011F8013BBCF171
:10095000020F624498BF11F801CB00F8013B38BF89
:1009600011F8013BA2F1040298BF00F801CB38BF97
:1009700000F8013B11F0030300F02580083AC0F0B5
:10098000088051F8043B083A51F804CBA0E808105D
:10099000F5E7121D5CBF51F8043B40F8043BAFF390
:1009A0000080D20724BF11F8013B11F801CB48BFEA
:1009B00011F8012B24BF00F8013B00F801CB48BF20
:1009C00000F8012B704710B5203AC0F00B80B1E859
:1009D0001850203AA0E81850B1E81850A0E8185074
:1009E000BFF4F5AF5FEA027C24BFB1E81850A0E87D
:1009F000185044BF18C918C0BDE810405FEA827C97
:100A000024BF51F8043B40F8043B08BF7047D207AD
:100A100028BF31F8023B48BF11F8012B28BF20F84E
:100A2000023B48BF00F8012B704702F0FF0343EA86
:100A3000032242EA024200F002B84FF00002042909
:100A4000C0F0128010F0030C00F01B80CCF1040CFD
:100A5000BCF1020F18BF00F8012BA8BF20F8022B31
:100A6000A1EB0C0100F00DB85FEAC17C24BF00F8D7
:100A7000012B00F8012B48BF00F8012B70474FF005
:100A8000000200B5134694469646203922BFA0E8DE
:100A90000C50A0E80C50B1F12001BFF4F7AF0907EA
:100AA00028BFA0E80C5048BF0CC05DF804EB8900DB
:100AB00028BF40F8042B08BF704748BF20F8022B1E
:100AC00011F0804F18BF00F8012B70474FF0013C28
:100AD00050F8042B51F8043B9A4221D1A2EB0C03AD
:100AE000934313EACC1317D150F8042B51F8043B6D
:100AF0009A4215D1A2EB0C03934313EACC130BD10A
:100B000050F8042B51F8043B9A4209D1A2EB0C0394
:100B1000934313EACC13DBD04FF00000704700BFC3
:100B2000D01A01BAB1FA81F101F0180122FA01F0EC
:100B3000CB40C1F12001DBB2C0B2C01A2CFA01F3E4
:100B4000D11A914311EAC311E6D17047704770473B
:100B50007047000001491820ABBEFEE726000200E6
:100B600010B500F0C1FE006810BD10B5044600F0DD
:100B7000BBFE046010BD09684A0501D540B270474C
:100B8000C905FCD500B2704709684A0501D5C0B255
:100B90007047C905FCD580B2704770B50C46054654
:100BA000012A05D02878800600D5EA69002302E0F2
:100BB000012305E05B1C934202D2E05C0028F9D1DE
:100BC000A869E618C01AA861286A1844286228464D
:100BD000FFF77AFC04E0D5E9012114F8010B9047F6
:100BE000B442F8D32846FFF785FC70BD2DE9F047E5
:100BF0000D4699469246044600F12408016888068D
:100C000004D5E06921F01001216000E00120A84234
:100C100001DD471B00E00027A1697A1902EB0900FA
:100C2000081AA0612078C00602D42046FFF74CFCC9
:100C3000002608E0D4E901211AF806009047206A4E
:100C4000401C761C20624E45F4DB2078C0060AD595
:100C50002046FFF739FC06E0D4E901213020904717
:100C6000206A401C2062381EA7F10107F4DC07E06F
:100C7000D4E9012118F805009047206A401C206241
:100C8000281EA5F10105F3DC2046FFF733FC207890
:100C9000000602D50220BDE8F0870120FBE71168BD
:100CA0000268006A530501D508700AE0D30501D532
:100CB000088006E0130603D5C217C1E9000200E070
:100CC00008600120704770472DE9FF4F0C461E4613
:100CD0004FF0FF378BB0D2E90001DDF860800A9059
:100CE0008A46C1F30A5505B93D46002108464FF032
:100CF0000000BAF1000F00F4400005DA00EB8000BC
:100D00004FF4400101EA50004FEA9059B9F1010F48
:100D100000DDB9460A9850EA4A000ED044F6105059
:100D2000A5F2FF3545432F14B8F1000F1ED07542D0
:100D3000291E1EDDC9F100021CE0B8F1010F4FF0C1
:100D4000000001D0302103E0F24305E02154401CB3
:100D5000B042FBDB30460022002121540B99C1F840
:100D60000880C1E900200FB0BDE8F08FBD1B6D1CED
:100D7000DEE74A4600DA694206A801F0ABF906ABA5
:100D800093E8070003AB83E8070050460A9901F097
:100D9000F7FC8DE80700A0F500501F38009003987D
:100DA000002D0ADD42F21F014A460844002303A930
:100DB0000390684601F0A2FF09E0A0F500504A4602
:100DC0001F38002303A90390684601F0C1FF8DE896
:100DD00007000004000C03D04FF0FF30410800E092
:100DE0001046B8F1000F03D00022009215461EE015
:100DF000751E05D400F07CFD303262556D1EF9D5AC
:100E0000B3460122084302D000227F1C04E0207870
:100E1000302801D100227F1E002A099784D01DE0CE
:100E2000112D07DA00F064FD303262556D1C50EA76
:100E30000102F5D1084302D00098C8B10EE00021AC
:100E4000681E05E0235C625C63542254401E491C0A
:100E50008142F7DBAB46A81B401E0990002004F836
:100E60000B000B98099AC0F80880C0E9002B7AE7BC
:100E700011264FF0000857E72DE9F04F8846044649
:100E8000D21D22F0070191B0D1E90001CDE90A019C
:100E900009F03EFC02460B98C00F01D02D2007E060
:100EA0002068810701D52B2002E0202101EAC00043
:100EB000032A099001D0072A05DB03464146204654
:100EC00000F0E2FE0BE12078800601D5E06900E049
:100ED0000620B8F1650F814606D0B8F1660F18D02C
:100EE000B8F1670F70D131E00020B9F1110F009017
:100EF00001DB112301E009F101030AAA01A90CA8F1
:100F0000FFF7E2FEDDE90C70002609F101058346DA
:100F100047E001204B4600904FF000470AAA01A984
:100F20000CA8FFF7D1FEDDE90DB00C995D46002657
:100F300010B909F101000D18B9EB050003D4C0F197
:100F4000FF3609F10105A5EB09002BE0B9F1010F0E
:100F500001DA4FF001090020B9F1110F0090484665
:100F600001DD112300E003460AAA01A90CA8FFF73E
:100F7000ABFEDDE90C704D46002683462078000765
:100F80000AD4AB4500DA5D4601A8012D04DD411904
:100F900011F8011C302907D04F4502DA17F1040F70
:100FA00004DA012082460FE06D1EEEE7002F02DC1E
:100FB000ED1B3E4403E0781CA84200DD7D1CB81BFD
:100FC00000F1010A4FF000472078000703D4AA453A
:100FD00001DB4FF0FF3A0021B7F1004F0DF143085C
:100FE0008DF8431024D002202B23002F01DA7F42FA
:100FF0002D230A21021EA0F1010000DC5FB197FB46
:10100000F1FC97FBF1F201FB1C7C17460CF1300C54
:1010100008F801CDEEE7A8F1010003702188090569
:1010200001D5452100E06521A0F1010800F8011C6F
:1010300009980FA9A1EB0807FF1D00B10120411974
:1010400001EBEA70A1693844081A401EA0612078BB
:10105000C00602D42046FFF737FA099828B1D4E930
:1010600001219047206A401C20622078C00622D5CA
:101070002046FFF729FA1EE0002E04DBB34502DD0F
:1010800001A8805D00E03020D4E901219047206A6A
:10109000401C2062761CAAF101005FEA000A0AD116
:1010A00000F01EFCC0680168405CD4E90121904753
:1010B000206A401C2062281EA5F10105DCDC07E047
:1010C000D4E9012118F8010B9047206A401C2062E6
:1010D000381EA7F10107F3DC2046FFF70BFA0320C7
:1010E00011B041E601694A1C02610878704700B5F9
:1010F0008FB0CDE901310021059105497944CDE951
:10110000031011466846FFF743FA0FB000BD000018
:10111000E5FFFFFF0A6802F8010B0A607047D1E99A
:1011200000239A4202D2531C0B60107070470000DB
:101130002DE9FF5F15468A460446DFF8AC80F84487
:101140000027D8E900103E46CDE9001010E03AF83B
:1011500016106A4602A801F02FF8411C07D021782A
:10116000890603D5E269391891420DD80744761CE7
:101170002078800602D5E069B84205DDAE42E6DBA4
:101180003AF816000028E2D1A069C01BA0612046F1
:10119000FFF79AF9D8E90010CDE90010002017E018
:1011A0003AF818106A4602A801F006F8B0F1FF3FBD
:1011B00081460BD000250DF1080B05E0D4E9012193
:1011C0001BF8050090476D1C4D45F7D308F1010051
:1011D000B0428046E4DB206A384420622046FFF7B4
:1011E00089F9BDE8FF9F000012CF00002DE9F04112
:1011F0008046D21D22F007020025D2E90002F5291F
:1012000015A614D0011E72F1000106DA0023D0EBFE
:10121000030063EB020211A608E0D8F800108B0768
:1012200001D50FA602E0490701D50EA601251146FA
:10123000002408F1240704E000F05AFB30323A554C
:10124000641C50EA0102F7D12B4632462146404643
:10125000BDE8F041FFF7CABC000000002D0000000F
:101260002B0000002000000030B4002100F1240415
:1012700008E002F00705D208303542EA4372DB0885
:101280006554491C52EA0305F3D10468002310A2F7
:10129000250707D5A40600D421B1C46901230DA2F6
:1012A000641EC46130BCFFF7A1BC10B504462146E2
:1012B0001068FFF769FC02462046BDE81040002395
:1012C000D2E7D21D22F00701D1E90023CCE70000CC
:1012D0000000000030000000F0B40D460188090550
:1012E00002D5214C7C4402E01F4C7C440E3400218A
:1012F00000F1240608E002F00F071209E75D42EA58
:1013000003721B097754491C52EA0307F3D1027890
:101310000023120704D5702D06D009B10223113421
:101320002246F0BCFFF762BC01231034F8E770B529
:1013300004460D4621461068FFF726FC0246294662
:101340002046BDE870400023C6E7D21D22F0070307
:10135000D3E90023C0E70368126843F02003036069
:101360000823C3610023B7E774CD00002DE9FF4FC8
:1013700006468BB00878FF2806D0491C2D2805D0DA
:1013800000244FF0000908E000200CE00124F8E7F9
:1013900009EB8903491C00EB43090878FF28F7D1C2
:1013A00014B1C9F100008146107800252C46AA46E8
:1013B00029462D2801D02B2804D1521C2D2813D0CA
:1013C000002082468B461078FF280FD04FF0000C8B
:1013D0000A21521CA5FB017804FB018105FB0C11BD
:1013E000C5194BEB0104EEE70120EAE700210846AE
:1013F0004FF00000BAF1000F02D000EB800040086F
:10140000C0F38157012F01DD4FF0FF370E9955EAE8
:10141000040009EB01080BD04FF0020918F5FA7F20
:1014200016DA4FEACA70002F706008DD012007E06D
:101430004FEACA70C6E900B00FB0BDE8F08F0020D7
:10144000306000F051FAC0F800901821084616E00C
:10145000B8F5FA7F18DD002F02DAF748784401E08A
:10146000F6487844D0E90010C6E9001040EACA7096
:10147000706000F039FAC0F80090142108460FB0EF
:10148000BDE8F04F0BF09BBF002108464FF0000075
:10149000B8F10001099002DAC7F1000200E03A4613
:1014A00001DAC8F1000106A800F014FE06AB93E8CB
:1014B000070003AB83E8070044F23E005BEA040147
:1014C0000090584604D144F21E012C465D4600911E
:1014D000210C0904014306D10099240444EA15446F
:1014E0002D041039009104F07F41014306D1009989
:1014F000240244EA15642D020839009104F0704179
:10150000014306D10099240144EA15742D01091FF5
:10151000009104F04041014306D10099A40044EA3F
:101520009574AD00891E009104F00041084304D178
:1015300000986D196441401E00904FF001033A4637
:101540006846B8F1000FCDE9014503A902DD01F0BD
:1015500014FC01E001F0E7FBBAF1000F04460D4670
:1015600001D084F00044002108464FF000000999A2
:1015700040F2FF77484010F00C0F07D124F00040F4
:10158000284303D0C4F30A50B84212D100F0ACF99A
:10159000C0F80090C4F30A50B8420AD1A848784471
:1015A000D0E90010C6E9001004F000410843706063
:1015B00042E7C6E900543FE72DE9FF4F1F464FF0D1
:1015C000000A4FF0FF38454691B0D7E90146CDF803
:1015D0003CA000F085F9C0680168405C1090B969D2
:1015E00012986D1C8847396A814688470028F6D1D1
:1015F000B9F1FF3F0AD0002E24F4D06411DDB9F117
:101600002B0F08D0B9F12D0F0BD102E0404615B0D9
:1016100013E744F48064B96912986D1C8847761EFC
:101620008146600504A901D52D2000E02B20002E65
:1016300001F1010B0DF130088DF810003FDDB9F11B
:10164000690F08D0B9F1490F05D0B9F16E0F02D07A
:10165000B9F14E0F1CD13B4601A8009580E850021D
:10166000DDE912126FF002000BF014FFC11CCED1A5
:101670000EE0B96912986D1C884781461398761E52
:1016800044F4007405600F98401C002E0F9016DD86
:10169000B9F1300FEDD0B9F1780F02D0B9F1580F90
:1016A0000DD10F9801280AD13B46CDE90054DDE960
:1016B0001212001F02960BF0EBFEC11CA7D110996D
:1016C00089453ED144F0800406E01399681CAAF1D4
:1016D000010A44F400740860B9696D1C1298761E02
:1016E000884730288146F0D02BE01099894505D1F4
:1016F000200603D4761E44F0800418E0484609F022
:10170000E1FA08B3761E0DF123018B4544F4007411
:1017100008D2A9F130000BF8010B200607D5AAF179
:10172000010003E0200602D40AF101008246A00570
:1017300002D51399681C0860B96912986D1C884716
:101740008146002ED1DC53E0002E51DDB9F1650F4A
:1017500002D0B9F1450F4BD1A00549D5B9696D1C2F
:101760001298761E24F440748847002E81460CDDC2
:101770002B2804D0B9F12D0F07D144F48074B96936
:1017800012986D1C8847761E8146E00501D52D21F3
:1017900000E02B2108F8011BCDF8008021E0761E27
:1017A0000DF13901884544F400740CD2A9F13000E0
:1017B00010F0FF0088F8000002D10099884509D98F
:1017C00008F1010806E0E00501D51E4801E042F2FB
:1017D0000F708246B96912986D1C8847814613982C
:1017E0000560002E04DD484609F06CFA0028D6D1C9
:1017F000F96912988847FF2053468BF8000088F853
:10180000000000200A900B9004AA0CA90AA8FFF778
:10181000ADFDA00502D46FF00100F8E614F0240F2E
:1018200012D0E0071CD13868DDE90A12031D3B60C5
:101830000068C0E9001213E06CD000005ED0000028
:1018400022CF0000F1D8FFFF0AA9684609F07CF911
:10185000E00705D13868009A011D39600068026010
:101860002846D4E602681144137801601846704790
:10187000D1600549794451610449794411620021DC
:101880001161114600F06CBAEDFFFFFFFD00000092
:10189000426842B1016811F8013B23B1521EC0E910
:1018A0000012184670470121C160881E70474268C7
:1018B0005AB1C368016843B983688B4205D0491E99
:1018C000521CC0E90012002070474FF0FF307047F3
:1018D00010B500F097FCBDE8104000F08DBC7047DB
:1018E000004870471850002000487047F84F00200B
:1018F00030B5B0F10A024FEA900E71F100034EEAE2
:10190000817EB0EB0E0061EB91014FEA101E4EEAB2
:10191000017E10EB0E0041EB11114FEA102E4EEA42
:10192000016E10EB0E0041EB11214FEA104E4EEA12
:10193000014E10EB0E0041EB1141401841F1000146
:101940004FEAD00040EA41704FEAD10110EB800528
:101950004FEA810444EA907444EB01046D1944EBAE
:101960000404521BA3414FF0000348BF0A3200D5C4
:1019700030BD401C41F1000130BD10B5044600F0FF
:1019800083FC0068005D00F0010010BD2DE9F04F00
:1019900004460D46D21D22F0070089B0D0E9009719
:1019A0004846394608F0B4FE0246F80F01D02D2310
:1019B00007E02068810701D52B2302E0202101EAFE
:1019C000C0038DF820300BB1012000E00020032A75
:1019D000824601D0072A04DB2946204600F054F94C
:1019E0003FE12078800601D40D2500E0E569C7F3CA
:1019F0000A560D2D49DA00214FEA175B08464FF0D1
:101A00000000002F00F4400007DA00EB80004FF4E4
:101A1000400100EBD07001EA60008115012901DD71
:101A20004FF0FF3100224FEA850CBCF1180F06D3AE
:101A30001346ACF118004FF08052C24003E04FF45F
:101A4000801323FA0CF30CF10C0CBCF1200F04D31F
:101A5000ACF1200C09FA0CF001E007FA0CF00029B7
:101A60004FF0004801DD18B90FE00ED140450CD30E
:101A700019EB02095F4121B9404502D19F4329EA90
:101A80000209BBEB175F00D0761C2088000502D549
:101A90007B48784402E07A487844193808AA302311
:101AA00002F80A30037C0AF10101002E0AF1020A51
:101AB00053546A4602DC4FF0300101E04FF031012F
:101AC0004FF001088DF8001002D0A6F2FF3603E0B7
:101AD00059EA470100D06B4E002D02DC217809073E
:101AE00004D54FF002082E218DF80110C4460021C4
:101AF0000BE0C7F303433F01C35C491C6D1E02F8B2
:101B00000830052908F1010801DA002DF1DC002177
:101B10000CE000EB1973491C1B786D1E082902F8B4
:101B200008304FEA091908F1010801DA002DF0DC4C
:101B300021688B0602D516E0A8F10108E04505DD15
:101B400002EB080313F8013C302BF5D0B8F1000F7D
:101B500009DD02EB080313F8013C2E2B03D1090722
:101B600001D4A8F10108002D05DD3E2102F808107E
:101B70006D1E08F10108407C002E02F8080008F1F3
:101B8000010804DA2D20764202F8080002E02B203A
:101B900002F808000A214FF47A70864208F1010821
:101BA0000BDB96FBF0F3303302F8083096FBF0F3D2
:101BB00008F1010800FB136601E0642E0CDB6420D1
:101BC00096FBF0F3303302F8083096FBF0F308F19F
:101BD000010800FB136601E00A2E06DB96FBF1F01C
:101BE000303002F8080008F1010896FBF1F001FB23
:101BF0001060303002F80800A16908F1010808EB14
:101C0000050202EB0A00081AA0612078C00602D47F
:101C10002046FEF759FC216A08AE01EB0A0020625B
:101C200004E0D4E9012116F8010B9047BAF1010A4A
:101C3000F7D22078C00602D52046FEF745FC6E4656
:101C400009E016F8010B3E280FD0D4E90121904796
:101C5000206A401C2062B8F10108F2D22046FEF74B
:101C600049FC09B00320BDE8F08F206A28442062B7
:101C700003E0D4E90121302090476D1EEBD3F8E753
:101C800021C6000002FCFFFF2DE9F0411F4604467B
:101C900003260168072A01F4006004DB08B116A5D9
:101CA00005E016A503E008B115A500E015A521F093
:101CB00010002060A069C01EA0610FB1401EA0618D
:101CC0002046FEF701FC4FB1D4E901213846904788
:101CD000206A401C2062C01C206206E0206AFAE7ED
:101CE000D4E9012115F8010B9047761EF8D2204661
:101CF000FEF700FCBDE8F0814E414E006E616E00C3
:101D0000494E4600696E660010B5436913B1AFF3E2
:101D1000008001E0FEF741FF012010BD127800F1C4
:101D200024010A7000224A700122EDE711684FF089
:101D3000FF32E9E710B5436913B1AFF3008001E06A
:101D4000FFF7F6F9012010BD128800F1240182840A
:101D50000022C2840122EDE711684FF0FF32E9E76B
:101D60002DE9F34F4FF0000A0C4656468DB0012086
:101D70000C9001F10C000B9062690B9801219047C7
:101D8000051E2DD0252D2CD0216A8847C0B162694F
:101D90000B9801219047216A88470028F7D1626992
:101DA000411E0B98904700E0761CA1690D9888476A
:101DB000216A88470028F7D1E1690D988847DBE759
:101DC000A1690D988847A842074601D1761CD3E740
:101DD000E1690D9888477F1C02D1BAF1000F6FD0DE
:101DE0006CE162690B9800273D46394690472A28E6
:101DF00004D162690B98012190470125DFF8D08258
:101E000062690B9801219047A0F130010A290AD29A
:101E10004745E5DC07EB870100EB4107303FDFD4A6
:101E200045F01005ECE7E90601D46FF000476C2897
:101E30000AD04C2814D0682815D06A280DD07428F0
:101E40001CD07A281AD01DE062690B9801219047B6
:101E50006C2802D045F0040514E045F002050DE0C1
:101E600045F020050AE062690B9801219047682837
:101E700002D045F0080505E045F4006562690B985D
:101E800001219047C4E9015765283DD019DC582845
:101E90007AD00CDC452837D004DC252826D0412810
:101EA0009ED131E046282FD0472899D12CE05B28DD
:101EB00077D0612828D063287CD0642823D15AE0C9
:101EC000F7E06F2848D008DC66281DD067281BD0B3
:101ED000692821D06E2816D127E0702845D07328B4
:101EE00068D0752847D078280DD14DE0A1690D98AC
:101EF0008847252805463FF469AFE1690D98884772
:101F00006D1C3FF46AAFD9E00D9923466A466FF025
:101F100001000BF0BBFAC6E045F0400023464FF04D
:101F200000026060A80736D43EE0E8077FF447AFC0
:101F30002068011D21600068290501D506701BE796
:101F4000290701D5068017E7A90703D5F117C0E9CE
:101F5000006111E706600FE745F0400023464FF0AF
:101F600008026060A80716D41EE040F60E0125EABC
:101F70000100606016E045F0400023464FF00A0281
:101F80006060A80707D40FE045F040006060A80734
:101F900008D5234610220D996FF00100AFF30080A1
:101FA00081E007E0102223460D996FF00100AFF3A6
:101FB000008078E04FF0000963284F46C8464B4642
:101FC000CB4602D05B2807D039E02079C00601D487
:101FD0000120A060012732E06269D4F80CB00B98B0
:101FE000012190475E2807D14FF0010949466269F7
:101FF000D4F80CB00B989047216939B900210A46F2
:1020000003AB43F82120491C0829FADBD8B3216926
:1020100049B308F1010862690B98012190475D28D6
:10202000F4D1B9F1000F09D0002003A951F8202004
:10203000D24341F82020401C0828F7DB03AB20697D
:10204000002820794FEA40701ED05B462246CDF82A
:102050000080CDE901970D9900286FF0010020DA8A
:10206000AFF300801FE0C11703AA00EBD1614B1151
:1020700021F01F0102EB8302411A136801208840FE
:1020800003431360C7E719E00D99224600286FF05B
:102090000100009702DAAFF3008004E0FEF75AFB7C
:1020A00001E0AFF3008000280ADA401C06D10C984A
:1020B00020B14FF0FF300FB0BDE8F08F5046FAE787
:1020C000E90701D10AF1010A064400200C9053E609
:1020D000CCCCCC0C2DE9F047814616468AB0354869
:1020E00078440DC88DE80D0032487844801C03AC5C
:1020F0000DC884E80D0041F69B300844372190FB61
:10210000F1F290FBF1F5A5F1800501FB12041B3CF7
:1021100002D56442012000E00020DFF898A080464C
:102120000027FA44AAF1BE0A0EE0E0070AD03246C0
:10213000684607EB470101230AEB810100F008FE26
:102140008DE8070064107F1C002CEED1194F7F44EE
:10215000AE3F19E0E80715D007EB04100DF1180A9F
:1021600090E80E008AE80E00C068F04201D198198C
:1021700008903246012306A903A800F0E9FD03AB4D
:1021800083E807006D10641C002DE3D14FF00103BC
:1021900032466946B8F1000F03A802D000F0AEFD48
:1021A00001E000F0D5FDC9E90001C9F808200AB036
:1021B000BDE8F08764C0000070B516460C460546C1
:1021C00000F062F8036893F80101012806D0FF2CA3
:1021D0000FD8185D68B101202C7070BDD3F80701CD
:1021E0003246214603F2071303442846BDE87040F7
:1021F00018474FF0FF3070BD002801D0FEF7AABC91
:102200007047000010B5002102A000F078FA01200C
:1022100010BD0000534947414252543A2041626E7A
:102220006F726D616C207465726D696E6174696F37
:102230006E00000000487047F84F00207546FFF719
:10224000F9FFAE4605006946534620F00700854673
:1022500018B020B5FEF77EF8BDE820404FF000062C
:102260004FF000074FF000084FF0000B21F007017E
:10227000AC46ACE8C009ACE8C009ACE8C009ACE8C1
:10228000C0098D467047000010B5FFF729FB001DFF
:1022900010BD00BF25AC00002DE9FF4F1F464FF0D9
:1022A0003C0987B04FF00042DDE9141001F101084C
:1022B000DDF858A002EA40500390002005908346C4
:1022C000054604460490B969461E08988847AAF155
:1022D000010A0290BAF1000F3BDD02982E2815D0BA
:1022E000102100F03FFA00282EDB4FF0010B05997A
:1022F000014317D0B9F1000F0BDB4A46C11700F0BC
:102300001EFA05430C43A9F1040905E001200490DD
:102310000BE008B145F0010501200590049820B9B3
:10232000361D02E0049800B1361FB969089808F11B
:1023300001088847BBF1000FAAF1010A0290C9D039
:102340000999C1F80080C5E70298702808D0502884
:1023500006D0F96908988847BBF1000F14D04FE008
:10236000002002900120BBF1000F049009D0B96950
:10237000089808F101088847AAF10109B9F1000F8E
:1023800007DCF969089888476FF001000BB0BDE8D9
:10239000F08F2B2804D02D280CD14FF0FF30049063
:1023A000B969089808F101088847A9F10109B9F14C
:1023B000000FE6DD411CE4D00A2100F0D3F900282B
:1023C000DFDB029908F1010801EB810100EB41001C
:1023D0000290B969089888470A2100F0C3F9099A60
:1023E000A9F10109B9F1000FC2F8008001DD002850
:1023F000E7DAF969089888470499029800FB0166B2
:1024000055EA040004D004F04041090002D006E07F
:10241000039898E0A40044EA9574AD00B61E04F059
:102420000041080002D16D196441761E159810F024
:10243000240F03D04FF00B095C4803E04FF028094C
:102440006FF07D008246564507DAAAEB0601894403
:10245000B9F1410F01DD4FF0410901200021A9F13F
:10246000010200F06CF9024628400B462140084367
:1024700001D0012100E00021501E029143F1FF3103
:1024800028402140084301D0012000E000200299AB
:10249000834651EA0B014FD0002108464FF000005F
:1024A000039900F4400039B100EB80004FF4400183
:1024B00000EBD07001EA60008015012802DD4FF0CA
:1024C000FF3000E013D0401C36D0029860B3BBF15F
:1024D000000F0CD14A460120002100F030F92840BD
:1024E0002140084301D0012000E00020E0B101209C
:1024F0004A46002100F023F9034640190A4661418B
:102500002D1A8C4111D3B9F1400F09DD159810F047
:10251000240F02D0AAF1340603E0AAF1170600E066
:10252000761C00254FF0004406E05B1E42F1FF32AE
:1025300020EA030521EA0204CAF10100B04206DAEA
:102540001B49039808430190002000900EE0039A75
:10255000C4F3D321E80A0A43164940EA44500A4327
:102560003146CDE90002684608F0A2FB159810F04C
:10257000240F0BD01598C00715D13868DDE900127B
:10258000031D3B600068C0E900120CE002A8694628
:1025900008F0DAFA1598C00705D13868029A011DCB
:1025A0003960006802604046F0E6000002FCFFFF70
:1025B0000000F07F0000F03F2DE9FF4F92461D46DE
:1025C00085B04FF00041DDE9124BDDE914727F1E4A
:1025D00001EA4B50414940F0FF4940EA010800211F
:1025E00022F020004928049102D04E2828D04CE047
:1025F0003BA0012607C88DE80700A9690698641C5E
:1026000088477F1E014606D41DF8060018B121F048
:10261000200181420BD0E96906988847032E34D007
:10262000082E32D06FF0010009B0BDE8F08F761CA3
:10263000032E01D0082EE0D1601CCAF80000DCE7B0
:10264000A9690698641C88477F1E2AD420F02000C0
:10265000412826D1A9690698641C88477F1E20D48A
:1026600020F020004E281CD1A9690698641C8847D8
:102670007F1E48F4002849F48009CAF8004001D4BC
:10268000282806D0E969069888475FEACB7012D0FF
:1026900022E0A9690698641C88477F1E01D400289F
:1026A00003DAE96906988847BCE72928F1D1641C58
:1026B000CAF80040E9E71BF0240F07D02868049906
:1026C000031D2B600068C0E9001805E02868021DA2
:1026D0002A600068C0F800902046A5E70000F07F5F
:1026E000494E46494E4954590000000010B5044671
:1026F000AFF300802046BDE81040FDF716BE70B570
:1027000005460C460A2000E06D1C00F011F835B1BA
:1027100028780028F8D102E0641C00F009F814B110
:1027200020780028F8D1BDE870400A20AFF300807F
:1027300008B569468DF800000320ABBE08BDB2F1B4
:1027400020030AD5C2F1200301FA02F120FA03F3B3
:1027500000FA02F041EA0301704700FA03F14FF07A
:10276000000070473A2800D2303820F02002412A79
:1027700001D3A2F13700884201D34FF0FF307047F8
:102780005FEA400C08BF91F0000F4FEA8C234FEA3C
:10279000C12243EA51514FEA1C5018BF00F5F040E6
:1027A0004FEA300018BF41F000415FEA6C5C00F076
:1027B0002980BCF1FF3F08BF40F080407047130CF8
:1027C00006BF12044FF0100C4FF0000C130E04BFA4
:1027D00012020CF1080C130F04BF12010CF1040CCF
:1027E000930F04BF92000CF1020CD30F04BF5200F0
:1027F0000CF1010C11464FF00002A0F11F00A0EBFC
:102800000C00704711F0004F08BF704731F00041D5
:102810003FF4D5AF0B0C06BF09044FF0100C4FF07E
:10282000000C0B0E04BF09020CF1080C0B0F04BFC7
:1028300009010CF1040C8B0F04BF89000CF1020C90
:10284000CB0F04BF49000CF1010CCCF12003A0EB2D
:102850000C0022FA03F302FA0CF241EA030100F140
:102860000100704720F07F4C80EA030023F07F478F
:10287000ACEB070303F57C5300F0004003F1FF03CA
:102880002DE980494FEA154B09B44FEA144325EA74
:102890000B4E24EA03480FF2042606EB13274908DF
:1028A0003E785FEA320203FB0667C7F5000707FBC5
:1028B00006F64FEA54374FEAD64606F1020607FB02
:1028C000066CCCF1005C4FEA1C472CEA074C07FB76
:1028D00006F40CFB06F504EB15464FEA961634BFDA
:1028E00000204FF000404FEAD13706FB07FC4FEACB
:1028F0001C4C0CFB0BF7D21B03FB0CF761EB070125
:102900000CFB0EF7B0EB074072EB17420CFB08F71D
:1029100034BFA2EB0742B2EB074261EB17414FEA2B
:102920000C444FEA910706FB07FC4FEA1C4C0CFBDA
:102930000BF7B0EBC74072EB573203FB0CF734BF19
:10294000A2EBC742B2EBC74261EB57310CFB0EF76B
:10295000B0EBC70072EB57720CFB08F734BFA2EB69
:10296000C702B2EBC70261EB5771039F4FEA816167
:1029700041EA921104EBCC044FEAD1374FEA82626C
:1029800006FB07FC42EA90124FEA80604FEA1C4CBB
:102990000CFB0BF7D21B03FB0CF761EB07010CFBE5
:1029A0000EF7B0EB074072EB17420CFB08F734BF91
:1029B000A2EB0742B2EB074261EB17414FEA8C559D
:1029C0004FEA910704EB9C2406FB07FC4FEA1C4CE2
:1029D0000CFB0BF7B0EBC74072EB573203FB0CF765
:1029E00034BFA2EBC742B2EBC74261EB57310CFBDD
:1029F0000EF7B0EBC70072EB57720CFB08F734BF51
:102A0000A2EBC702B2EBC70261EB577115EB4C2585
:102A10004FEA816141EA92114FEA82624FEAD1376F
:102A200042EA901206FB07FC44F100044FEA806082
:102A30004FEA1C4C0CFB0BF7D21B03FB0CF761EBB2
:102A400007010CFB0EF7B0EB074072EB17420CFBD3
:102A500008F734BFA2EB0742B2EB074261EB174124
:102A600015EB1C154FEA813141EA92414FEA82325F
:102A700042EA90424FEA80304FEA0C7644F100047B
:102A800048EA03434EEA0B484FF0000EB2EB080C45
:102A900071EB030724BF624639464EEB0E0E4FF032
:102AA000000B0018524149414BEB0B0BB2EB080CE9
:102AB00071EB03077BF1000B24BF624639464EEBF6
:102AC0000E0E4FF0000B0018524149414BEB0B0B1F
:102AD000B2EB080C71EB03077BF1000B24BF6246DD
:102AE00039464EEB0E0E51EA020718BF46F00106BA
:102AF00016EB0E7655F1000254F1000103D5BDE846
:102B00008901BDE80088BDE88901BDE80048B61923
:102B1000524141EB0101A3F10103704780807F7EA8
:102B20007D7C7B7A79787776767574737271717043
:102B30006F6E6E6D6C6C6B6A6A69686867666665F5
:102B40006464636362616160605F5F5E5E5D5D5C83
:102B50005C5B5B5A5A5959585857575656555555F4
:102B60005454535352525251515050504F4F4F4E54
:102B70004E4D4D4D4C4C4C4B4B4B4A4A4A494949A2
:102B800048484847474747464646454545444444E4
:102B900044434343434242424241414146EA06469E
:102BA000A3F570534FEA164646EA42564FEAD22240
:102BB00042EA415210B54FEAD121A3F1010300F0DE
:102BC0002FF820F0004000F1020C00F0004701EB6C
:102BD00000501146BCF5006F40EA070000D210BD5E
:102BE000BAF1000F0AD01CB503B44FF004004FF047
:102BF00004014FF000000FBCBDE810404FF0000191
:102C0000BBF1010FB9BF04484FF0FF310348002169
:102C100040EA070010BD00BFFFFFEF7F0000F07F1C
:102C2000002B9C4630D477002BD01CB54FEA3707D9
:102C300003B44FF010004FF01001BAF1000F06D0AE
:102C4000BCF1000FDCBF40F0080040F008014FF07D
:102C500000000FBCBDE810400BF1010BBBF1010FF0
:102C600008BF5FEA170722BF12F1010211F101014B
:102C70004FF0004143F1000300F0004043EA000040
:102C80007047F9D35708D0E746EA064613F1400FDC
:102C90004FEA16461FDD13F1200FDFBF16430A4629
:102CA000002120335B42BED0C3F1200746EA06462E
:102CB00002FA07F74FEA164646EA0706C3F120076D
:102CC00022FA03F201FA07F721FA03F14FF00003A9
:102CD00042EA0702A7E746EA020646EA06464FEA44
:102CE000164646EA0106BCBF46EA0646360C4FF0D9
:102CF00000034FF000024FF0000194E72DE9804CF3
:102D00009A46934670B491E8380007C831EA400CFF
:102D100048BF34EA430C03D5FFF7A4FDFFF780FF5B
:102D2000F0BCBDE8008C2DE9804C9A46934670B407
:102D300091E8380007C831EA400C48BF34EA430C38
:102D400003D5FFF78FFDFFF729FFF0BCBDE8008C2E
:102D50002DE9804C9A46934670B491E8380007C834
:102D600010F0804F08BF13F0804F03D100F01AF825
:102D7000FFF756FFF0BCBDE8008C2DE9804C9A4669
:102D8000934670B491E8380007C810F0804F08BF30
:102D900013F0804F03D100F005F8FFF7FFFEF0BC01
:102DA000BDE8008C20F07F4780EA030023F07F4CD1
:102DB00007EB0C03A3F57C5300F00040A3F1FE03E6
:102DC00092F0000F00F0B38095F0000F00F07780D4
:102DD0002DE901494FEA11404FEA144621EA004823
:102DE00000FB06FC24EA064708FB06F607FB08F88A
:102DF00000FB07F718EB06484CEB164C4FEA124B5A
:102E000018EB07484FEA15464CEB174022EA0B4EE9
:102E10000BFB06FC25EA06470EFB06F607FB0EFE3B
:102E20000BFB07F71EEB064E4CEB164C4FF0000663
:102E30001EEB074E4CEB174B18EB0B0840F1000054
:102E400018EB0E0B58EB000840F100008F1A4FF002
:102E500000013CBFC943661B14BFB5EB040C002145
:102E60003CBFC943F61B4FEA17444EEA8E0E27EAD1
:102E700004454FEA1C4704FB07622CEA074C05FB9C
:102E800007F70CFB05F604FB0CFC16EB074642EBC0
:102E9000174216EB0C4642EB1C421BEB060658EBA6
:102EA0000202414146EA9E0601D5BDE80189B619F4
:102EB000524141EB0101A3F10103BDE801894FEA51
:102EC00014454FEA114724EA054621EA074C05FB61
:102ED00007F406FB07F70CFB06F105FB0CFC11EBF6
:102EE000074144EB17444FEA124711EB0C4144EB06
:102EF0001C4422EA074C05FB07F206FB07F70CFB14
:102F000006F605FB0CFC16EB074642EB174216EBE8
:102F10000C4642EB1C456A1854F1000148BF70474B
:102F2000B619524141EB0101A3F10103704795F03D
:102F3000000F37D04FEA11424FEA144721EA024608
:102F400024EA074C02FB07F106FB07F70CFB06F42B
:102F500002FB0CFC14EB074441EB17414FEA154709
:102F600014EB0C4441EB1C4125EA074C02FB07F52E
:102F700006FB07F70CFB06F602FB0CFC16EB0746FC
:102F800045EB174516EB0C4645EB1C42121951F167
:102F9000000148BF7047B619524141EB0101A3F14E
:102FA000010370474FEA14454FEA114724EA0546EA
:102FB00021EA074C05FB07F106FB07F70CFB06F2BD
:102FC0004FF0000605FB0CFC12EB074241EB1741EA
:102FD00012EB0C4251EB1C4148BF7047921841EB79
:102FE0000101A3F10103704710B50146806B026C2B
:102FF00012F0500F05D0026CD20626D500F011FB5E
:1030000010BD016C41F40071016401688A6812F01E
:10301000405F17D1027EAAB9CA6A12F4700F02D0BB
:103020008A6852050ED44A6822F020024A60016C78
:1030300021F480710164016CC90403D4016C41F076
:103040000101016400F0DCFA10BD806BC26CBDE8C8
:1030500010400846104710B5806B40210164416C58
:1030600041F00401416400F0DCFA10BD10B5806B42
:1030700000F0D6FA10BD0000014800F0D3BA0000FD
:10308000E80C0020464910B54A6822F440324A60F4
:103090004A6843681A434A6001684A6822F48072A9
:1030A0004A6001684A68036942EA03224A6001688B
:1030B0004A6822F040724A6001684A6883681A438D
:1030C0004A6001688A6822F400628A6001688A683E
:1030D000C3681A438A60816A6FF07062D1420168E6
:1030E0008A6822F070628A6001688A680CD0836AFC
:1030F0001A438A6001688A6822F040528A60016837
:103100008A68C36A1A4301E022F040528A6001686B
:103110008A6822F002028A6001688A68037E42EAB5
:1031200043028A6090F82010002901684A680FD095
:1031300042F400624A6001684A6822F460424A60D0
:1031400001684A68174C436A04EB43331A4301E0B1
:1031500022F400624A600168CA6A22F47002CA62FC
:103160000168CA6A838B104C04EB03531A43CA628A
:1031700001688A6822F400728A6001688A6890F89F
:10318000303042EA43228A6001688A6822F4806211
:103190008A6001688A68406942EA8020886010BDC0
:1031A0000023014000E0FFFF0000F0FF10B50446DF
:1031B00004290FD104F088FE007B20B1012804D03F
:1031C000022807D108E0064901E0054920312046E0
:1031D00004F058FA002010BD01494031F7E7000023
:1031E000984F00202DE9F0410027062947D2DFE85B
:1031F00001F03F433F43033D224C657F052D2FD215
:10320000606921A10068FDF761FC244E002818D0F8
:10321000606923A10068FDF759FCA8B1606925A188
:103220000068FDF753FC90B1606927A10068FDF7C5
:103230004DFC78B1606929A10068FDF747FC60B1D9
:103240001DE086F821501AE086F8225017E086F833
:10325000235014E086F8245011E086F825500EE043
:103260000DD10849203104F00DFA08E0012706E0ED
:10327000044804F017FF02E0024804F06DFF3846EE
:10328000BDE8F081CC4E00203E204D736720776969
:103290006E20676220626C7572000000760100206B
:1032A0003E20436F6E662077696E20676220626CF5
:1032B000757200003E2056616C2077696E2067624F
:1032C00020626C75720000003E205370696E20779A
:1032D000696E20676220626C757200003E204C6946
:1032E00073742077696E20676220626C75720000CB
:1032F000FEE70000042906D10448054990F828009B
:1033000000F001004874002070470000744E002057
:103310007601002070B5042913D10B4C0BA1606914
:103320000068FDF7D3FB0C4D30B160690BA100685C
:10333000FDF7CCFB18B104E0A08B688001E0A08B06
:103340002880002070BD0000444E00207E2054697B
:10335000746C6520416E6900760100207E20494E24
:103360004420416E6900000010B5846B204600F0D7
:103370008BFB0120207110BD10B5846B204600F03E
:1033800059FB0120207110BD10B5846B206940F0FD
:1033900004002061204600F079FB0120207110BD5F
:1033A00010B5846B206940F004002061204600F0D5
:1033B00043FB0120207110BD10B5806B00F065FB50
:1033C00010BD10B5806B00F036FB10BD014800F059
:1033D000B7BC0000A40D0020014800F0B1BC000003
:1033E000300D0020014800F0ABBC0000300F002081
:1033F00001681823CAB2103AB2FBF3F2054B6FF31F
:103400000901032A9B5CC36500D9091D8165084633
:1034100070470000C8D4000810B5014600208B6931
:103420008A6A4FF0C07453B1B3F5005F15D072B122
:10343000012A0CD0022A0AD0032A09D104E01AB1C9
:10344000012A06D0022A03D1C96AC90100D5012088
:1034500010BDC96AA142FAD010BD002AF7D0012AD6
:10346000F2D0022AF3D0032AF3D010BD30B504689D
:10347000256825F480252560046863608368402BF7
:10348000036803D099600068C26030BD9A6000682C
:10349000C16030BD704772B6FEE7704778B5002452
:1034A000009490F83C20012A19D0012280F83C2099
:1034B0000A6807230568092A13D9EE680A3A02EB5D
:1034C000420293409E43EE600B788A680A3B03EB0E
:1034D00043039A400368DD682A43DA6010E0022063
:1034E00078BD2E6902EB420293409E432E610B7819
:1034F0008A6803EB43039A4003681D692A431A61F3
:103500004A681F23072A13D205686E6B521E02EB0E
:10351000820293409E436E630A8893B20A79521ED8
:1035200002EB820293400268556B2B43536327E002
:1035300005680D2A12D22E6BD21F02EB8202934035
:103540009E432E630B790A88DB1F92B203EB830341
:103550009A4003681D6B2A431A6311E0EE6A0D3A24
:1035600002EB820293409E43EE620B790A880D3B88
:1035700092B203EB83039A400368DD6A2A43DA625E
:103580001B4B0568194A9D420AD10D68122D07D1BF
:10359000556825F400055560556845F4800555606B
:1035A00005689D421DD1134D0B68AB4201D0112B14
:1035B00017D1536823F480035360536843F4000326
:1035C00053600968A9420CD10B490C4A0968B1FB48
:1035D000F2F101EB8101490000E0491E0091002950
:1035E000FBD180F83C40002078BD00000023014062
:1035F00000200140120000100C00002040420F008B
:1036000010B5054A0168914205D100F0DDF9034883
:10361000012180F8C91610BD002001401C43002084
:103620007047704770B5044600680668456816F034
:10363000020F05F020012AD049B3216CC90603D43A
:10364000216C41F400712164816811F0405F17D151
:10365000217EA9B9C16A11F4700F02D081684905B1
:103660000ED4416821F020014160206C20F480706C
:103670002064206CC00403D4206C40F0010020645E
:103680002046FFF7BDFF21686FF01200086016F0BA
:10369000040F05F0800132D089B3206CC00603D43A
:1036A000206C40F4005020642068816811F4401FB1
:1036B0001ED1816B11F4401F02D08168490517D4D7
:1036C0004168490514D4816811F0405F10D1217E12
:1036D00071B9416821F080014160206C20F4805074
:1036E0002064206CC00503D4206C40F001002064ED
:1036F0002046FFF7D2FE21686FF00C00086016F03C
:10370000010F05F040010FD071B120680068C007BB
:103710000AD0206C40F480302064204600F043F84A
:1037200021686FF00100086016F0200F05F080613D
:103730000ED000290CD0606C40F00200606420685C
:103740006FF0200505602046FFF76BFF20680560DD
:1037500070BD70B504004FF0000503D0206C00264A
:1037600010B107E0012070BD204600F01DF866642E
:1037700084F83C60206CC00610D4206C20F4885083
:1037800040F0020020642046FFF77CFC6664206C59
:1037900020F0020040F00100206400E0012584F8E0
:1037A0003C60284670BD704770B586B0064614214F
:1037B0006846FDF764F928493068884249D12748AE
:1037C0000025016841F4807101600068234900F41C
:1037D000807014390590086840F00400086008689B
:1037E00000F004000590086840F0010008600868D7
:1037F000032400F00100059001208DE831006946A6
:10380000174800F021FC20208DE83100694615485A
:1038100000F01AFC154C1448C4E900050015A56019
:10382000C4E90350800060618000C4E90605256298
:103830002046656200F054FB08B1FFF72CFEB4632C
:10384000002211461220A66300F060FF122000F053
:103850004FFF06B070BD0000002001404438024018
:10386000000802400000024010640240300D0020B9
:10387000F8B50E4600210446009190F83C0013462E
:103880000A46012807D0012084F83C00206885689A
:10389000ED0702D011E00220F8BD856845F0010572
:1038A00085604048404D0068B0FBF5F000EB4000FB
:1038B00000E0401E00900028FBD120688568ED05DF
:1038C00003D5856825F48075856020688568ED07D7
:1038D0005DD0226C40F20165AA4342F480722264FA
:1038E0004068400505D5206C20F4005040F480501D
:1038F0002064206CC00404D5606C20F00600606475
:1039000000E0616484F83C10A16B2948274DC8632E
:10391000A16B28480864A16B2748C86421686FF030
:10392000220008602068416841F0806141602068A1
:10393000816841F480718160216832464C31A06B0E
:1039400000F038FB024668681C49C006206806D0B3
:10395000884224D1816811F0405F13D01FE0884273
:10396000F8D0174B984203D1D1F80433DB06F1D0DD
:10397000144B984213D1D1F8041301F01F01102900
:10398000E8D30CE0816841F08041816007E0206C61
:1039900040F010002064606C40F00100606410464C
:1039A000F8BD00000C00002040420F000023014041
:1039B000E92F00086D300008573000080020014052
:1039C000002101400022014010B50446002094F877
:1039D0003C1001290CD0012184F83C1021688A6830
:1039E00022F001028A6021688A68D20702D01DE0B5
:1039F000022010BD8A6822F480728A60A16B91F85F
:103A00003520022A07D1084600F03FF918B1216C91
:103A100041F04001216421684A6822F080624A60D6
:103A2000216C21F4885141F001012164002184F8C6
:103A30003C1010BD70477047704770B500B3F9B1C6
:103A40004379012B1ED001264671022303710568BC
:103A50002C6802F0100340F6FE729A409443D1E9BC
:103A600000210A439A4022432A6001680A68C02460
:103A70009C40A2430A60067100214171084670BD56
:103A8000012070BD022070BD70477047704770B54F
:103A9000040003D02079002510B105E0012070BD9D
:103AA0006571204600F008F8022020712561012090
:103AB0002071002070BD000070B586B0054614214D
:103AC0006846FCF7DCFF1F492868884237D11E484A
:103AD0000026016841F000510160006800F00050CC
:103AE000059019481038016841F001010160006833
:103AF000694600F001000590102000900320CDE9F8
:103B00000106124800F0A0FA124C114820604FF054
:103B1000606060604020C4E902060001206140004E
:103B200060618000A0614011C4E90706204666621A
:103B300000F0D6F908B1FFF7AEFCAC60A56306B0A3
:103B400070BD000000740040403802400000024098
:103B500088600240A40D00202DE9F0410400069881
:103B600017460D461BD0617901291BD001266671CD
:103B700002212171C5B1E2682949D163E26829496E
:103B80001164E2682849D16421680A6842F08052D1
:103B90000A6040B32268042828D01C3227E00120A4
:103BA000BDE8F0810220FBE7A2682049D163A2684A
:103BB0001F491164A2681F49D16421680A6842F450
:103BC00080520A6020B12268042804D0103203E039
:103BD0002268083200E00C322068016841F400518C
:103BE0000160A06809E02268143200E01832206801
:103BF000016841F000510160E068394600F0DAF9EF
:103C00000021617120B1216941F004012161C7E700
:103C100021680A6805F010039E4032430A60BFE73E
:103C200079330008C3330008A13300086933000862
:103C3000B93300088933000870B504001BD0206830
:103C4000036801F010024FF480559540AB430360C8
:103C500020680368012505FA02F29343036061B10D
:103C6000E06800F012F82068016821F0005101605E
:103C70002571002070BD012070BDA06800F005F81E
:103C80002068016821F40051F1E72DE9F041044674
:103C9000876D00F0FDFA064694F8350000250228ED
:103CA00006D08020606584F834500120BDE8F081A2
:103CB0002068016821F0160101602068416921F047
:103CC00080014161206C08B9A06C20B120680168B6
:103CD00021F0080101602068016821F00101016004
:103CE0000CE000F0D5FA801B052807D9202060657C
:103CF000032084F8350084F83450D7E72068006842
:103D0000C007EED194F85C103F208840B8600120D5
:103D100084F8350084F834500020C7E790F8351057
:103D2000022903D08021416501207047052180F8D8
:103D300035100068016821F0010101600020704722
:103D40002DE9F84304464FF00009CDF80090634890
:103D50004FF41651A56D0068B0FBF1F72E6894F88A
:103D60005C10082000FA01F131420FD021680A6886
:103D700052070BD50A6822F004020A6094F85C101E
:103D80008840A860606D40F00100606594F85C10A8
:103D90004FF0010808FA01F0304208D02168496963
:103DA000090604D5A860606D40F00200606594F8D3
:103DB0005C1004208840304208D0216809688907D7
:103DC00004D5A860606D40F00400606594F85C1054
:103DD00010208840304218D021680968090714D59E
:103DE000A86020680168490304D50068000308D56D
:103DF000A16C07E00168C90503D4016821F008013E
:103E00000160216C09B12046884794F85C1020209D
:103E10008840304231D021680968C9062DD5A86094
:103E200094F8350005282068016806D0490347D575
:103E3000006800031DD4616C1CE021F016010160D4
:103E40002068416921F080014161206C08B9A06CB3
:103E500020B12068016821F00801016094F85C102D
:103E60003F208840A86084F8358084F83490216D24
:103E70001FE0E16B09B120468847606D00282BD018
:103E8000606DC00714D0052084F8350020680168F3
:103E900021F0010101600098401C0090B84203D855
:103EA00020680068C007F6D184F8358084F8349023
:103EB000E16C002910D001B02046BDE8F04308476E
:103EC0000168C905D5D4016821F01001016084F8AA
:103ED000358084F83490CCE7BDE8F8830C000020EE
:103EE0002DE9F041044600F0D3F906465CB102200A
:103EF00084F83500002584F834502068016821F0EA
:103F0000010101600DE00120BDE8F08100F0C0F981
:103F1000801B052805D920206065032084F8350022
:103F2000F2E720680068C007F0D1226811682048D5
:103F30000140D4E901031843D4E90336334318435D
:103F400063691843A3691843E3691843236A184354
:103F50000843616A042903D1D4E90B1319430843C8
:103F6000106020684069666A20F0070130460E4301
:103F7000012704280CD1A06A0643E06A40B120461C
:103F8000FFF74AFA20B14020606584F83570BAE73F
:103F9000206846612046FFF72BFA94F85C203F2109
:103FA00091408160656584F835700020ACE70000C1
:103FB0003F8010F02DE9F0410446866D90F8340002
:103FC000002501280DD0012084F8340094F83570C4
:103FD0000020012F07D084F8340002252846BDE8D0
:103FE000F0810220FBE7022784F8357060652046E7
:103FF000FFF73CFA94F85C103F208840B0602068DE
:10400000016841F016010160206C20B12068016850
:1040100041F0080101602068016841F00101016080
:10402000DCE7000070B5044600F032F90546601C7C
:1040300002D004480078044400F02AF9401BA04252
:10404000FAD370BD000000202DE9F84FDFF8F8A189
:104050000022012403254FF00F090AF1040BAAF1F5
:10406000040E00BF0B6804FA02F63340B34270D16D
:104070000F7907F00307012F01D0022F16D18768AF
:104080004FEA420805FA08FC27EA0C07D1F80CC0F1
:104090000CFA08FC4CEA070CC0F808C04768B743A4
:1040A0000E79C6F3001696403E4346600E79F643FD
:1040B000B6070AD0C7684FEA420C05FA0CF6B743B8
:1040C0008E6806FA0CF63E43C6600E7906F00306CB
:1040D000022E10D1D60800EB8608D8F820605707CA
:1040E0004FEAD76C09FA0CF7BE430F6907FA0CF7D1
:1040F0003743C8F8207006684FEA420C05FA0CF7FF
:10410000BE430F7907F0030707FA0CF73743076040
:104110004E6816F4403F1CD04C4E376847F4804739
:104120003760366822F0030706F480460096484E52
:1041300007EB060CDCF8086897073F0F09FA07F849
:1041400026EA0806DFF80C81404503D14FF000084D
:1041500041E072E0DFF80081404502D14FF00108F4
:1041600039E0DFF8F880404502D14FF0020832E034
:10417000DFF8EC80404502D14FF003082BE0DFF878
:10418000E480404502D14FF0040824E0DFF8D880F5
:10419000404502D14FF005081DE0DFF8D0804045D2
:1041A00002D14FF0060816E0DFF8C480404502D186
:1041B0004FF007080FE0DFF8BC80404502D14FF018
:1041C000080808E0DFF8B080404502D14FF0090848
:1041D00001E04FF00A0808FA07F848EA0608CCF8A8
:1041E0000888DAF800605746D1F804C09E435FEAB9
:1041F000CC2C00D51E433E60DBF800605F46D1F852
:1042000004C09E435FEA8C2C00D51E433E60DEF85E
:1042100000607746D1F804C09E435FEA8C3C00D52D
:104220001E433E60084F083F3E68D1F804C09E43DD
:104230005FEACC3C00D51E433E60521C102AFFF4BE
:1042400011AFBDE8F88F0000083C0140443802403F
:10425000003001400000024000040240000802401B
:10426000000C0240001002400014024000180240FE
:10427000001C024000200240002402400069084067
:1042800000D0012070470AB1816170470904FBE743
:1042900001488068704700000000002090F83D2031
:1042A000202A01D002207047242280F83D20026895
:1042B000136823F0010313600268536A23F01003AC
:1042C00053620268536A0B43536201680A6842F002
:1042D00001020A60202180F83D100020704790F80C
:1042E0003D20202A01D002207047242280F83D2062
:1042F0000268136823F00103136003685A6A22F00E
:104300000F020A4391B2596201680A6842F0010241
:104310000A60202180F83D100020704770B504002D
:1043200025D094F83D00002520B984F83C50204663
:1043300000F04EF9242084F83D002068016821F047
:10434000010101602068016841F4004101602068BA
:10435000016821F40041016000F0DCFA4D4A616817
:10436000914201D84C4900E04C49884201D20120D9
:1043700070BD4B492368B0FBF1F15E6826F03F0643
:104380000E435E606368934206D94FF496735943B7
:104390004FF47A73B1FBF3F12368491C1E6A26F0CF
:1043A0003F06314319626168914210D84900401EAE
:1043B000B0FBF1F2521CC2F30B02042A01D204201A
:1043C00022E0B0FBF1F0401CC0F30B001CE0A2683F
:1043D000F2B301EBC10303EB0116431EB3FBF6F38B
:1043E0005B1C43F480431B0549D092B301EBC1022F
:1043F00002EB0111401EB0FBF1F0401CC0F30B00BA
:1044000040F4804040F400402168CA694CF6FF73D4
:104410009A431043C861D4E9071001432068026839
:1044200022F0C00211430160D4E903010143206876
:10443000826848F2FF339A4311438160D4E9050151
:1044400008432168CA6822F0FF021043C86001E0F7
:104450000EE016E02068016841F00101016025646A
:10446000202084F83D00256384F83E50002070BD74
:1044700001EB4106431EB3FBF6F35B1CB3E70120DF
:10448000C2E701EB4101401EB0FBF1F0401CC0F35C
:104490000B00B7E7A086010080841E0000093D00E4
:1044A00040420F002DE9F84F1F4690468A460446C9
:1044B000DDF82890FFF7ECFE054694F83D00202833
:1044C0007FD11923012240492046009501F0C6F80A
:1044D000002876D194F83C00012872D0012084F89D
:1044E0003C0020680168C90703D1016841F001015F
:1044F00001602068016821F400610160212084F8D6
:104500003D00102084F83E0000262664C4F8248074
:104510006785608D20852D48E0622B464A465146CE
:10452000204601F021F890B9206841698069009027
:1045300036E02A464946204601F036F950B1206C53
:10454000042804D12068016841F400710160012051
:10455000BDE8F88F606A216800780861606A401CD5
:104560006062618D491E6185218D491E89B2218558
:1045700022685369DB435B070BD451B100781061AB
:10458000606A401C6062608D401E6085208D401E08
:1045900020852A464946204601F034F80028CED12D
:1045A000208D0028C5D154F83D0B016841F40071FD
:1045B0000160202004F81E09E67766770020C7E72F
:1045C000FFE70220C4E70000020010000000FFFF28
:1045D00010B586B0044614216846FCF750FA144919
:1045E0002068884221D113480021026842F002026B
:1045F0000260006800F0020005904FF440700090E7
:104600001220CDE9010103200390042004906946A3
:104610000948FFF719FD07481030016841F40011FF
:104620000160006800F40010059006B010BD0000A5
:1046300000540040303802400004024002488168C3
:104640000278114481607047000000200B4810B5CB
:10465000016841F400710160016841F4806101600A
:10466000016841F480710160032000F06FF80F20B1
:1046700000F006F800F024F8002010BD003C0240D5
:1046800070B50D4D04464FF47A712878B1FBF0F007
:104690000A490968B1FBF0F000F044FB48B9102C5E
:1046A00007D200222146501E00F030F800206C6036
:1046B00070BD012070BD0000000000200C00002033
:1046C0000A4808B5016841F480410160006800F4BF
:1046D000804000900548001F016841F08051016052
:1046E000006800F08050009008BD0000443802408F
:1046F000002809DB00F01F020121914040098000E1
:1047000000F1E020C0F8001170470000F0B40E4B3B
:104710001B680C46C3F30223C3F10705042D00D91F
:104720000425191D072901D2002300E0DB1E012604
:1047300006FA05F1491E214099409E40761E16401A
:104740003143F0BC06F00FB80CED00E0064900F074
:10475000070208684FF6FF03184040EA0220034AA8
:1047600010430860704700000CED00E00000FA05FF
:104770002DE9F8431748016841F080510160006855
:10478000154F00F08050012600903E64FFF780FD39
:1047900005464FF47A78114C05E000BFFFF778FD2D
:1047A000401B40450DD86068C003F7D57E64FFF715
:1047B0006FFD0546464607E0FFF76AFD401BB04225
:1047C00002D90320BDE8F88360688003F4D5002097
:1047D000F8E700004038024000000E420070004040
:1047E0002DE9F0470E46050065D0DFF81481D8F8B2
:1047F0000000F7B200F00F00B04207D288F8007056
:10480000D8F8000000F00F00B04254D128683D4CA9
:10481000810712D5400703D5206840F4E05020609E
:104820002878000703D5206840F4604020602068A5
:10483000A96820F0F000084320602878C0072DD038
:10484000304968680839012812D0022813D003289B
:1048500011D00968890700292DDA216821F00301A8
:1048600001432160FFF714FD814641F2883A0EE0D2
:1048700009688903EFE709688901ECE7FFF708FD9C
:10488000A0EB0901514502D90320BDE8F08720685B
:10489000696800F00C00B0EB810FEFD1D8F8001080
:1048A000404601F00F01B14207D90770006800F0DF
:1048B0000F00B04201D00120E7E72878400705D576
:1048C0002068E96820F4E050084320602878000759
:1048D00006D52068296920F4604040EAC1002060C4
:1048E00000F038F82168084AC1F30311515CC84050
:1048F0000649086006480068FFF7C2FE0020C4E7CA
:10490000003C024008380240D0D400080C000020CF
:10491000040000200448054900680968044AC1F3FE
:104920008221515CC84070470C00002008380240CA
:10493000E0D400080448054900680968044AC1F346
:104940004231515CC84070470C00002008380240DA
:10495000E0D40008154810B5006810F00C021448A7
:1049600013D01449042A0FD0082A0ED10F4C241F4B
:104970002268236802F03F025B0207D52068C0F37B
:104980008810A0FB010106E0084610BD2168C1F3B4
:104990008811A1FB00010023FBF7EEFC2168C1F3A5
:1049A0000141491C4900B0FBF1F010BD083802403C
:1049B0000024F40040787D012DE9F84F04006ED00A
:1049C0002078DFF84C93C007A9F104054AD009F11B
:1049D00004000168C1F38101012908D00068C0F317
:1049E000810002280AD1D9F80000400206D52868C3
:1049F000800337D560680028E1D033E06068B0F507
:104A0000803F10D0B0F5A02F286810D020F480305F
:104A10002860286820F4802028606068A8B1FFF72B
:104A200037FC06460DE0286840F48030F4E740F497
:104A300080202860F7E700BFFFF72AFC801B64286E
:104A400073D828688003F7D50CE0FFF721FC0646F1
:104A500005E000BFFFF71CFC801B6428F0D8286825
:104A60008003F7D42078DFF8AC8280074FF0000A8B
:104A70003ED5A748001D016811F00C0F08D0006852
:104A8000C0F3810002280BD1D9F80000400207D4FE
:104A90002868800716D5E068012800D112E033E1CC
:104AA000E068B8B10120C8F80000FFF7F1FB064646
:104AB00005E000BFFFF7ECFB801B0228C0D8286888
:104AC0008007F7D52868216920F0F80040EAC10086
:104AD00028600DE0C8F800A0FFF7DAFB064604E006
:104AE000FFF7D6FB801B02281FD828688007F7D461
:104AF0002078000722D5864F87486169703771B1E9
:104B000001210160FFF7C4FB064604E0FFF7C0FB8C
:104B1000801B022809D838688007F7D50EE0C0F856
:104B200000A0FFF7B5FB064605E082E0FFF7B0FB0B
:104B3000801B02287DD838688007F7D4207840078A
:104B400068D5DFF8CCB100270BF13C0BDBF8000097
:104B5000C0000BD4DBF8001041F08051CBF80010FE
:104B6000DBF80000012700F0805000906B4E3068A9
:104B7000C00510D4306840F480703060FFF788FBC7
:104B8000009005E0FFF784FB0099401A022850D8F6
:104B90003068C005F6D55E4EA0686C3601280FD08F
:104BA0000528306810D020F001003060306820F017
:104BB00004003060A068B8B1FFF76AFB00900FE016
:104BC000306840F00100F4E740F004003060F7E79F
:104BD000FFF75EFB0099411A41F28830814266D8A6
:104BE00030688007F4D50EE0FFF752FB009007E035
:104BF000FFF74EFB0099411A41F28830814256D8A6
:104C000030688007F4D42FB1DBF8001021F0805118
:104C1000CBF80010A069C8B33D49091D0968C1F36C
:104C2000810102294AD00228504607D0C8F8600006
:104C300000E03CE0FFF72CFB04463BE04746C8F8A9
:104C40006000FFF725FB064605E000BFFFF720FBED
:104C5000801B02282BD828688001F7D4D4E90701EB
:104C60000843A16A2E4A490802EB0141626A41EAFF
:104C70008211084394F82C1040EA0161C9F8001031
:104C800001203866FFF704FB044606E03EE000BF63
:104C9000FFF7FEFA001B022809D828688001F7D523
:104CA00034E000BFFFF7F4FA001B022802D903200A
:104CB000BDE8F88F28688001F4D427E00128F7D0F8
:104CC000D9F80000E26900F4800191421CD1226A07
:104CD00000F03F01914217D147F6C071626A01406E
:104CE000B1EB821F10D1A26A4FF0FF3300F44031C4
:104CF00003EB5202B1EB024F06D194F82C1000F0F6
:104D00007060B0EB016F01D00120D1E70020CFE748
:104D10000438024000004742800E474200700040C5
:104D20000000FFFF10B5401EB0F1807F01D30120CD
:104D300010BD4FF0E02460610F21601705F013FDF6
:104D40000020A06107202061002010BD70B590F800
:104D50003C20012A32D0012480F83C40022280F815
:104D60003D2003685A689D6822F070060A68324345
:104D70005A60134B02689A4214D0B2F1804F11D09E
:104D8000104B9A420ED0104B9A420BD00F4B9A42C6
:104D900008D00F4B9A4205D00E4B9A4202D00E4BD0
:104DA0009A4204D1496825F080031943916080F844
:104DB0003D40002180F83C10084670BD022070BDC7
:104DC000000001400004004000080040000C0040CA
:104DD00000040140004001400018004010B50400EC
:104DE00003D094F83D0010B107E0012010BD002071
:104DF00084F83C00204600F01FF8022084F83D00B3
:104E0000211D206801F008F8012084F8460084F88C
:104E10003E0084F83F0084F8400084F8410084F8A4
:104E2000420084F8430084F8440084F8450084F884
:104E30003D00002010BD000008B50C4A01680C4878
:104E4000914207D1016841F002010160006800F061
:104E5000020009E0074A914207D1016841F01001C0
:104E60000160006800F01000009008BD00040040E0
:104E7000403802400010004090F83D10012901D058
:104E800001207047022180F83D10006811498842D6
:104E900014D0B0F1804F11D00F4988420ED00F4985
:104EA00088420BD00E49884208D00E49884205D06E
:104EB0000D49884202D00D49884204D1816801F031
:104EC0000701062903D0016841F0010101600020BB
:104ED000704700000000014000040040000800404E
:104EE000000C004000040140004001400018004058
:104EF00001680A6A41F211131A4207D10A6A9B102B
:104F00001A4203D10A6822F001020A60012180F8E6
:104F10003D100020704770B5044690F83C00002515
:104F2000012817D0012684F83C60022084F83D0057
:104F30002068826822F0770222F47F42826008684B
:104F4000502838D00DDC20284FD005DC90B3102835
:104F500011D14AE0022070BD302846D040280AD145
:104F60003BE060282FD070280DD0B0F5805F03D0D3
:104F7000B0F5005F12D0012584F83D60002084F870
:104F80003C00284670BDCB68D1E90121206800F0C3
:104F9000ABFF2068816841F0770109E0CB68D1E977
:104FA0000121206800F0A0FF2068816841F4804161
:104FB0008160E1E719E0CA684968206800F0A6FF4F
:104FC0005021206806E0CA684968206800F0AFFFF9
:104FD0006021206800F092FFCEE7CA684968206827
:104FE00000F094FF40212068F4E722680146104653
:104FF000F0E738B5044690F84200202801D002209E
:1050000038BD51B14AB101202063002060632046C1
:1050100001F056FA216B012901D0012038BD216829
:105020000A684968009121680C3151E8002F42F06C
:10503000100241E80023002BF5D138BD10B50C4615
:105040000D4A0168914216D100F01EF80B49224624
:1050500001F5207006F0E4FB21460848FBF70FFD40
:10506000802206490648FFF7C4FF06480068016829
:1050700021F00801016010BD00100140900F0020D8
:10508000E80E0020300F002010B50446006840698B
:1050900094F84110C0F3C010212911D180B12068CB
:1050A000143050E8001F21F0800140E80012002A6F
:1050B000F5D1A06B08B1FEF7E8FD204601F00BF931
:1050C0002068406994F84210C0F38010222911D161
:1050D00080B12068143050E8001F21F0400140E802
:1050E0000012002AF5D1E06B08B1FEF7CEFD204694
:1050F00001F0CAF8002010BD70470000F8B5016843
:1051000004460868CA684B6910F00F0F4FF000059D
:1051100059D003F0010602F49077374365D0C107F8
:1051200005D0D10503D5616C41F0010161644107EF
:1051300005D5D90703D0616C41F002016164810794
:1051400005D5D90703D0616C41F004016164010702
:1051500007D502F02001314303D0616C41F0080112
:105160006164616C00293AD0800604D5900602D5AE
:10517000204601F0BEF820684069616CC0F38010E1
:10518000090700D460B3204601F07EF8206840692A
:10519000400621D52068143050E8001F21F040015E
:1051A00040E80012002AF5D1E06BA8B17249016510
:1051B000E06BFEF7B3FD002811D0E06B016D01B08C
:1051C000BDE8F040084783060FD593060DD520466D
:1051D000BDE8F84001F08DB82046FFF78DFFF8BD1F
:1051E0002046FFF789FF6564F8BD266B2023012E5A
:1051F0007ED1C6067CD5D6067AD508684868009068
:1052000048694FF0020640064DD5E26B10684068D1
:105210004FF480770004000C3AD0A18D814237D939
:10522000E085D069B8422DD020680C3050E8001FCE
:1052300021F4807140E80012002AF5D12068143072
:1052400050E8001F21F0010140E80012002AF5D1CA
:105250002068143050E8001F21F0400140E800129F
:10526000002AF5D184F84230256320680C3050E8DC
:10527000001F21F0100140E80012002AF5D1E06B78
:10528000FEF703FD6663A08DE18D401A81B206E052
:10529000A18D8142A8D1D069B842A5D166632046CC
:1052A000FFF7CCFEF8BDA08DE18D401A81B2E08DF4
:1052B0000028F7D00029F5D020680C3050E8002FE6
:1052C00022F4907240E80027002FF5D120681430B6
:1052D00050E8002F22F0010240E80027002FF5D10E
:1052E00084F84230256320680C3050E8002F00E03D
:1052F00006E022F0100240E80023002BF3D1CDE7B6
:1053000005062BD5150629D594F841002128C9D1C9
:10531000A068B0F5805F01D12069B0B1206A411C5E
:105320002162216800784860E08C401E0004000C77
:10533000E084B7D12068C16821F08001C160206895
:10534000C16841F04001C160F8BD206A0088C0F327
:1053500008004860206A801C2062E5E74006F3D51B
:105360005006F1D5CA68204622F04002CA6084F88F
:10537000413000F0DFF8F8BD8D61000870B5040021
:1053800004D094F84100002510B106E0012070BD62
:1053900084F84050204600F023F8242084F841008F
:1053A0002068C16821F40051C160204601F002F874
:1053B0002068016921F4904101612068416921F070
:1053C0002A0141612068C16841F40051C1606564EF
:1053D000202084F8410084F842006563002070BDFD
:1053E00070B586B0064614216846FBF748FB234992
:1053F0003068884240D122480025016841F0100100
:105400000160006800F0100005901D481438016824
:1054100041F0010101600068694600F0010005905B
:105420004FF4C06000900220CDE9010503200390F5
:10543000072004901348FEF707FE144C1248206022
:105440004FF00060C4E901054014C4E903506561F0
:10545000A561E561256220466562FEF741FD08B160
:10546000FEF719F8F463002211462520A663FFF722
:105470004DF92520FFF73CF906B070BD0010014042
:10548000443802400000024040640240300F0020D7
:10549000704770472DE9F843044690F8410098465C
:1054A00016460D46202802D00220BDE8F88385B1BB
:1054B0007EB100206064212084F84100FEF7E8FE00
:1054C000A6848146E684A0682027B0F5805F02D0DC
:1054D00003E00120E9E7206910B12E4600250EE027
:1054E00000260CE08021204601F03AF8A8B9C6B1A8
:1054F00016F8010B21684860E08C401EE084E08CC7
:105500004B464FF00002CDF800800028EAD14FF062
:105510004001204601F024F840B184F84170032096
:10552000C3E735F8020BC0F30800E3E784F84170E5
:105530000020BAE77047FEE701684A69D243520586
:105540000FD46FF480624A61002140F8301F20229E
:1055500042738173026942F0040202610173012007
:105560007047002070470000F8B50446C06A1E4628
:105570000D461746082807D0012805D010F5803FB2
:1055800002D0206B122804D12068016841F4807198
:105590000160134600224FF001112046009600F0F2
:1055A0005DF840B120680068C00502D54FF4007076
:1055B00020640320F8BD2069B0F5804F0ED006208E
:1055C000216800EAD51040F0F000086133463A4601
:1055D0000B49204600F08AF878B902E005F0FE0099
:1055E00000E0E8B221680861054933463A46891F60
:1055F000204600F07BF80028DCD00120F8BD000038
:105600000800010070B516460D4604461EE020460F
:10561000FFF792FF08B1012070BD681C16D0FEF79D
:1056200037FE801BA84200D885B920684069C04376
:1056300040070BD5002044F8300F20216173A07380
:10564000216941F0200121612073E4E7206840696D
:10565000C0434007DBD4002070BD00002DE9F047B7
:10566000984617460D460446C1F30746DDF82090DC
:105670002AE000BFB8F1FF3F26D0FEF709FEA0EBFD
:105680000901414502D8B8F1000F1DD12068012E53
:1056900016D0806925EA00000004000C12D000201A
:1056A000B84211D1002044F8300F20216173A0735B
:1056B000216941F02001216120730120BDE8F087BC
:1056C0004069E7E70120EBE72068012E0AD08069F6
:1056D00025EA00000004000C06D00020B842C9D022
:1056E0000020EBE74069F3E70120F7E72DE9F047F9
:1056F000984616460D4604464FF000094FF0200A22
:10570000C1F3074723E020684069C043400515D432
:105710002068016841F40071016021686FF48060C5
:105720004861C4F8309084F83DA084F83E90216C24
:1057300041F00401216484F83C9021E0701C06D003
:10574000FEF7A6FDA0EB0800B04203D816B1012F6A
:105750001FD021E02068012F15D0806925EA0000C4
:105760000004000C18D000BF44F8309F84F80DA04E
:1057700084F80E90216941F02001216184F80C9099
:105780000120BDE8F087406925EA00000004000C14
:10579000EAD12068406901E02068806925EA0000BC
:1057A0000004000CAFD1ECE770B516460D46044678
:1057B0001EE02046FFF7C0FE08B1012070BD681C46
:1057C00016D0FEF765FD801BA84200D885B9206879
:1057D0004069C04300060BD5002044F8300F20215B
:1057E0006173A073216941F0200121612073E4E716
:1057F00020684069C0430006DBD4002070BD000073
:105800007FB500241B480094019402941849039426
:10581000016001254FF480310561C0E9011404766F
:1058200080F820400903C1620226C6614910C460A5
:10583000816280F830404561FDF78BFF08B1FDF7CC
:105840002AFE0A20CDE90005694602940948FDF7C1
:1058500025FE08B1FDF71FFE0520CDE900066946CB
:105860000448FDF71BFE002801D0FDF714FE7FBDA4
:1058700000200140E80C00201CB500240C490094D5
:105880000A48019408600846FEF701F908B1FDF7DF
:1058900002FE0420CDE90004002269460448FEF718
:1058A000CCF8002801D0FDF7F6FD1CBD00740040C7
:1058B000900D0020154808B5016841F48001016091
:1058C000016801F480010091016841F40011016058
:1058D0000068002200F40010009011461020FEF72E
:1058E00015FF1020FEF704FF002211463820FEF7B6
:1058F0000DFF3820FEF7FCFE002211463A20FEF78D
:1059000005FFBDE808403A20FEF7F2BE30380240FD
:105910002DE9F04387B014216846FBF7B0F833480F
:105920000024016841F010010160016801F01001DC
:105930000591016841F004010160016801F0040172
:105940000591016841F080010160016801F080016A
:105950000591016841F001010160016801F0010158
:105960000591016841F002010160016801F0020146
:105970000591016841F0080101600068DFF870805E
:1059800000F008004FF47046059000223146404672
:10599000FEF779FCDFF85C904FF44077002239463F
:1059A0004846FEF770FC7C2001258DE831006946F1
:1059B0001148FEF749FB68038DE8310069460F483E
:1059C000FEF742FB0096CDE9015469464046039438
:1059D000FEF73AFB0097CDE9015469464846039427
:1059E000FEF732FB07B0BDE8F0830000303802401C
:1059F00000040240000C0240001002400008024077
:105A0000144810B5124901601349416000214FF458
:105A100080428160C0E9031241618161C16101621C
:105A2000FEF77CFC08B1FDF736FD00210948FEF7C2
:105A300035FC08B1FDF72FFD00210648FEF74FFCAD
:105A4000002803D0BDE81040FDF725BD10BD0000C3
:105A500000540040040E0020801A060010B586B0E5
:105A60000024174800940194029403940494134969
:105A7000059401605921C0E901146321C0E90314B0
:105A80008461FFF7ABF908B1FDF705FD4FF48050D5
:105A9000009069460A48FFF73EFA08B1FDF7FBFCA3
:105AA0002020CDE9040404A90548FFF74FF9002898
:105AB00001D0FDF7F0FC06B010BD0000000400406E
:105AC000580E00201CB500240E4800940C49019487
:105AD00001605921C0E9011463218461C160FFF7AD
