:020000040800F2
:10000000982500203903000813420008433F0008E8
:100010001142000821210008594800080000000092
:10002000000000000000000000000000174200086F
:100030005122000800000000154200081942000883
:100040005303000853030008530300085303000838
:100050005303000853030008530300085303000828
:100060005303000853030008530300085303000818
:100070005303000853030008530300085303000808
:100080008921000853030008ED1F000853030008EE
:1000900053030008530300085303000853030008E8
:1000A00053030008530300085303000853030008D8
:1000B00053030008530300085303000853030008C8
:1000C00053030008530300085303000853030008B8
:1000D000530300084D480008530300085303000869
:1000E0005303000853030008530300085303000898
:1000F0005303000853030008530300085303000888
:100100005303000853030008530300085303000877
:100110005303000853030008530300085303000867
:100120009521000853030008A1210008530300088B
:100130005303000853030008530300085303000847
:100140005303000853030008530300085303000837
:100150005303000853030008530300085303000827
:100160005303000853030008530300085303000817
:100170005303000853030008530300080000000065
:1001800053030008530300085303000853030008F7
:1001900053030008530300085303000853030008E7
:1001A00053030008530300085303000800F002F84B
:1001B00000F0B2F80AA090E8000C82448344AAF14F
:1001C0000107DA4501D100F0A7F8AFF2090EBAE84D
:1001D0000F0013F0010F18BFFB1A43F0010318477B
:1001E000B8560000D85600000A444FF0000C10F832
:1001F000013B13F0070408BF10F8014B1D1108BFA5
:1002000010F8015B641E05D010F8016B641E01F844
:10021000016BF9D113F0080F1EBF10F8014BAD1C94
:100220000C1B09D16D1E58BF01F801CBFAD505E0B2
:1002300014F8016B01F8016B6D1EF9D59142D6D30C
:10024000704700000023002400250026103A28BF34
:1002500078C1FBD8520728BF30C148BF0B60704738
:100260006E2900F07182702900F0BB83662905F0C9
:100270006882652905F06582672905F06282612937
:1002800005F0618203681B0A28BF41F080016929DB
:1002900000F01E82642900F01B82752900F018828C
:1002A0006F2900F04883782900F08783E92900F05E
:1002B000E382E42900F0E082F52900F0DD82EF29F5
:1002C00000F04583F82900F086830368DB0928BF26
:1002D00041F08001632901F0C780732901F0CC80CF
:1002E000E32901F0D780F32901F0DC80002070477A
:1002F0001FB505F021FA01F049F9040000200021A2
:1003000005F004FA401C60600020002105F0E8F9C7
:10031000E0601FBD10B510BD01F00AF91146FFF7EE
:10032000E7FF04F029FF01F0E7F903B4FFF7F2FF5C
:1003300003BC00F059F9000009488047094800470C
:10034000FEE7FEE7FEE7FEE7FEE7FEE7FEE7FEE785
:10035000FEE7FEE704480549054A064B70470000E2
:10036000B9420008AD010008981F00209825002020
:10037000982100209821002053EA020C00F06980A7
:100380002DE9F04B4FF00006002B1FBFB3FA83F5A9
:1003900003FA05F424FA05F65E4012BF1643B2FADA
:1003A00082F502FA05F4C5F120051EBF22FA05FC0C
:1003B00044EA0C04203556EA044C4FEA144418BFB2
:1003C000641C4FF000084FF00009904271EB030CE1
:1003D00039D3002919BFB1FA81F701FA07F6B0FA4B
:1003E00080F700FA07F6C7F120071EBF20FA07FCC6
:1003F00046EA0C062037B6FBF4FCA7EB0507103FD6
:1004000007F01F0BCBF120060CFA0BFB2CFA06F6BB
:1004100044BFB3460026202FA4BF5E464FF0000B1A
:100420005BEA060C08BF4FF0010B19EB0B09ABFBA5
:10043000027C48EB0608C01B06FB02CC0BFB03CC7E
:1004400071EB0C01C1E70B46024641464846BDE848
:10045000F08B13B54FF000004FF00001AFF30080B8
:10046000BDE81C40704700007CB51D4616460C00D8
:10047000009001D02044401E074B7B442A46694629
:100480000190304600F079F905461CB1002069461C
:1004900000F086F928467CBD2D03000010B5002031
:1004A00000F06EFBFFF736FFBDE81040012000F0C2
:1004B0009BB840EA010310B59B070FD1042A0DD366
:1004C00010C808C9121F9C42F8D020BA19BA884235
:1004D00001D9012010BD4FF0FF3010BD1AB1D30774
:1004E00003D0521C07E0002010BD10F8013B11F8AA
:1004F000014B1B1B07D110F8013B11F8014B1B1BD3
:1005000001D1921EF1D1184610BD032A40F230806D
:1005100010F0030C00F0158011F8013BBCF1020F44
:10052000624498BF11F801CB00F8013B38BF11F8C5
:10053000013BA2F1040298BF00F801CB38BF00F8DC
:10054000013B11F0030300F02283083AC0F0088059
:1005500051F8043B083A51F804CBA0E80810F5E73D
:10056000121D5CBF51F8043B40F8043BAFF3008020
:10057000D20724BF11F8013B11F801CB48BF11F895
:10058000012B24BF00F8013B00F801CB48BF00F865
:10059000012B70474FF0000200B513469446964673
:1005A000203922BFA0E80C50A0E80C50B1F1200186
:1005B000BFF4F7AF090728BFA0E80C5048BF0CC034
:1005C0005DF804EB890028BF40F8042B08BF704792
:1005D00048BF20F8022B11F0804F18BF00F8012B04
:1005E000704770477047704701491820ABBEFEE75F
:1005F0002600020010B500F0FDFA006810BD10B52D
:10060000044600F0F7FA046010BD70B50446856931
:100610000068C10601D5302600E02026C00707D0BB
:1006200070BDD4E9012130469047206A401C206209
:100630006D1EF6D570BD70B5044685690078C0079B
:1006400007D170BDD4E9012120209047206A401CC9
:1006500020626D1EF6D570BD09684A0501D540B20D
:100660007047C905FCD500B2704709684A0501D535
:10067000C0B27047C905FCD580B2704770B50C4652
:100680000546012A05D02878800600D5EA690023AE
:1006900002E0012305E05B1C934202D2E05C0028EB
:1006A000F9D1A869E618C01AA861286A1844286216
:1006B0002846FFF7AAFF04E0D5E9012114F8010B51
:1006C0009047B442F8D32846FFF7B5FF70BD00004D
:1006D0002DE9F0410646002410687529314616A51B
:1006E00010D0FFF7B9FF002802DA404213A507E057
:1006F00031688A0701D512A502E0490704D511A582
:10070000012401E0FFF7B1FF00210A2206F12407CE
:1007100009E0B0FBF2FCB0FBF2F302FB1C0030304E
:1007200078541846491C0028F3D123462A463046FF
:10073000BDE8F04100F0A7BA000000002D00000065
:100740002B0000002000000011680268006A5305B9
:1007500001D508700AE0D30501D5088006E013062C
:1007600003D5C217C1E9000200E00860012070470C
:1007700001694A1C02610878704700B58FB0CDE965
:1007800001310021059105497944CDE90310114655
:10079000684600F031F90FB000BD0000E5FFFFFF33
:1007A0000A6802F8010B0A607047D1E900239A42F7
:1007B00002D2531C0B601070704700002DE9FF5FE0
:1007C00015468A460446DFF8AC80F8440027D8E98D
:1007D00000103E46CDE9001010E03AF816106A46C7
:1007E00002A800F063FE411C07D02178890603D5DA
:1007F000E269391891420DD80744761C20788006AA
:1008000002D5E069B84205DDAE42E6DB3AF81600F3
:100810000028E2D1A069C01BA0612046FFF7F5FEC9
:10082000D8E90010CDE90010002017E03AF81810C0
:100830006A4602A800F03AFEB0F1FF3F81460BD0B5
:1008400000250DF1080B05E0D4E901211BF8050096
:1008500090476D1C4D45F7D308F10100B04280462A
:10086000E4DB206A384420622046FFF7E4FEBDE85E
:10087000FF9F0000AA4F00002DE9F0418046D21DE5
:1008800022F007020025D2E90002F52915A614D0AE
:10089000011E72F1000106DA0023D0EB030063EBC6
:1008A000020211A608E0D8F800108B0701D50FA6A8
:1008B00002E0490701D50EA601251146002408F1E2
:1008C000240704E000F09AF930323A55641C50EAEB
:1008D0000102F7D12B46324621464046BDE8F041A1
:1008E00000F0D1B9000000002D0000002B00000036
:1008F0002000000030B4002100F1240408E002F0E0
:100900000705D208303542EA4372DB086554491CBA
:1009100052EA0305F3D10468002310A2250707D586
:10092000A40600D421B1C46901230DA2641EC461D0
:1009300030BC00F0A8B910B5044621461068FFF796
:1009400094FE02462046BDE810400023D2E7D21DA7
:1009500022F00701D1E90023CCE7000000000000ED
:1009600030000000F0B40D460188090502D5214C85
:100970007C4402E01F4C7C440E34002100F124062C
:1009800008E002F00F071209E75D42EA03721B0953
:100990007754491C52EA0307F3D102780023120767
:1009A00004D5702D06D009B1022311342246F0BCC3
:1009B00000F069B901231034F8E770B504460D461C
:1009C00021461068FFF751FE024629462046BDE841
:1009D00070400023C6E7D21D22F00703D3E90023AD
:1009E000C0E70368126843F0200303600823C36173
:1009F0000023B7E70C4E00002DE9F05F894604465E
:100A00004FF0000ADFF874B1FB44C0F820A0204684
:100A1000E1688847002874D0252806D0D4E9012150
:100A20009047206A401C2062F1E700265F4620467E
:100A3000E16888472028054607DB312D05D2781963
:100A400010F8200C08B10643F1E7B00701D526F0F5
:100A50000406C4F81CA00027C4F818A02A2D09D049
:100A6000284604F0BBF838B304EB8708303DC8F8DB
:100A7000185019E059F8041B204604EB87029161D5
:100A8000E1688847012F054618D1E069002820DA7F
:100A900026F020061DE0D8F8180000EB800005EBDA
:100AA00040003038C8F818002046E16888470546FD
:100AB00004F094F80028EED1012F0AD02E2D08D191
:100AC0002046E16888477F1C0546022F46F0200635
:100AD000C4DBA069002803DA404246F00106A061A9
:100AE000F00701D026F010066C2D0BD0682D09D030
:100AF0004C2D39D06A2D35D0742D35D07A2D33D088
:100B000016E038E0E1682F4620468847B84205469F
:100B100009D16C2F26D04FF48060E168064320464F
:100B20008847054604E06C2F1AD04FF480700643C6
:100B30000DB3A5F14100192802D8203546F400660E
:100B40004A462946204626604E46FFF789FB80B17B
:100B500001280BD0F61D26F0070000F1080956E722
:100B60004020E4E78020D8E70020D6E706F104091A
:100B70004DE7284652E7206ABDE8F09F9C4D0000F3
:100B800010B500F0B9FCBDE8104000F0AFBC10B5E6
:100B9000203AC0F00B80B1E81850203AA0E8185075
:100BA000B1E81850A0E81850BFF4F5AF5FEA027C36
:100BB00024BFB1E81850A0E8185044BF18C918C0A5
:100BC000BDE810405FEA827C24BF51F8043B40F846
:100BD000043B08BF7047D20728BF31F8023B48BF2B
:100BE00011F8012B28BF20F8023B48BF00F8012B69
:100BF0007047704700487047381F002030B5B0F18B
:100C00000A024FEA900E71F100034EEA817EB0EBCA
:100C10000E0061EB91014FEA101E4EEA017E10EBCF
:100C20000E0041EB11114FEA102E4EEA016E10EB4F
:100C30000E0041EB11214FEA104E4EEA014E10EB2F
:100C40000E0041EB1141401841F100014FEAD00084
:100C500040EA41704FEAD10110EB80054FEA810470
:100C600044EA907444EB01046D1944EB0404521BF4
:100C7000A3414FF0000348BF0A3200D530BD401CED
:100C800041F1000130BD2DE9F0470D4699469246ED
:100C9000044600F124080168880604D5E06921F0C3
:100CA0001001216000E00120A84201DD471B00E0A7
:100CB0000027A1697A1902EB0900081AA0612078BF
:100CC000C00602D42046FFF7A0FC002608E0D4E9C5
:100CD00001211AF806009047206A401C761C206209
:100CE0004E45F4DB2078C0060AD52046FFF78DFC80
:100CF00006E0D4E9012130209047206A401C2062A0
:100D0000381EA7F10107F4DC07E0D4E9012118F847
:100D100005009047206A401C2062281EA5F10105AD
:100D2000F3DC2046FFF787FC2078000602D502207E
:100D3000BDE8F0870120FBE770472DE9FF4F0C4627
:100D40001E464FF0FF378BB0D2E90001DDF860801E
:100D50000A908A46C1F30A5505B93D460021084666
:100D60004FF00000BAF1000F00F4400005DA00EB8C
:100D700080004FF4400101EA50004FEA9059B9F168
:100D8000010F00DDB9460A9850EA4A000ED044F639
:100D90001050A5F2FF3545432F14B8F1000F1ED0B7
:100DA0007542291E1EDDC9F100021CE0B8F1010FD9
:100DB0004FF0000001D0302103E0F24305E0215460
:100DC000401CB042FBDB30460022002121540B992D
:100DD000C1F80880C1E900200FB0BDE8F08FBD1B4D
:100DE0006D1CDEE74A4600DA694206A800F012FCF4
:100DF00006AB93E8070003AB83E8070050460A9967
:100E000000F0E4FC8DE80700A0F500501F380090CA
:100E10000398002D0ADD42F21F014A4608440023D0
:100E200003A90390684600F04DFF09E0A0F50050CB
:100E30004A461F38002303A90390684600F057FF75
:100E40008DE807000004000C03D04FF0FF3041088C
:100E500000E01046B8F1000F03D0002200921546C2
:100E60001EE0751E05D4FFF7C9FE303262556D1EB7
:100E7000F9D5B3460122084302D000227F1C04E0CA
:100E80002078302801D100227F1E002A099784D0C3
:100E90001DE0112D07DAFFF7B1FE303262556D1CEF
:100EA00050EA0102F5D1084302D00098C8B10EE023
:100EB0000021681E05E0235C625C63542254401EDE
:100EC000491C8142F7DBAB46A81B401E099000205D
:100ED00004F80B000B98099AC0F80880C0E9002BB1
:100EE0007AE711264FF0000857E72DE9F04F8846C2
:100EF0000446D21D22F0070191B0D1E90001CDE9ED
:100F00000A0103F0AAFC02460B98C00F01D02D2065
:100F100007E02068810701D52B2002E0202101EAAB
:100F2000C000032A099001D0072A05DB0346414689
:100F3000204600F02FFB0BE12078800601D5E06908
:100F400000E00620B8F1650F814606D0B8F1660FC3
:100F500018D0B8F1670F70D131E00020B9F1110F4E
:100F6000009001DB112301E009F101030AAA01A9A4
:100F70000CA8FFF7E2FEDDE90C70002609F101057F
:100F8000834647E001204B4600904FF000470AAAF5
:100F900001A90CA8FFF7D1FEDDE90DB00C995D4663
:100FA000002610B909F101000D18B9EB050003D4B2
:100FB000C0F1FF3609F10105A5EB09002BE0B9F1FD
:100FC000010F01DA4FF001090020B9F1110F009073
:100FD000484601DD112300E003460AAA01A90CA836
:100FE000FFF7ABFEDDE90C704D4600268346207806
:100FF00000070AD4AB4500DA5D4601A8012D04DDE7
:10100000411911F8011C302907D04F4502DA17F1B8
:10101000040F04DA012082460FE06D1EEEE7002F78
:1010200002DCED1B3E4403E0781CA84200DD7D1C81
:10103000B81B00F1010A4FF000472078000703D4E5
:10104000AA4501DB4FF0FF3A0021B7F1004F0DF147
:1010500043088DF8431024D002202B23002F01DAFF
:101060007F422D230A21021EA0F1010000DC5FB1A6
:1010700097FBF1FC97FBF1F201FB1C7C17460CF18E
:10108000300C08F801CDEEE7A8F1010003702188CB
:10109000090501D5452100E06521A0F1010800F80E
:1010A000011C09980FA9A1EB0807FF1D00B1012041
:1010B000411901EBEA70A1693844081A401EA06189
:1010C0002078C00602D42046FFF79FFA099828B17D
:1010D000D4E901219047206A401C20622078C00694
:1010E00022D52046FFF791FA1EE0002E04DBB3451F
:1010F00002DD01A8805D00E03020D4E901219047A5
:10110000206A401C2062761CAAF101005FEA000AF6
:101110000AD100F03BFAC0680168405CD4E90121C3
:101120009047206A401C2062281EA5F10105DCDCE6
:1011300007E0D4E9012118F8010B9047206A401C10
:101140002062381EA7F10107F3DC2046FFF773FA8F
:10115000032011B041E600002DE9F04F04460D4692
:10116000D21D22F0070089B0D0E9009748463946E1
:1011700003F073FB0246F80F01D02D2307E020682F
:10118000810701D52B2302E0202101EAC0038DF85D
:1011900020300BB1012000E00020032A824601D05C
:1011A000072A04DB2946204600F0F4F93FE12078C5
:1011B000800601D40D2500E0E569C7F30A560D2D20
:1011C00049DA00214FEA175B08464FF00000002F74
:1011D00000F4400007DA00EB80004FF4400100EB20
:1011E000D07001EA60008115012901DD4FF0FF3167
:1011F00000224FEA850CBCF1180F06D31346ACF160
:1012000018004FF08052C24003E04FF4801323FADD
:101210000CF30CF10C0CBCF1200F04D3ACF1200C3E
:1012200009FA0CF001E007FA0CF000294FF0004831
:1012300001DD18B90FE00ED140450CD319EB0209BE
:101240005F4121B9404502D19F4329EA0209BBEB26
:10125000175F00D0761C2088000502D57B487844B3
:1012600002E07A487844193808AA302302F80A3094
:10127000037C0AF10101002E0AF1020A53546A4666
:1012800002DC4FF0300101E04FF031014FF0010876
:101290008DF8001002D0A6F2FF3603E059EA4701AC
:1012A00000D06B4E002D02DC2178090704D54FF0E9
:1012B00002082E218DF80110C44600210BE0C7F36F
:1012C00003433F01C35C491C6D1E02F80830052929
:1012D00008F1010801DA002DF1DC00210CE000EB3F
:1012E0001973491C1B786D1E082902F808304FEA53
:1012F000091908F1010801DA002DF0DC21688B06DC
:1013000002D516E0A8F10108E04505DD02EB08036F
:1013100013F8013C302BF5D0B8F1000F09DD02EBDA
:10132000080313F8013C2E2B03D1090701D4A8F1BF
:101330000108002D05DD3E2102F808106D1E08F1A0
:101340000108407C002E02F8080008F1010804DAC8
:101350002D20764202F8080002E02B2002F8080057
:101360000A214FF47A70864208F101080BDB96FBE4
:10137000F0F3303302F8083096FBF0F308F101087F
:1013800000FB136601E0642E0CDB642096FBF0F397
:10139000303302F8083096FBF0F308F1010800FB47
:1013A000136601E00A2E06DB96FBF1F0303002F8FE
:1013B000080008F1010896FBF1F001FB10603030E5
:1013C00002F80800A16908F1010808EB050202EB28
:1013D0000A00081AA0612078C00602D42046FFF750
:1013E00014F9216A08AE01EB0A00206204E0D4E996
:1013F000012116F8010B9047BAF1010AF7D22078C3
:10140000C00602D52046FFF700F96E4609E016F83F
:10141000010B3E280FD0D4E901219047206A401CDF
:101420002062B8F10108F2D22046FFF704F909B0B2
:101430000320BDE8F08F206A2844206203E0D4E94D
:101440000121302090476D1EEBD3F8E78D45000059
:1014500002FCFFFF10B5436913B1AFF3008001E058
:10146000FFF70CF9012010BD127800F124010A7079
:1014700000224A700122EDE711684FF0FF32E9E7E0
:1014800010B5436913B1AFF3008001E0FFF796F99F
:10149000012010BD128800F1240182840022C28440
:1014A0000122EDE711684FF0FF32E9E770B516460B
:1014B0000C46054600F062F8036893F80101012824
:1014C00006D0FF2C0FD8185D68B101202C7070BDBC
:1014D000D3F807013246214603F207130344284696
:1014E000BDE8704018474FF0FF3070BD002801D0B4
:1014F000FFF77AB87047000010B5002102A000F095
:1015000004F9012010BD0000534947414252543AAA
:101510002041626E6F726D616C207465726D696ED0
:101520006174696F6E00000000487047381F00202A
:101530007546FFF7F9FFAE4605006946534620F0B1
:101540000700854618B020B5FEF704FFBDE820402F
:101550004FF000064FF000074FF000084FF0000B6F
:1015600021F00701AC46ACE8C009ACE8C009ACE822
:10157000C009ACE8C0098D467047000010B500F006
:1015800005F8001D10BD00BF8541000000487047F0
:10159000581F00202DE9F0411F460446032601682C
:1015A000072A01F4006004DB08B116A505E016A5C2
:1015B00003E008B115A500E015A521F0100020609A
:1015C000A069C01EA0610FB1401EA0612046FFF7B8
:1015D0001CF84FB1D4E9012138469047206A401CDD
:1015E0002062C01C206206E0206AFAE7D4E90121EB
:1015F00015F8010B9047761EF8D22046FFF71BF82E
:10160000BDE8F0814E414E006E616E00494E4600CD
:10161000696E66002DE9F047814616468AB0354866
:1016200078440DC88DE80D0032487844801C03AC26
:101630000DC884E80D0041F69B300844372190FB2B
:10164000F1F290FBF1F5A5F1800501FB12041B3CC2
:1016500002D56442012000E00020DFF898A0804617
:101660000027FA44AAF1BE0A0EE0E0070AD032468B
:10167000684607EB470101230AEB810100F037FBC5
:101680008DE8070064107F1C002CEED1194F7F44B9
:10169000AE3F19E0E80715D007EB04100DF1180A6A
:1016A00090E80E008AE80E00C068F04201D1981957
:1016B00008903246012306A903A800F018FB03ABEB
:1016C00083E807006D10641C002DE3D14FF0010387
:1016D00032466946B8F1000F03A802D000F0F2FAD2
:1016E00001E000F004FBC9E90001C9F808200AB0D4
:1016F000BDE8F0875C42000010B50446AFF30080FF
:101700002046BDE81040FEF710BE70B505460C46F9
:101710000A2000E06D1C00F011F835B1287800288F
:10172000F8D102E0641C00F009F814B12078002818
:10173000F8D1BDE870400A20AFF3008008B56946D3
:101740008DF800000320ABBE08BD00004FF0013C47
:1017500050F8042B51F8043B9A4221D1A2EB0C0320
:10176000934313EACC1317D150F8042B51F8043BE0
:101770009A4215D1A2EB0C03934313EACC130BD17D
:1017800050F8042B51F8043B9A4209D1A2EB0C0308
:10179000934313EACC13DBD04FF00000704700BF37
:1017A000D01A01BAB1FA81F101F0180122FA01F060
:1017B000CB40C1F12001DBB2C0B2C01A2CFA01F358
:1017C000D11A914311EAC311E6D170475FEA400C88
:1017D00008BF91F0000F4FEA8C234FEAC12243EA81
:1017E00051514FEA1C5018BF00F5F0404FEA30004D
:1017F00018BF41F000415FEA6C5C00F02980BCF149
:10180000FF3F08BF40F080407047130C06BF120432
:101810004FF0100C4FF0000C130E04BF12020CF12D
:10182000080C130F04BF12010CF1040C930F04BF3A
:1018300092000CF1020CD30F04BF52000CF1010C0A
:1018400011464FF00002A0F11F00A0EB0C00704702
:1018500011F0004F08BF704731F000413FF4D5AFA1
:101860000B0C06BF09044FF0100C4FF0000C0B0ED0
:1018700004BF09020CF1080C0B0F04BF09010CF1A5
:10188000040C8B0F04BF89000CF1020CCB0F04BFBA
:1018900049000CF1010CCCF12003A0EB0C0022FA62
:1018A00003F302FA0CF241EA030100F10100704770
:1018B00020F07F4C80EA030023F07F47ACEB070366
:1018C00003F57C5300F0004003F1FF032DE980494C
:1018D0004FEA154B09B44FEA144325EA0B4E24EAAC
:1018E00003480FF2042606EB132749083E785FEA07
:1018F000320203FB0667C7F5000707FB06F64FEA4F
:1019000054374FEAD64606F1020607FB066CCCF1C7
:10191000005C4FEA1C472CEA074C07FB06F40CFB63
:1019200006F504EB15464FEA961634BF00204FF03B
:1019300000404FEAD13706FB07FC4FEA1C4C0CFB7A
:101940000BF7D21B03FB0CF761EB07010CFB0EF747
:10195000B0EB074072EB17420CFB08F734BFA2EB69
:101960000742B2EB074261EB17414FEA0C444FEAE2
:10197000910706FB07FC4FEA1C4C0CFB0BF7B0EB86
:10198000C74072EB573203FB0CF734BFA2EBC742E0
:10199000B2EBC74261EB57310CFB0EF7B0EBC7005F
:1019A00072EB57720CFB08F734BFA2EBC702B2EB25
:1019B000C70261EB5771039F4FEA816141EA9211BF
:1019C00004EBCC044FEAD1374FEA826206FB07FCF6
:1019D00042EA90124FEA80604FEA1C4C0CFB0BF776
:1019E000D21B03FB0CF761EB07010CFB0EF7B0EB0E
:1019F000074072EB17420CFB08F734BFA2EB07421B
:101A0000B2EB074261EB17414FEA8C554FEA910761
:101A100004EB9C2406FB07FC4FEA1C4C0CFB0BF769
:101A2000B0EBC74072EB573203FB0CF734BFA2EBAD
:101A3000C742B2EBC74261EB57310CFB0EF7B0EB7C
:101A4000C70072EB57720CFB08F734BFA2EBC7025A
:101A5000B2EBC70261EB577115EB4C254FEA816180
:101A600041EA92114FEA82624FEAD13742EA90127C
:101A700006FB07FC44F100044FEA80604FEA1C4C6F
:101A80000CFB0BF7D21B03FB0CF761EB07010CFB04
:101A90000EF7B0EB074072EB17420CFB08F734BFB0
:101AA000A2EB0742B2EB074261EB174115EB1C15A5
:101AB0004FEA813141EA92414FEA823242EA904252
:101AC0004FEA80304FEA0C7644F1000448EA0343C1
:101AD0004EEA0B484FF0000EB2EB080C71EB030717
:101AE00024BF624639464EEB0E0E4FF0000B001835
:101AF000524149414BEB0B0BB2EB080C71EB030766
:101B00007BF1000B24BF624639464EEB0E0E4FF0C0
:101B1000000B0018524149414BEB0B0BB2EB080C88
:101B200071EB03077BF1000B24BF624639464EEB95
:101B30000E0E51EA020718BF46F0010616EB0E76AC
:101B400055F1000254F1000103D5BDE88901BDE85B
:101B50000088BDE88901BDE80048B619524141EB53
:101B60000101A3F10103704780807F7E7D7C7B7A39
:101B70007978777676757473727171706F6E6E6D39
:101B80006C6C6B6A6A6968686766666564646363DF
:101B900062616160605F5F5E5E5D5D5C5C5B5B5A65
:101BA0005A595958585757565655555554545353D2
:101BB00052525251515050504F4F4F4E4E4D4D4D2D
:101BC0004C4C4C4B4B4B4A4A4A4949494848484778
:101BD00047474746464645454544444444434343B6
:101BE0004342424242414141002B9C4630D477005F
:101BF0002BD01CB54FEA370703B44FF010004FF05D
:101C00001001BAF1000F06D0BCF1000FDCBF40F0AC
:101C1000080040F008014FF000000FBCBDE8104084
:101C20000BF1010BBBF1010F08BF5FEA170722BFE1
:101C300012F1010211F101014FF0004143F10003E3
:101C400000F0004043EA00007047F9D35708D0E79E
:101C500046EA064613F1400F4FEA16461FDD13F120
:101C6000200FDFBF16430A46002120335B42BED05F
:101C7000C3F1200746EA064602FA07F74FEA16467E
:101C800046EA0706C3F1200722FA03F201FA07F732
:101C900021FA03F14FF0000342EA0702A7E746EA00
:101CA000020646EA06464FEA164646EA0106BCBF69
:101CB00046EA0646360C4FF000034FF000024FF0A4
:101CC000000194E72DE9804C9A46934670B491E860
:101CD000380007C831EA400C48BF34EA430C03D54A
:101CE000FFF7E6FDFFF780FFF0BCBDE8008C2DE9B3
:101CF000804C9A46934670B491E8380007C810F0BB
:101D0000804F08BF13F0804F03D100F005F8FFF7B4
:101D10006BFFF0BCBDE8008C20F07F4780EA030039
:101D200023F07F4C07EB0C03A3F57C5300F000403D
:101D3000A3F1FE0392F0000F00F0B38095F0000FC6
:101D400000F077802DE901494FEA11404FEA14462F
:101D500021EA004800FB06FC24EA064708FB06F6D9
:101D600007FB08F800FB07F718EB06484CEB164C8E
:101D70004FEA124B18EB07484FEA15464CEB174059
:101D800022EA0B4E0BFB06FC25EA06470EFB06F685
:101D900007FB0EFE0BFB07F71EEB064E4CEB164C3B
:101DA0004FF000061EEB074E4CEB174B18EB0B08E1
:101DB00040F1000018EB0E0B58EB000840F100005A
:101DC0008F1A4FF000013CBFC943661B14BFB5EB2F
:101DD000040C00213CBFC943F61B4FEA17444EEAEE
:101DE0008E0E27EA04454FEA1C4704FB07622CEAE3
:101DF000074C05FB07F70CFB05F604FB0CFC16EB88
:101E0000074642EB174216EB0C4642EB1C421BEB1B
:101E1000060658EB0202414146EA9E0601D5BDE89E
:101E20000189B619524141EB0101A3F10103BDE85B
:101E300001894FEA14454FEA114724EA054621EA91
:101E4000074C05FB07F406FB07F70CFB06F105FB47
:101E50000CFC11EB074144EB17444FEA124711EB1E
:101E60000C4144EB1C4422EA074C05FB07F206FB3D
:101E700007F70CFB06F605FB0CFC16EB074642EBDE
:101E8000174216EB0C4642EB1C456A1854F1000150
:101E900048BF7047B619524141EB0101A3F101035C
:101EA000704795F0000F37D04FEA11424FEA1447C0
:101EB00021EA024624EA074C02FB07F106FB07F77A
:101EC0000CFB06F402FB0CFC14EB074441EB17413E
:101ED0004FEA154714EB0C4441EB1C4125EA074C33
:101EE00002FB07F506FB07F70CFB06F602FB0CFCF2
:101EF00016EB074645EB174516EB0C4645EB1C4227
:101F0000121951F1000148BF7047B619524141EB17
:101F10000101A3F1010370474FEA14454FEA11474D
:101F200024EA054621EA074C05FB07F106FB07F703
:101F30000CFB06F24FF0000605FB0CFC12EB07420F
:101F400041EB174112EB0C4251EB1C4148BF70476B
:101F5000921841EB0101A3F10103704710B501464E
:101F6000806B026C12F0500F05D0026CD20626D5A1
:101F700000F079FA10BD016C41F400710164016850
:101F80008A6812F0405F17D1027EAAB9CA6A12F4B9
:101F9000700F02D08A6852050ED44A6822F02002DF
:101FA0004A60016C21F480710164016CC90403D49E
:101FB000016C41F00101016400F044FA10BD806B36
:101FC000C26CBDE810400846104710B5806B402138
:101FD0000164416C41F00401416400F044FA10BD19
:101FE00010B5806B00F03EFA10BD0000014800F013
:101FF0003BBA000078010020464910B54A6822F437
:1020000040324A604A6843681A434A6001684A6835
:1020100022F480724A6001684A68036942EA032236
:102020004A6001684A6822F040724A6001684A6862
:1020300083681A434A6001688A6822F400628A60F1
:1020400001688A68C3681A438A60816A6FF07062A7
:10205000D14201688A6822F070628A6001688A68E9
:102060000CD0836A1A438A6001688A6822F0405261
:102070008A6001688A68C36A1A4301E022F040520C
:102080008A6001688A6822F002028A6001688A68B0
:10209000037E42EA43028A6090F82010002901681A
:1020A0004A680FD042F400624A6001684A6822F42C
:1020B00060424A6001684A68174C436A04EB433344
:1020C0001A4301E022F400624A600168CA6A22F4FD
:1020D0007002CA620168CA6A838B104C04EB035316
:1020E0001A43CA6201688A6822F400728A60016831
:1020F0008A6890F8303042EA43228A6001688A6830
:1021000022F480628A6001688A68406942EA80201D
:10211000886010BD0023014000E0FFFF0000F0FFD9
:10212000FEE710B5846B204600F0D0FB0120207143
:1021300010BD10B5846B204600F09EFB012020717D
:1021400010BD10B5846B206940F00400206120466A
:1021500000F0BEFB0120207110BD10B5846B20691A
:1021600040F004002061204600F088FB012020712F
:1021700010BD10B5806B00F0AAFB10BD10B5806BD0
:1021800000F07BFB10BD0000014800F0D3BC000054
:1021900034020020014800F0CDBC0000C001002046
:1021A000014800F0C7BC00006C0300200168182340
:1021B000CAB2103AB2FBF3F2054B6FF30901032ADE
:1021C0009B5CC36500D9091D816508467047000006
:1021D0004A57000810B5014600208B698A6A4FF003
:1021E000C07453B1B3F5005F15D072B1012A0CD0A1
:1021F000022A0AD0032A09D104E01AB1012A06D022
:10220000022A03D1C96AC90100D5012010BDC96ADB
:10221000A142FAD010BD002AF7D0012AF2D0022A3A
:10222000F3D0032AF3D010BD30B50468256825F437
:1022300080252560046863608368402B036803D0B1
:1022400099600068C26030BD9A600068C16030BDAE
:10225000704772B6FEE700002DE9F0470D462DED00
:10226000048BB0EE409A00EE105ADFED1A0A914648
:10227000B8EE400A06460024DFED178A80EE808A19
:102280004FF4805740F6FF781EE000BF00EE904A02
:10229000B0EE490AF8EE600A00EE880A02F018FB78
:1022A00000EE909AB8EE601AF0EE680A40EE010A6D
:1022B000BCEEE00A10EE100A80B226F81400B84214
:1022C00001D326F81480641CAC42DFD3BDEC048B30
:1022D000BDE8F087D00FC94000F0FF447047000010
:1022E00078B50024009490F83C20012A19D00122EE
:1022F00080F83C200A6807230568092A13D9EE688C
:102300000A3A02EB420293409E43EE600B788A68E1
:102310000A3B03EB43039A400368DD682A43DA6013
:1023200010E0022078BD2E6902EB420293409E43EA
:102330002E610B788A6803EB43039A4003681D699A
:102340002A431A614A681F23072A13D205686E6B55
:10235000521E02EB820293409E436E630A8893B240
:102360000A79521E02EB820293400268556B2B439E
:10237000536327E005680D2A12D22E6BD21F02EBA1
:10238000820293409E432E630B790A88DB1F92B230
:1023900003EB83039A4003681D6B2A431A6311E021
:1023A000EE6A0D3A02EB820293409E43EE620B7995
:1023B0000A880D3B92B203EB83039A400368DD6AFF
:1023C0002A43DA621B4B0568194A9D420AD10D68FF
:1023D000122D07D1556825F400055560556845F460
:1023E0008005556005689D421DD1134D0B68AB42B9
:1023F00001D0112B17D1536823F480035360536825
:1024000043F4000353600968A9420CD10B490C4AFC
:102410000968B1FBF2F101EB8101490000E0491EBE
:1024200000910029FBD180F83C40002078BD0000DD
:102430000023014000200140120000100C00002089
:1024400040420F0010B5054A0168914204D100F0E6
:10245000DDF903490120087010BD00000020014093
:10246000740100207047704770B504460068066824
:10247000456816F0020F05F020012AD049B3216CFF
:10248000C90603D4216C41F400712164816811F004
:10249000405F17D1217EA9B9C16A11F4700F02D033
:1024A000816849050ED4416821F020014160206C0B
:1024B00020F480702064206CC00403D4206C40F0B1
:1024C000010020642046FFF7BDFF21686FF0120075
:1024D000086016F0040F05F0800132D089B3206C3B
:1024E000C00603D4206C40F400502064206881684A
:1024F00011F4401F1ED1816B11F4401F02D081687E
:10250000490517D44168490514D4816811F0405F2A
:1025100010D1217E71B9416821F080014160206CA9
:1025200020F480502064206CC00503D4206C40F05F
:10253000010020642046FFF7D1FE21686FF00C00F7
:10254000086016F0010F05F040010FD071B120684E
:102550000068C0070AD0206C40F480302064204618
:1025600000F043F821686FF00100086016F0200FBA
:1025700005F080610ED000290CD0606C40F00200A4
:10258000606420686FF0200505602046FFF76BFF50
:102590002068056070BD70B504004FF0000503D0E1
:1025A000206C002610B107E0012070BD204600F02D
:1025B0001DF8666484F83C60206CC00610D4206C62
:1025C00020F4885040F0020020642046FFF714FDFC
:1025D0006664206C20F0020040F00100206400E0FE
:1025E000012584F83C60284670BD704770B586B000
:1025F000064614216846FDF7CDFF28493068884219
:1026000049D127480025016841F4807101600068C4
:10261000234900F4807014390590086840F00400E4
:102620000860086800F004000590086840F00100A8
:1026300008600868032400F00100059001208DE87F
:1026400031006946174800F0E7FB20208DE8310093
:102650006946154800F0E0FB154C1448C4E9000534
:102660000015A560C4E90350800060618000C4E9E2
:10267000060525622046656200F02CFB08B1FFF7D5
:10268000E8FDB463002211461220A66300F056FD57
:10269000122000F045FD06B070BD00000020014092
:1026A000443802400008024000000240106402402A
:1026B000C0010020F8B50E4600210446009190F8B4
:1026C0003C0013460A46012807D0012084F83C004C
:1026D00020688568ED0702D011E00220F8BD85680A
:1026E00045F0010585604048404D0068B0FBF5F0BD
:1026F00000EB400000E0401E00900028FBD1206865
:102700008568ED0503D5856825F4807585602068AA
:102710008568ED075DD0226C40F20165AA4342F462
:10272000807222644068400505D5206C20F400507A
:1027300040F480502064206CC00404D5606C20F00C
:102740000600606400E0616484F83C10A16B2948D5
:10275000274DC863A16B28480864A16B2748C8644B
:1027600021686FF0220008602068416841F08061B4
:1027700041602068816841F480718160216832463F
:102780004C31A06B00F010FB024668681C49C00683
:10279000206806D0884224D1816811F0405F13D0B0
:1027A0001FE08842F8D0174B984203D1D1F8043388
:1027B000DB06F1D0144B984213D1D1F8041301F089
:1027C0001F011029E8D30CE0816841F0804181604D
:1027D00007E0206C40F010002064606C40F00100C5
:1027E00060641046F8BD00000C00002040420F005D
:1027F000002301405D1F0008E11F0008CB1F0008F7
:1028000000200140002101400022014010B5044693
:10281000002094F83C1001290CD0012184F83C10D0
:1028200021688A6822F001028A6021688A68D207DA
:1028300002D01DE0022010BD8A6822F480728A60F6
:10284000A16B91F83520022A07D1084600F016F94D
:1028500018B1216C41F04001216421684A6822F0DE
:1028600080624A60216C21F4885141F001012164A9
:10287000002184F83C1010BD70477047704770B558
:1028800000B3F9B14379012B1ED001264671022312
:10289000037105682C6802F0100340F6FE729A403E
:1028A0009443D1E900210A439A4022432A600168F7
:1028B0000A68C0249C40A2430A600671002141714D
:1028C000084670BD012070BD022070BD7047704782
:1028D000704770B5040003D02079002510B105E0E1
:1028E000012070BD6571204600F008F802202071BB
:1028F000256101202071002070BD000070B586B0F8
:10290000054614216846FDF745FE1F4928688842A0
:1029100037D11E480026016841F00051016000686F
:1029200000F00050059019481038016841F001018D
:1029300001600068694600F00100059010200090D9
:102940000320CDE90106124800F066FA124C114846
:1029500020604FF0606060604020C4E90206000122
:102960002061400060618000A0614011C4E9070659
:102970002046666200F0AEF908B1FFF76AFCAC6071
:10298000A56306B070BD00000074004040380240EE
:102990000000024088600240340200202DE9F0412E
:1029A0000400069817460D461BD0617901291BD0FB
:1029B0000126667102212171C5B1E2682949D163FE
:1029C000E26829491164E2682849D16421680A68EB
:1029D00042F080520A6040B32268042828D01C329A
:1029E00027E00120BDE8F0810220FBE7A268204932
:1029F000D163A2681F491164A2681F49D16421688C
:102A00000A6842F480520A6020B12268042804D087
:102A1000103203E02268083200E00C3220680168BE
:102A200041F400510160A06809E02268143200E01E
:102A300018322068016841F000510160E0683946B1
:102A400000F0B2F90021617120B1216941F0040167
:102A50002161C7E721680A6805F010039E403243F0
:102A60000A60BFE7332100087D2100085B210008D0
:102A70002321000873210008432100082DE9F041BB
:102A80000446876D00F0ECFA064694F83500002500
:102A9000022806D08020606584F834500120BDE80B
:102AA000F0812068016821F0160101602068416909
:102AB00021F080014161206C08B9A06C20B1206830
:102AC000016821F0080101602068016821F001011E
:102AD00001600CE000F0C4FA801B052807D9202013
:102AE0006065032084F8350084F83450D7E7206807
:102AF0000068C007EED194F85C103F208840B860B1
:102B0000012084F8350084F834500020C7E790F89D
:102B10003510022903D0802141650120704705212D
:102B200080F835100068016821F001010160002083
:102B3000704700002DE9F84304464FF00009CDF836
:102B4000009063484FF41651A56D0068B0FBF1F793
:102B50002E6894F85C10082000FA01F131420FD081
:102B600021680A6852070BD50A6822F004020A603D
:102B700094F85C108840A860606D40F001006065CA
:102B800094F85C104FF0010808FA01F0304208D0C8
:102B900021684969090604D5A860606D40F002000B
:102BA000606594F85C1004208840304208D02168A9
:102BB0000968890704D5A860606D40F0040060656D
:102BC00094F85C1010208840304218D021680968C1
:102BD000090714D5A86020680168490304D5006876
:102BE000000308D5A16C07E00168C90503D401689A
:102BF00021F008010160216C09B12046884794F852
:102C00005C1020208840304231D021680968C90614
:102C10002DD5A86094F8350005282068016806D0F5
:102C2000490347D5006800031DD4616C1CE021F006
:102C3000160101602068416921F080014161206C2A
:102C400008B9A06C20B12068016821F0080101607A
:102C500094F85C103F208840A86084F8358084F8A0
:102C60003490216D1FE0E16B09B120468847606D0B
:102C700000282BD0606DC00714D0052084F83500E3
:102C80002068016821F0010101600098401C00905B
:102C9000B84203D820680068C007F6D184F83580B0
:102CA00084F83490E16C002910D001B02046BDE8D2
:102CB000F04308470168C905D5D4016821F0100127
:102CC000016084F8358084F83490CCE7BDE8F8835F
:102CD0000C0000202DE9F041044600F0C1F9064641
:102CE0005CB1022084F83500002584F83450206857
:102CF000016821F0010101600DE00120BDE8F081D3
:102D000000F0AEF9801B052805D92020606503205E
:102D100084F83500F2E720680068C007F0D1226827
:102D2000116820480140D4E901031843D4E903366F
:102D30003343184363691843A3691843E36918438D
:102D4000236A18430843616A042903D1D4E90B13A9
:102D500019430843106020684069666A20F0070143
:102D600030460E43012704280CD1A06A0643E06ACE
:102D700040B12046FFF72EFA20B14020606584F86C
:102D80003570BAE7206846612046FFF70FFA94F8DD
:102D90005C203F2191408160656584F8357000209A
:102DA000ACE700003F8010F02DE9F0410446866D4D
:102DB00090F83400002501280DD0012084F834005B
:102DC00094F835700020012F07D084F834000225D4
:102DD0002846BDE8F0810220FBE7022784F8357021
:102DE00060652046FFF720FA94F85C103F20884089
:102DF000B0602068016841F016010160206C20B1CC
:102E00002068016841F0080101602068016841F014
:102E100001010160DCE700002DE9F84FDFF8F8A1BF
:102E20000022012403254FF00F090AF1040BAAF137
:102E3000040E00BF0B6804FA02F63340B34270D1AF
:102E40000F7907F00307012F01D0022F16D18768F1
:102E50004FEA420805FA08FC27EA0C07D1F80CC033
:102E60000CFA08FC4CEA070CC0F808C04768B743E6
:102E70000E79C6F3001696403E4346600E79F6433F
:102E8000B6070AD0C7684FEA420C05FA0CF6B743FA
:102E90008E6806FA0CF63E43C6600E7906F003060D
:102EA000022E10D1D60800EB8608D8F8206057070C
:102EB0004FEAD76C09FA0CF7BE430F6907FA0CF713
:102EC0003743C8F8207006684FEA420C05FA0CF741
:102ED000BE430F7907F0030707FA0CF73743076083
:102EE0004E6816F4403F1CD04C4E376847F480477C
:102EF0003760366822F0030706F480460096484E95
:102F000007EB060CDCF8086897073F0F09FA07F88B
:102F100026EA0806DFF80C81404503D14FF000088F
:102F200041E072E0DFF80081404502D14FF0010836
:102F300039E0DFF8F880404502D14FF0020832E076
:102F4000DFF8EC80404502D14FF003082BE0DFF8BA
:102F5000E480404502D14FF0040824E0DFF8D88037
:102F6000404502D14FF005081DE0DFF8D080404514
:102F700002D14FF0060816E0DFF8C480404502D1C8
:102F80004FF007080FE0DFF8BC80404502D14FF05A
:102F9000080808E0DFF8B080404502D14FF009088A
:102FA00001E04FF00A0808FA07F848EA0608CCF8EA
:102FB0000888DAF800605746D1F804C09E435FEAFB
:102FC000CC2C00D51E433E60DBF800605F46D1F894
:102FD00004C09E435FEA8C2C00D51E433E60DEF8A1
:102FE00000607746D1F804C09E435FEA8C3C00D570
:102FF0001E433E60084F083F3E68D1F804C09E4320
:103000005FEACC3C00D51E433E60521C102AFFF400
:1030100011AFBDE8F88F0000083C01404438024081
:10302000003001400000024000040240000802405D
:10303000000C024000100240001402400018024040
:10304000001C0240002002400024024000690840A9
:1030500000D0012070470AB1816170470904FBE785
:103060000148806870470000000000200248816825
:103070000278114481607047000000200B4810B5B1
:10308000016841F400710160016841F480610160F0
:10309000016841F480710160032000F06FF80F2097
:1030A00000F006F800F024F8002010BD003C0240BB
:1030B00070B50D4D04464FF47A712878B1FBF0F0ED
:1030C0000A490968B1FBF0F000F044FB48B9102C44
:1030D00007D200222146501E00F030F800206C601C
:1030E00070BD012070BD0000000000200C00002019
:1030F0000A4808B5016841F480410160006800F4A5
:10310000804000900548001F016841F08051016037
:10311000006800F08050009008BD00004438024074
:10312000002809DB00F01F020121914040098000C6
:1031300000F1E020C0F8001170470000F0B40E4B21
:103140001B680C46C3F30223C3F10705042D00D905
:103150000425191D072901D2002300E0DB1E0126EA
:1031600006FA05F1491E214099409E40761E164000
:103170003143F0BC01F09CBB0CED00E0064900F0CF
:10318000070208684FF6FF03184040EA0220034A8E
:1031900010430860704700000CED00E00000FA05E5
:1031A0002DE9F8431748016841F08051016000683B
:1031B000154F00F08050012600903E64FFF750FF4D
:1031C00005464FF47A78114C05E000BFFFF748FF41
:1031D000401B40450DD86068C003F7D57E64FFF7FB
:1031E0003FFF0546464607E0FFF73AFF401BB04267
:1031F00002D90320BDE8F88360688003F4D500207D
:10320000F8E700004038024000000E420070004025
:103210002DE9F0470E46050065D0DFF81481D8F897
:103220000000F7B200F00F00B04207D288F800703B
:10323000D8F8000000F00F00B04254D128683D4C8F
:10324000810712D5400703D5206840F4E050206084
:103250002878000703D5206840F46040206020688B
:10326000A96820F0F000084320602878C0072DD01E
:10327000304968680839012812D0022813D0032881
:1032800011D00968890700292DDA216821F003018E
:1032900001432160FFF7E4FE814641F2883A0EE0E7
:1032A00009688903EFE709688901ECE7FFF7D8FEB1
:1032B000A0EB0901514502D90320BDE8F087206841
:1032C000696800F00C00B0EB810FEFD1D8F8001066
:1032D000404601F00F01B14207D90770006800F0C5
:1032E0000F00B04201D00120E7E72878400705D55C
:1032F0002068E96820F4E05008432060287800073F
:1033000006D52068296920F4604040EAC1002060A9
:1033100000F038F82168084AC1F30311515CC84035
:103320000649086006480068FFF7C2FE0020C4E7AF
:10333000003C024008380240525700080C000020B0
:10334000040000200448054900680968044AC1F3E4
:103350008221515CC84070470C00002008380240B0
:10336000625700080448054900680968044AC1F327
:103370004231515CC84070470C00002008380240C0
:1033800062570008154810B5006810F00C02144888
:1033900013D01449042A0FD0082A0ED10F4C241F31
:1033A0002268236802F03F025B0207D52068C0F361
:1033B0008810A0FB010106E0084610BD2168C1F39A
:1033C0008811A1FB00010023FCF7D6FF2168C1F39F
:1033D0000141491C4900B0FBF1F010BD0838024022
:1033E0000024F40040787D012DE9F84F04006ED0F0
:1033F0002078DFF84C93C007A9F104054AD009F101
:1034000004000168C1F38101012908D00068C0F3FC
:10341000810002280AD1D9F80000400206D52868A8
:10342000800337D560680028E1D033E06068B0F5EC
:10343000803F10D0B0F5A02F286810D020F4803045
:103440002860286820F4802028606068A8B1FFF711
:1034500007FE06460DE0286840F48030F4E740F4AB
:1034600080202860F7E700BFFFF7FAFD801B642883
:1034700073D828688003F7D50CE0FFF7F1FD064606
:1034800005E000BFFFF7ECFD801B6428F0D828683A
:103490008003F7D42078DFF8AC8280074FF0000A71
:1034A0003ED5A748001D016811F00C0F08D0006838
:1034B000C0F3810002280BD1D9F80000400207D4E4
:1034C0002868800716D5E068012800D112E033E1B2
:1034D000E068B8B10120C8F80000FFF7C1FD06465A
:1034E00005E000BFFFF7BCFD801B0228C0D828689C
:1034F0008007F7D52868216920F0F80040EAC1006C
:1035000028600DE0C8F800A0FFF7AAFD064604E019
:10351000FFF7A6FD801B02281FD828688007F7D474
:103520002078000722D5864F87486169703771B1CE
:1035300001210160FFF794FD064604E0FFF790FDCE
:10354000801B022809D838688007F7D50EE0C0F83C
:1035500000A0FFF785FD064605E082E0FFF780FD4D
:10356000801B02287DD838688007F7D42078400770
:1035700068D5DFF8CCB100270BF13C0BDBF800007D
:10358000C0000BD4DBF8001041F08051CBF80010E4
:10359000DBF80000012700F0805000906B4E30688F
:1035A000C00510D4306840F480703060FFF758FDDB
:1035B000009005E0FFF754FD0099401A022850D80A
:1035C0003068C005F6D55E4EA0686C3601280FD075
:1035D0000528306810D020F001003060306820F0FD
:1035E00004003060A068B8B1FFF73AFD00900FE02A
:1035F000306840F00100F4E740F004003060F7E785
:10360000FFF72EFD0099411A41F28830814266D8B9
:1036100030688007F4D50EE0FFF722FD009007E048
:10362000FFF71EFD0099411A41F28830814256D8B9
:1036300030688007F4D42FB1DBF8001021F08051FE
:10364000CBF80010A069C8B33D49091D0968C1F352
:10365000810102294AD00228504607D0C8F86000EC
:1036600000E03CE0FFF7FCFC04463BE04746C8F8BE
:103670006000FFF7F5FC064605E000BFFFF7F0FC31
:10368000801B02282BD828688001F7D4D4E90701D1
:103690000843A16A2E4A490802EB0141626A41EAE5
:1036A0008211084394F82C1040EA0161C9F8001017
:1036B00001203866FFF7D4FC044606E03EE000BF78
:1036C000FFF7CEFC001B022809D828688001F7D537
:1036D00034E000BFFFF7C4FC001B022802D903201E
:1036E000BDE8F88F28688001F4D427E00128F7D0DE
:1036F000D9F80000E26900F4800191421CD1226AED
:1037000000F03F01914217D147F6C071626A014053
:10371000B1EB821F10D1A26A4FF0FF3300F44031A9
:1037200003EB5202B1EB024F06D194F82C1000F0DB
:103730007060B0EB016F01D00120D1E70020CFE72E
:103740000438024000004742800E474200700040AB
:103750000000FFFF10B5401EB0F1807F01D30120B3
:1037600010BD4FF0E02460610F21601701F0A0F858
:103770000020A06107202061002010BD70B590F8E6
:103780003C20012A32D0012480F83C40022280F8FB
:103790003D2003685A689D6822F070060A6832432B
:1037A0005A60134B02689A4214D0B2F1804F11D084
:1037B000104B9A420ED0104B9A420BD00F4B9A42AC
:1037C00008D00F4B9A4205D00E4B9A4202D00E4BB6
:1037D0009A4204D1496825F080031943916080F82A
:1037E0003D40002180F83C10084670BD022070BDAD
:1037F000000001400004004000080040000C0040B0
:1038000000040140004001400018004010B50400D1
:1038100003D094F83D0010B107E0012010BD002056
:1038200084F83C00204600F01FF8022084F83D0098
:10383000211D206800F048FD012084F8460084F82E
:103840003E0084F83F0084F8400084F8410084F88A
:10385000420084F8430084F8440084F8450084F86A
:103860003D00002010BD000008B50C4A01680C485E
:10387000914207D1016841F002010160006800F047
:10388000020009E0074A914207D1016841F01001A6
:103890000160006800F01000009008BD00040040C6
:1038A000403802400010004090F83D10012901D03E
:1038B00001207047022180F83D10006811498842BC
:1038C00014D0B0F1804F11D00F4988420ED00F496B
:1038D00088420BD00E49884208D00E49884205D054
:1038E0000D49884202D00D49884204D1816801F017
:1038F0000701062903D0016841F0010101600020A1
:103900007047000000000140000400400008004033
:10391000000C00400004014000400140001800403D
:1039200070B5044690F83C000025012817D0012608
:1039300084F83C60022084F83D002068826822F010
:10394000770222F47F4282600868502838D00DDC6C
:1039500020284FD005DC90B3102811D14AE0022076
:1039600070BD302846D040280AD13BE060282FD0D7
:1039700070280DD0B0F5805F03D0B0F5005F12D095
:10398000012584F83D60002084F83C00284670BD85
:10399000CB68D1E90121206800F0FEFC2068816835
:1039A00041F0770109E0CB68D1E90121206800F0FE
:1039B000F3FC2068816841F480418160E1E719E00F
:1039C000CA684968206800F0F9FC5021206806E0C8
:1039D000CA684968206800F002FD6021206800F094
:1039E000E5FCCEE7CA684968206800F0E7FC4021A2
:1039F0002068F4E7226801461046F0E738B504462F
:103A000090F84200202801D0022038BD51B14AB1BF
:103A10000120206300206063204600F08DFE216BB2
:103A2000012901D0012038BD21680A684968009148
:103A300021680C3151E8002F42F0100241E80023C8
:103A4000002BF5D138BD000010B50C460D4A0168B9
:103A5000914216D100F01EF80B49224601F5207064
:103A600001F090FD21460848FCF794FD80220649AC
:103A70000648FFF7C3FF06480068016821F0080107
:103A8000016010BD00100140CC0300202403002081
:103A90006C03002010B504460068406994F841109A
:103AA000C0F3C010212911D180B12068143050E832
:103AB000001F21F0800140E80012002AF5D1A06B20
:103AC00008B1FEF7DBFF204600F040FD20684069AA
:103AD00094F84210C0F38010222911D180B12068DF
:103AE000143050E8001F21F0400140E80012002A85
:103AF000F5D1E06B08B1FEF7C1FF204600F0FFFCF6
:103B0000002010BD70470000F8B501680446086841
:103B1000CA684B6910F00F0F4FF0000559D003F041
:103B2000010602F49077374365D0C10705D0D1056F
:103B300003D5616C41F001016164410705D5D907E6
:103B400003D0616C41F002016164810705D5D9079A
:103B500003D0616C41F004016164010707D502F0F4
:103B60002001314303D0616C41F008016164616C54
:103B700000293AD0800604D5900602D5204600F0F0
:103B8000F3FC20684069616CC0F38010090700D421
:103B900060B3204600F0B3FC20684069400621D5A0
:103BA0002068143050E8001F21F0400140E8001266
:103BB000002AF5D1E06BA8B172490165E06BFEF710
:103BC000A6FF002811D0E06B016D01B0BDE8F04008
:103BD000084783060FD593060DD52046BDE8F8406B
:103BE00000F0C2BC2046FFF78DFFF8BD2046FFF76E
:103BF00089FF6564F8BD266B2023012E7ED1C606A1
:103C00007CD5D6067AD508684868009048694FF098
:103C1000020640064DD5E26B106840684FF480778D
:103C20000004000C3AD0A18D814237D9E085D069DB
:103C3000B8422DD020680C3050E8001F21F480716C
:103C400040E80012002AF5D12068143050E8001F27
:103C500021F0010140E80012002AF5D1206814305B
:103C600050E8001F21F0400140E80012002AF5D181
:103C700084F84230256320680C3050E8001F21F0A2
:103C8000100140E80012002AF5D1E06BFEF7F6FEC5
:103C90006663A08DE18D401A81B206E0A18D81425C
:103CA000A8D1D069B842A5D166632046FFF7CCFE03
:103CB000F8BDA08DE18D401A81B2E08D0028F7D0CB
:103CC0000029F5D020680C3050E8002F22F49072C3
:103CD00040E80027002FF5D12068143050E8002F6D
:103CE00022F0010240E80027002FF5D184F842308D
:103CF000256320680C3050E8002F00E006E022F039
:103D0000100240E80023002BF3D1CDE705062BD5A8
:103D1000150629D594F841002128C9D1A068B0F52D
:103D2000805F01D12069B0B1206A411C2162216805
:103D300000784860E08C401E0004000CE084B7D19D
:103D40002068C16821F08001C1602068C16841F02D
:103D50004001C160F8BD206A0088C0F308004860D7
:103D6000206A801C2062E5E74006F3D55006F1D5B5
:103D7000CA68204622F04002CA6084F8413000F050
:103D8000DFF8F8BD0344000870B5040004D094F8CF
:103D90004100002510B106E0012070BD84F84050BC
:103DA000204600F023F8242084F841002068C168F0
:103DB00021F40051C160204600F038FC2068016900
:103DC00021F4904101612068416921F02A0141619B
:103DD0002068C16841F40051C1606564202084F806
:103DE000410084F842006563002070BD70B586B064
:103DF000064614216846FCF7CDFB2349306888420B
:103E000040D122480025016841F01001016000689E
:103E100000F0100005901D481438016841F00101C0
:103E200001600068694600F0010005904FF4C06031
:103E300000900220CDE901050320039007200490A3
:103E40001348FEF7E9FF144C124820604FF0006061
:103E5000C4E901054014C4E903506561A561E56149
:103E6000256220466562FEF735FF08B1FEF7F1F9DD
:103E7000F463002211462520A663FFF75FF9252091
:103E8000FFF74EF906B070BD001001404438024003
:103E900000000240406402406C03002070477047FD
:103EA0002DE9F843044690F84100984616460D4621
:103EB000202802D00220BDE8F88385B17EB1002021
:103EC0006064212084F84100FFF7CAF8A684814687
:103ED000E684A0682027B0F5805F02D003E00120CF
:103EE000E9E7206910B12E4600250EE000260CE01F
:103EF0008021204600F070FCA8B9C6B116F8010B6D
:103F000021684860E08C401EE084E08C4B464FF016
:103F10000002CDF800800028EAD14FF04001204691
:103F200000F05AFC40B184F841700320C3E735F833
:103F3000020BC0F30800E3E784F841700020BAE701
:103F40007047FEE77FB500241B480094019402945B
:103F500018490394016001254FF480310561C0E9DF
:103F60000114047680F820400903C1620226C6616C
:103F70004910C460816280F830404561FEF70BFB58
:103F800008B1FEF766F90A20CDE9000569460294FA
:103F90000948FEF7A5F908B1FEF75BF90520CDE960
:103FA000000669460448FEF79BF9002801D0FEF799
:103FB00050F97FBD00200140780100201CB500248D
:103FC0000C4900940A48019408600846FEF781FCF9
:103FD00008B1FEF73EF90420CDE90004002269464D
:103FE0000448FEF74CFC002801D0FEF732F91CBD56
:103FF0000074004020020020154808B5016841F413
:1040000080010160016801F480010091016841F4C0
:10401000001101600068002200F4001000901146B9
:104020001020FFF78BF81020FFF77AF800221146D6
:104030003820FFF783F83820FFF772F80022114686
:104040003A20FFF77BF8BDE808403A20FFF768B850
:10405000303802402DE9F04186B014216846FCF763
:1040600099FA2E480024016841F0100101600168AE
:1040700001F010010591016841F00401016001683F
:1040800001F004010591016841F0800101600168BF
:1040900001F080010591016841F0010101600168B2
:1040A00001F001010591016841F002010160006821
:1040B0001B4F00F002004FF470760590002231464D
:1040C0003846FEF7C8FFDFF85C8000220321404637
:1040D000FEF7C1FF7C2001258DE83100694640468E
:1040E000FEF79AFE68038DE8310069460E48FEF738
:1040F00093FE0096CDE90154694638460394FEF7D5
:104100008BFE03200090CDE901546946404603949C
:10411000FEF782FE06B0BDE8F081000030380240B4
:1041200000040240001002400008024010B586B0B2
:1041300000241748009401940294039404941349B2
:10414000059401605921C0E901146321C0E90314F9
:104150008461FFF75BFB08B1FEF77BF84FF48050FA
:10416000009069460A48FFF7DBFB08B1FEF771F8DB
:104170002020CDE9040404A90548FFF7FFFA002830
:1041800001D0FEF766F806B010BD00000004004044
:10419000940200201CB500240E4800940C490194A0
:1041A00001605921C0E9011463218461C160FFF7F6
:1041B0002DFB08B1FEF74DF82020CDE9000469463B
:1041C0000448FFF7DBFA002801D0FEF742F81CBDD7
:1041D00000100040DC0200200C4810B50A490160C4
:1041E0004FF4E1314160002181600C22C160C0E9DF
:1041F00004128161C161FFF7C7FD002803D0BDE84B
:104200001040FEF726B810BD001001402403002026
:10421000FEE7FEE770477047FEF728BF70B592B023
:1042200030216846FCF7B6F914210CA8FCF7B2F966
:104230001F480025016841F080510160006800F0CE
:10424000805011901B48016841F4404101600068B2
:10425000022400F4404011900120009000040190DD
:104260008001CDE906400F260896D820CDE9090443
:1042700004200B906846FFF7B7F808B172B6FEE766
:10428000FEF78EFF08B172B6FEE74FF4A050CDE9FD
:104290000E504FF48050CDE90C64109005210CA80D
:1042A000FEF7B6FF002801D072B6FEE712B070BD6F
:1042B00040380240007000400248016841F470013B
:1042C0000160704788ED00E0F0B50268274B284D8B
:1042D000284E294F294C4FF0804C984209D0604518
:1042E00007D0A84205D0B04203D0B84201D0A042C6
:1042F00004D122F0700E4A6842EA0E0298421BD0A6
:10430000604519D0A84217D0B04215D0B84213D09A
:10431000A04211D01A4DA8420ED01A4DA8420BD07F
:10432000194DA84208D0194DA84205D0184DA842F1
:1043300002D0184DA84203D122F44075CA682A431E
:104340004D6922F080022A438D68C5620D6885623E
:10435000984201D0A04201D109690163016841F08E
:1043600004010160012141610260F0BD00000140D3
:104370000004004000080040000C00400004014020
:104380000040014000440140004801400018004046
:10439000001C00400020004010B5846842EA03225F
:1043A00024F47F440A432243826010BD826822F0D5
:1043B00070020A4342F007018160704710B5036A3A
:1043C000046A24F001040462846924F0F00444EADD
:1043D000021423F00A020A438461026210BD10B580
:1043E000036A046A24F010040462846923F0A003C1
:1043F00024F4704444EA023243EA0111826101620A
:1044000010BD10B5806B0021C185FFF77BFB10BD8F
:1044100070B5846B2068406994F84110C0F3C010F7
:104420000025212904D118B1E584204600F08EF83A
:104430002068406994F84210C0F38010222904D10A
:1044400018B1E585204600F05AF8606C40F0100085
:1044500060642046FFF756FB70BD10B50146806BC7
:10446000096809684FF00002C9052ED4C2850168A9
:104470000C3151E8003F23F4807341E80034002CF4
:10448000F5D10168143151E8003F23F0010341E800
:104490000034002CF5D10168143151E8003F23F0BD
:1044A000400341E80034002CF5D1202180F842106F
:1044B000016B012909D101680C3151E8003F23F05B
:1044C000100341E80034002CF5D14263016B01294F
:1044D00002D0FFF7E3FC10BD818DFFF7B5FA10BDE8
:1044E00010B5806B01214163016B012902D0FFF7F8
:1044F000D6FC10BD818D4908FFF7A6FA10BD0168F2
:104500000C3151E8002F22F4907241E80023002B77
:10451000F5D10168143151E8002F22F0010241E881
:104520000023002BF5D1016B012909D101680C3161
:1045300051E8002F22F0100241E80023002BF5D1B2
:10454000202180F8421000210163704701680C317E
:1045500051E8002F22F0C00241E80023002BF5D1E2
:10456000202180F84110704708B590F842102229A8
:1045700001D0022008BD82684FF480539A4201D1D5
:10458000016921B1816A9A421BD04AB10AE00268EE
:10459000816A5268C2F308020A80816A891C08E0B5
:1045A000026972B10268526802F07F020A70816A81
:1045B000491C8162C18D491E0904090CC18503D0C3
:1045C0001BE002685268F1E70168CA6822F0200225
:1045D000CA600168CA6822F48072CA6001684A69C8
:1045E00022F001024A61202180F84210002141633B
:1045F000026B012A03D0FFF751FC002008BD0163C4
:1046000001680C3151E8002F22F0100241E800232C
:10461000002BF5D101680A68D20602D50A684968FC
:104620000091818DFFF710FAE7E7000070B50446AE
:1046300000680169E26821F4405111430161216978
:10464000A068E26908436169114308432168CA68A8
:1046500049F20C639A430243CA6020684169A26927
:1046600021F440711143416131492068884202D0F0
:104670003049884202D1FEF775FE01E0FEF762FE86
:10468000E2690023192164253226B2F5004F6268E1
:1046900028D0A0FB0101930F9200FBF76DFE0146AD
:1046A000B0FBF5F06FF01802504301EB800006EB11
:1046B0000010B0FBF5F000F0F002B1FBF5F002EBFA
:1046C0000012B1FBF5F06FF01803584301EB8000C6
:1046D00006EB0010B0FBF5F000F00F00216810446D
:1046E000886070BDA0FB010192185B41FBF744FE9E
:1046F0000146B0FBF5F00201B1FBF5F06FF01803D5
:10470000584301EB800006EBC000B0FBF5F000F071
:10471000F80002EB4002B1FBF5F0584301EB8000DA
:1047200006EBC000B0FBF5F000F00700D6E7000094
:10473000001001400014014038B5816204468285B2
:10474000002013466064222284F84220E56B1F4A51
:10475000EA63E56B1E4A2A64E56B1E4AEA64E26B73
:1047600010650A462168E06B091DFEF71DFB30B19C
:1047700010206064202084F84200012038BD2068A9
:10478000016840680090206948B120680C3050E80A
:10479000001F41F4807140E80012002AF5D1206822
:1047A000143050E8001F41F0010140E80012002AD7
:1047B000F5D12068143050E8001F41F0400140E876
:1047C0000012002AF5D1002038BD00005B4400082B
:1047D000E1440008114400082DE9F84398461746C3
:1047E0000D460446089E24E0701C22D0FEF738FCDB
:1047F000A0EB0800B0421AD8CEB12068C1684907C2
:1048000017D5802D15D0402D13D00168C943090755
:104810000FD401680025406800902046FFF76FFE26
:104820000820606484F840500120BDE8F88303202C
:10483000FBE72068006835EA000004D00020B84299
:10484000D2D00020F1E70120F9E700000148FFF78E
:104850005BB9000024030020FEE703B40198410087
:10486000009850EAC12018BF04204A0D18BF40F03C
:10487000010040F2FF72B2EB515F08BF40F002004E
:10488000012808BF052002B070474100080218BF88
:1048900004200A0E18BF40F001004FF07F4232EAB8
:1048A000010108BF40F00200012808BF0520704741
:1048B0000907090E002804DB00F1E02080F800144D
:1048C000704700F00F0000F1E02080F8141D7047E1
:1048D00000B510EE101A2DED028B81B0524A6846D9
:1048E000B2EB410F2ED94FF0E640B0EB410F94BF31
:1048F00000204FF0FF3000900098B0EE408A002872
:104900006ADB10F0010F4BD068EE080A9FED471AE2
:104910009FED470A00EE810A9FED461A10F0020F44
:1049200000EE801AB7EE000A00EE810A02BF01B065
:10493000BDEC028B00BD00BF01B0B1EE400ABDEC82
:10494000028B00BD3C4B21F00042934241D911F053
:10495000004FDFED3A0A20EE201ADFED390A19BFC9
:1049600031EE601A71EE200A31EE201A71EE600A03
:10497000BDEEE01A11EE100A9FED321A00F00300AE
:1049800000EEC10A9FED301A009000EEC10A9FEDC3
:104990002F1A00EEC10A9FED2E1A00EEC10AABE7F6
:1049A00028EE080A9FED2B1ADFED2B0A10F0020FFC
:1049B00040EE410A9FED291A00EE201A61EE000A2E
:1049C000B0EE480A08EE200AB6D101B0BDEC028B69
:1049D00000BD00F059F88FE718EE100A4000B0F162
:1049E0007F4F0DD218EE100AFFF74FFF042808BFC3
:1049F00000F042F8B0EE480A01B0BDEC028B00BDF9
:104A000009D10120FBF7FBFD01B0BDEC028B5DF885
:104A100004EB00F029B801B0B0EE480ABDEC028BFF
:104A20005DF804EB00F01CB8B61F927EB93AB2BA3A
:104A3000CA9F2A3DDDFFFFBE490E494683F9223F4A
:104A40000000004B0000C93F00A0FD390020A23348
:104A50001A61342C336D4C39DA82083CA0AA2ABE84
:104A600030EE000A70470000DFED020A80EEA00A77
:104A700070470000000000009FED020A20EE000ACF
:104A800070470000000000102DE9F0014FF07F4258
:104A9000B2EB410F9FBF4FF0FF310160BDE8F00165
:104AA00070474FF0004242EA0123C1F3C752783AFF
:104AB000551112F01F0C434CCCF120067C44C1F37D
:104AC000C752A2F178024FEA621204EB820254F854
:104AD000254008BFD2E9015612D0556804FA0CF4FB
:104AE00025FA06F73C43976805FA0CF527FA06F80D
:104AF000D26807FA0CFCF24045EA08054CEA0206C7
:104B0000A4FB034CA5FB0352A6FB03631D449D427B
:104B100034BF012600261319334416B1934202D93B
:104B200003E0934201D2012200E00022624402F13C
:104B3000200C9206DC0C42EA443200EE102A5B03A1
:104B4000DFED210AF8EEC01A00EE103A4FEA9C1C85
:104B500011F0004FB8EE400AC0F800C020EE201A55
:104B600000EE105ADFED190AB8EE400A20EE200AD6
:104B700071EE810A70EE800A10EE902A02F5006252
:104B80006FF30B0200EE902A70EEE11A31EEC11ABB
:104B9000DFED101A30EE411A9FED0D0A20EE800A6B
:104BA00001EE210A9FED0C1A00EE810A04BFBDE858
:104BB000F0017047CCF180510160BDE8F001B1EE29
:104BC000400A7047FC0C0000000000360000802CFA
:104BD00022AAFD29DB0FC92F0000C92F30380A286F
:104BE00001D2012070470020704700002DE9F041FC
:104BF000194D287800282CD018490020A1F5FA6416
:104C00004FF4FA7601EBC002526844F82020401CB1
:104C100080B2B042F6D3002711A154F827201348E0
:104C200000F06AFB7F1CBFB2B742F5D34FF4FA61C4
:104C30000F48FBF7AFFC002028704FF47A72074949
:104C40000C48FDF737FD0C480068016821F00801A9
:104C50000160BDE8F081000074010020A80E002072
:104C60003C6164633E3A25640A000000240300208E
:104C7000D806002078010020C001002010B54FF4B4
:104C80007A7207490748FDF715FD07480068016873
:104C900021F008010160BDE810400448FEF704BEA1
:104CA000A80E002078010020C001002094020020FE
:104CB00070B5002401255B1E05EB531308E000BF0F
:104CC00051F8245052F82460354040F82450641CB8
:104CD000A342F5D870BD10B501F01F040123A34015
:104CE0004C0950F824100AB1194300E0994340F8E8
:104CF000241010BD521E52099200121DFBF7D9BBA1
:104D00004A0901F01F0150F82200C84000F00100DC
:104D10007047000008B59FED0A0A40F2FF72642157
:104D20000848FDF799FA0848FEF7BEFD0020014645
:104D300000906423034A0548FDF730FE08BD0000DB
:104D400000000000481E0020DC020020200200209D
:104D500001F01F0301229A40490950F82130134302
:104D600040F821307047000030B50E4A034600205D
:104D7000918807E01468C0EBC00534F825409C42D8
:104D800008D0401C8142F5DC106906E082889A4216
:104D900001D1084630BD0068491C0028F6D1401EEC
:104DA00030BD0000101F00202DE9F0470D4CDDE95B
:104DB00008659A4617468846814685B17EB1282106
:104DC0002046FBF7E7FBC4F80090A4F80480A76036
:104DD000A4F80CA0C4E906560120BDE8F087002025
:104DE000FBE70000101F00202DE9FC418046002059
:104DF00000906E46144C054601900CE02068C5EB0F
:104E0000C50100EB8100E16988470246294630462A
:104E1000FFF761FF6D1CA088A842EFDC87B225690F
:104E200009E0E169281D8847024639463046FFF708
:104E300052FF2D687F1C002DF3D14146684600F0DB
:104E400073F8BDE8FC810000101F00202DE9F0413F
:104E5000884606461F4619461046069DFFF750FF36
:104E6000C4B239464046FFF74BFFC1B22B4622463B
:104E70003046BDE8F04100F059BA00002DE9FC478A
:104E8000824600201C46894601231546DDF828800D
:104E90003F21009002464FF055364FF0333703EB79
:104EA0005113019017E000BF54F8201091B106EAA9
:104EB000510CA1EB0C0101F0333C07EA9101614474
:104EC00001EB111101F00F3101EB014101EB012167
:104ED00002EB1162401C8342E6D8002A1ED0402318
:104EE000224629466846FFF7E3FE402221466846EF
:104EF000FFF700FFA0B1002540232246494668463F
:104F0000FFF7D6FE402221466846FFF7F3FE48B180
:104F1000002143462A46504600F008FABDE8FC87C7
:104F20000125E9E70121F4E72DE9F8432A4C0E4673
:104F30008146002504F120080BE000962068C5EBAF
:104F4000C50100EB81002B464A464146FFF77EFF34
:104F50006D1CA088A842F0DC87B2256908E03B46BA
:104F60004A464146281D0096FFF770FF2D687F1CBA
:104F7000002DF4D108270DE00096A06805EBC501CF
:104F800000EB810307EB810108444A464146FFF7E5
:104F900075FF6D1CA089A842EEDC646908E0231D42
:104FA0004A46414604F10C000096FFF767FF24686B
:104FB000002CF4D1002001243F234246494604EB53
:104FC000531304E051F8204042F82040401C834233
:104FD000F8D8BDE8F8830000101F002010B5FEF7D8
:104FE0003FF8BDE81040FFF7FFBE0000014610B5D6
:104FF0000E4807290BD2DFE801F00A04060C0E1058
:105000001200042100E00821FEF720F858B100202A
:1050100010BD1021F8E72021F6E74021F4E74FF416
:1050200000510348F0E7012010BD000000100240CD
:105030000008024010B5012805D0022807D0032837
:105040000AD0002010BD022002E0032009E0012068
:10505000FFF7CCFF48B9F8E70120FFF7C7FF20B9F9
:105060000220FFF7C3FF0028ECD0012010BD000094
:1050700010B500F00DF8054908704A7820EA0203DF
:1050800042408B708243CA70487010BD57000020A8
:1050900070B5144D002404212846FDF7D7FF00B950
:1050A000012408212846FDF7D1FF00B90224102170
:1050B0002846FDF7CBFF00B9032420212846FDF741
:1050C000C5FF00B9042440212846FDF7BFFF00B901
:1050D00005244FF400510448FDF7B8FF00B9062439
:1050E000204670BD001002400008024070B5002448
:1050F00021460123425C1AB103FA01F22243D4B2E1
:10510000491C0629F6DB164D2878844226D0154E18
:1051100004F0010240213046FDF79DFFC4F3400238
:1051200080213046FDF797FFC4F38002B115304669
:10513000FDF791FFC4F3C00271153046FDF78BFFF8
:10514000094EC4F3001201213046FDF784FFC4F379
:10515000401202213046FDF77EFF2C7070BD00002A
:105160005000002000040240001002400148FFF7F8
:10517000BDBF000051000020FDF780FFFFF74EF893
:10518000FEF768FFFEF738FFFFF726F8FEF7DAFEB6
:10519000FEF7CCFFFEF712FFFEF7FCFF00F03EFA31
:1051A00000F00AF800F068F9FFF7B4FDFFF766FDBC
:1051B00000F03AFAFCE700007CB51D491D481E4A84
:1051C000CDE9000103230621A2F1A800FFF7ECFDC1
:1051D0000120FFF7C9FD06460220FFF7C5FD044682
:1051E0000320FFF7C1FD0546002E1FDB002C1DDB51
:1051F00031461148FFF7ACFD21460F48FFF7A8FDE7
:105200000D48314624300646FFF7A2FD29463046B8
:10521000FFF79EFD0848214648300446FFF798FDF9
:1052200029462046BDE87C40FFF792BD7CBD0000CA
:10523000855200083D5200080801002010B5018881
:105240000E4807290BD2DFE801F00A04060C0E1005
:105250001200042100E00821FDF7F8FE58B10020FB
:1052600010BD1021F8E72021F6E74021F4E74FF4C4
:1052700000510348F0E7012010BD0000001002407B
:105280000008024010B50488A4F58070032801D2FC
:10529000012000E00020124A49B101291AD0022958
:1052A00004D0032902D1002800D1107810BD08B124
:1052B000012012E010780028F8D12046FFF7BAFE4E
:1052C0000028F3D1012CF1D1BDE8104005A1094817
:1052D00000F012B80028E9D00020107010BD0000C6
:1052E0005C00002048656C6C6F2C576F726C640D0D
:1052F0000A000000240300200FB44FF4007130B501
:10530000ADF5017D054686AB6846859AFBF7ACF89E
:10531000044682B2FF2369462846FEF7C1FD0DF51B
:10532000017D204630BC5DF814FB00002DE9F04102
:10533000044680694F4E1D4600282FD000278A4220
:1053400006D0A560F2B3A17841F00201A17000E09F
:10535000C2B3A178C9072FD1A1680288691A914206
:105360001CDBE18A61B121690089691A814207DB8E
:10537000E078400703D5B269022120469047E782D2
:10538000E560A782A07840F00100A070E078C00737
:1053900003D0B2690021204690476560BDE8F081E6
:1053A0000844E060A08A401CA082E078000703D592
:1053B000B269032120469047A069408928B1E1687D
:1053C0006A1A00E00DE08242EADAE08A0028E5D0BD
:1053D000A1696068C988281A88423DDCDEE7E78257
:1053E000DCE7A178CA0730D0A2684088AA1A8242B6
:1053F000D4DB21F00100A070E078800703D5B2690A
:10540000012120469047A16960688A88281A904245
:1054100010DBCB8898420DDCE08A401C0004000CB5
:10542000E0822561B9D089898842B6D1E078400709
:1054300006D403E0E18A09B19042F7DBE782ACE7EA
:10544000B269022120469047F8E7E28A62B12169F9
:105450000089691A8142A1DBE0784007BFD5B269B3
:10546000022120469047BAE7880797D521F002002D
:10547000A07093E7101F00200A4910B54FF4007286
:1054800001F5007000F066F8064980228039064870
:10549000FEF7B4FA05480068016821F008010160D0
:1054A00010BD00004C040020240300206C030020E9
:1054B00010B5044600F0A2F8002808D0012807D053
:1054C000E0884108A0884008814204D9081A10BD2C
:1054D000B4F9080010BDB4F90820401A101A10BD24
:1054E00070B515460E46040018D0FFF7E1FF0028FE
:1054F0002FD0A84200D285B2B4F90810A088A1EB41
:1055000050022168AA4201EB500109DD2A463046CB
:10551000FAF7FBFFA08805EB500116E0FAF7BEFF93
:105520003046FAF7F2FFB4F90800A188A0EB510069
:105530002A1A30442168FAF7E8FFA088C14361F3D2
:1055400000002189A1EB5001691A61F34F00A0808E
:10555000284670BD10B508B1002A01DCFAF79EFF9D
:105560000379002403F0010364F30003838083794B
:1055700003F0010364F30003C380016022F0030120
:10558000018110BD70B515460E4604001AD0FFF714
:105590008FFFB4F90810081A0004000C2DD0A8429F
:1055A00000D20546E088A1EB50022168AA4201EB37
:1055B000500009DD2A463146FAF7A7FFE08805EBDF
:1055C000500116E0FAF76AFF3146FAF79EFFB4F988
:1055D0000800E188A0EB51002A1A81192068FAF727
:1055E00094FFE088C14361F300002189A1EB5001E1
:1055F000691A61F34F00E080284670BD8188C08839
:105600004A08B2EB500F07D1C907B1EBC07F01D1F7
:105610000020704701207047022070470149052093
:1056200008707047100000202DE9F0410C4D002457
:105630002E1F10E0FDF714FD04EB440205EB820180
:10564000D1E901373B44834203D8886055F82200F2
:105650008047641CE4B230788442EBD3BDE8F0812B
:105660001400002010B51048FFF722FF040019D0E5
:10567000802C00D980240C49A2B20C310A48FFF7D3
:105680002FFF002C0ED0802C03D2074900200C31B4
:1056900008552346044ABDE810400C3203A10F48C8
:1056A000FFF72ABE10BD00004C060020526563655E
:1056B0006976656420646174612066726F6D207222
:1056C000696E676275666665723A20257320284C9C
:1056D000656E6774683A202564290A002403002057
:1056E00010B500290AD00878002807D0054878446A
:1056F000FCF72CF8002801D0002010BD02487844A7
:1057000010BD0000CA010000C201000010B5002950
:105710000AD00878002807D005487844FCF716F826
:10572000002801D0002010BD0248784410BD0000C0
:10573000BA010000B20100004FF04070E1EE100A23
:105740007047FBF7D2BBFBF707BD0006101600063B
:10575000101600000000000000000102030406070C
:1057600008090000000001020304140014003200C4
:10577000F4012C01F401050000000000000000000D
:105780003031323334353637383941424344454677
:105790004030580030313233343536373839616271
:1057A0006364656640307800040000080000000073
:1057B00000000002000100001000000000000000D6
:1057C0006E83F9A22915444ED15727FCC0DD34F56C
:1057D000999562DB4190433CAB6351FE30313233EB
:1057E0003435363738396162636465667870003005
:1057F00031323334353637383941424344454658DF
:105800005000000002400000000000A00000000066
:1058100005400000000000C8000000000C4000002F
:105820000000409C00000000194000000020BCBEA9
:105830000000000034400000BFC91B8E00000004BF
:10584000B5400000504BCFD06607E2CF010000000A
:105850006C4100003E8251AADFEEA7340100000037
:10586000D9420000DCB5A0E23A301F97FFFFFFFFEE
:10587000B4450000FD25A0C8E9A3C14FFFFFFFFF0D
:10588000FF3F00000000008000000000FF3F00001C
:105890000000008000000000E45900080000002023
:1058A00078010000E8010008345A0008780100205F
:1058B00020240000440200081C00000043000000F7
:1058C000F8FFFFFF0C0000000E0000000F000000BA
:1058D0002E0000001001000043000000F8FFFFFF51
:1058E00000404040404040404040414141414140F3
:1058F00040404040404040404040404040404040A8
:105900004005020202020202020202020202020236
:10591000022020202020202020202002020202023B
:105920000202909090909090101010101010101093
:10593000101010101010101010101010020202029F
:1059400002028888888888880808080808080808E3
:1059500008080808080808080808080802020202DF
:1059600040000000000000000000000000000000F7
:105970000000000000000000000000000000000027
:105980000000000000000000000000000000000017
:105990000000000000000000000000000000000007
:1059A00000000000000000000000000000000000F7
:1059B00000000000000000000000000000000000E7
:1059C00000000000000000000000000000000000D7
:1059D00000000000000000000000000000000000C7
:1059E00000000000320182105324F4136D512A0884
:1059F000184113715073080A13DD4F7308058B6546
:105A0000560C8BED4B0CF2FF194802140F136A571A
:105A10000B1908021C0A19031C0A19041C1988090D
:105A2000171C0A19061C99B1091F240A2101240A0E
:045A30001D0224002F
:04000005080001AD41
:00000001FF
