:020000040800F2
:10000000E80700208D020008C70E0008E90D00086F
:10001000C50E0008DB0400087D0F0008000000008A
:10002000000000000000000000000000CB0E0008EF
:10003000DD04000800000000C90E0008CD0E000815
:10004000A7020008A7020008A7020008A7020008EC
:10005000A7020008A7020008A7020008A7020008DC
:10006000A7020008A7020008A7020008A7020008CC
:10007000A7020008A7020008A7020008A7020008BC
:10008000A7020008A7020008A7020008A7020008AC
:10009000A7020008A7020008A7020008A70200089C
:1000A000A7020008A7020008A7020008A70200088C
:1000B000A7020008A7020008A7020008A70200087C
:1000C000A7020008A7020008A7020008A70200086C
:1000D000A7020008A7020008A7020008A70200085C
:1000E000A7020008A7020008A7020008A70200084C
:1000F000A7020008A7020008A7020008A70200083C
:10010000A7020008A7020008A7020008A70200082B
:10011000A7020008A7020008A7020008A70200081B
:10012000A7020008A7020008A7020008A70200080B
:10013000A7020008A7020008A7020008A7020008FB
:10014000A7020008A7020008A7020008A7020008EB
:10015000A7020008A7020008A7020008A7020008DB
:10016000A7020008A7020008A7020008A7020008CB
:10017000A7020008A7020008A7020008000000006C
:10018000A7020008A7020008A7020008A7020008AB
:10019000A7020008A7020008A7020008A70200089B
:1001A000A7020008A7020008A702000800F002F852
:1001B00000F05CF80AA090E8000C82448344AAF1A5
:1001C0000107DA4501D100F051F8AFF2090EBAE8A3
:1001D0000F0013F0010F18BFFB1A43F0010318477B
:1001E0009C150000BC1500000A444FF0000C10F8EC
:1001F000013B13F0070408BF10F8014B1D1108BFA5
:1002000010F8015B641E05D010F8016B641E01F844
:10021000016BF9D113F0080F1EBF10F8014BAD1C94
:100220000C1B09D16D1E58BF01F801CBFAD505E0B2
:1002300014F8016B01F8016B6D1EF9D59142D6D30C
:10024000704700000023002400250026103A28BF34
:1002500078C1FBD8520728BF30C148BF0B60704738
:100260001FB501F077FA1FBD10B510BD00F0FBF807
:100270001146FFF7F5FF01F0D7F800F019F903B4C4
:10028000FFF7F2FF03BC00F021F9000009488047A6
:1002900009480047FEE7FEE7FEE7FEE7FEE7FEE768
:1002A000FEE7FEE7FEE7FEE704480549054A064B80
:1002B000704700006D0F0008AD010008E801002044
:1002C000E8070020E8030020E803002053EA020CBE
:1002D00000F069802DE9F04B4FF00006002B1FBFA6
:1002E000B3FA83F503FA05F424FA05F65E4012BF6B
:1002F0001643B2FA82F502FA05F4C5F120051EBFD5
:1003000022FA05FC44EA0C04203556EA044C4FEA74
:10031000144418BF641C4FF000084FF000099042CD
:1003200071EB030C39D3002919BFB1FA81F701FA37
:1003300007F6B0FA80F700FA07F6C7F120071EBFEC
:1003400020FA07FC46EA0C062037B6FBF4FCA7EBC4
:100350000507103F07F01F0BCBF120060CFA0BFB33
:100360002CFA06F644BFB3460026202FA4BF5E46F3
:100370004FF0000B5BEA060C08BF4FF0010B19EBC6
:100380000B09ABFB027C48EB0608C01B06FB02CC4A
:100390000BFB03CC71EB0C01C1E70B460246414657
:1003A0004846BDE8F08B13B54FF000004FF0000158
:1003B000AFF30080BDE81C40704740EA010310B570
:1003C0009B070FD1042A0DD310C808C9121F9C42E5
:1003D000F8D020BA19BA884201D9012010BD4FF0D7
:1003E000FF3010BD1AB1D30703D0521C07E0002024
:1003F00010BD10F8013B11F8014B1B1B07D110F881
:10040000013B11F8014B1B1B01D1921EF1D1184683
:1004100010BD4FF0000200B51346944696462039B1
:1004200022BFA0E80C50A0E80C50B1F12001BFF4AD
:10043000F7AF090728BFA0E80C5048BF0CC05DF813
:1004400004EB890028BF40F8042B08BF704748BF61
:1004500020F8022B11F0804F18BF00F8012B7047D5
:10046000704770477047754600F02CF8AE4605009F
:100470006946534620F00700854618B020B5FFF7BF
:1004800013FFBDE820404FF000064FF000074FF08B
:1004900000084FF0000B21F00701AC46ACE8C009A2
:1004A000ACE8C009ACE8C009ACE8C0098D467047AB
:1004B00010B50446AFF300802046BDE81040FFF7BA
:1004C000DEBE00000048704784010020014918206A
:1004D000ABBEFEE7260002007047FEE77047000053
:1004E0002DE9F84FDFF8F8A10022012403254FF091
:1004F0000F090AF1040BAAF1040E00BF0B6804FAFD
:1005000002F63340B34270D10F7907F00307012F91
:1005100001D0022F16D187684FEA420805FA08FC7D
:1005200027EA0C07D1F80CC00CFA08FC4CEA070CBF
:10053000C0F808C04768B7430E79C6F30016964066
:100540003E4346600E79F643B6070AD0C7684FEAC5
:10055000420C05FA0CF6B7438E6806FA0CF63E43D9
:10056000C6600E7906F00306022E10D1D60800EB05
:100570008608D8F8206057074FEAD76C09FA0CF7BD
:10058000BE430F6907FA0CF73743C8F820700668B6
:100590004FEA420C05FA0CF7BE430F7907F0030748
:1005A00007FA0CF7374307604E6816F4403F1CD03B
:1005B0004C4E376847F480473760366822F00307AF
:1005C00006F480460096484E07EB060CDCF80868F7
:1005D00097073F0F09FA07F826EA0806DFF80C81AB
:1005E000404503D14FF0000841E072E0DFF80081A0
:1005F000404502D14FF0010839E0DFF8F88040456E
:1006000002D14FF0020832E0DFF8EC80404502D121
:100610004FF003082BE0DFF8E480404502D14FF0B3
:10062000040824E0DFF8D880404502D14FF00508E7
:100630001DE0DFF8D080404502D14FF0060816E0FB
:10064000DFF8C480404502D14FF007080FE0DFF823
:10065000BC80404502D14FF0080808E0DFF8B080C8
:10066000404502D14FF0090801E04FF00A0808FAAE
:1006700007F848EA0608CCF80888DAF80060574618
:10068000D1F804C09E435FEACC2C00D51E433E60E7
:10069000DBF800605F46D1F804C09E435FEA8C2C13
:1006A00000D51E433E60DEF800607746D1F804C0F6
:1006B0009E435FEA8C3C00D51E433E60084F083FD6
:1006C0003E68D1F804C09E435FEACC3C00D51E438F
:1006D0003E60521C102AFFF411AFBDE8F88F0000F5
:1006E000083C014044380240003001400000024014
:1006F0000004024000080240000C024000100240CA
:100700000014024000180240001C02400020024079
:10071000002402400069084000D0012070470AB15F
:10072000816170470904FBE7014880687047000059
:1007300000000020024881680278114481607047FF
:10074000000000200B4810B5016841F40071016001
:10075000016841F480610160016841F480710160C9
:10076000032000F061F80F2000F006F800F024F8F4
:10077000002010BD003C024070B50D4D04464FF402
:100780007A712878B1FBF0F00A490968B1FBF0F002
:1007900000F016FB48B9102C07D200222146501E4B
:1007A00000F022F800206C6070BD012070BD0000D8
:1007B000000000200C0000200A4808B5016841F440
:1007C00080410160006800F4804000900548001FEF
:1007D000016841F080510160006800F08050009095
:1007E00008BD000044380240F0B40E4B1B680C46B4
:1007F000C3F30223C3F10705042D00D90425191DF5
:10080000072901D2002300E0DB1E012606FA05F1CC
:10081000491E214099409E40761E16403143F0BC4F
:1008200000F0ADBB0CED00E0064900F007020868DF
:100830004FF6FF03184040EA0220034A10430860C5
:10084000704700000CED00E00000FA052DE9F843C8
:100850001748016841F0805101600068154F00F0B1
:100860008050012600903E64FFF75EFF05464FF47E
:100870007A78114C05E000BFFFF756FF401B40455A
:100880000DD86068C003F7D57E64FFF74DFF0546BD
:10089000464607E0FFF748FF401BB04202D903205D
:1008A000BDE8F88360688003F4D50020F8E7000015
:1008B0004038024000000E42007000402DE9F04731
:1008C0000E46050065D0DFF81481D8F80000F7B2B5
:1008D00000F00F00B04207D288F80070D8F800008E
:1008E00000F00F00B04254D128683D4C810712D56A
:1008F000400703D5206840F4E050206028780007C6
:1009000003D5206840F4604020602068A96820F08A
:10091000F000084320602878C0072DD0304968686F
:100920000839012812D0022813D0032811D00968F1
:10093000890700292DDA216821F003010143216094
:10094000FFF7F2FE814641F2883A0EE0096889031A
:10095000EFE709688901ECE7FFF7E6FEA0EB090184
:10096000514502D90320BDE8F0872068696800F08E
:100970000C00B0EB810FEFD1D8F80010404601F029
:100980000F01B14207D90770006800F00F00B042B4
:1009900001D00120E7E72878400705D52068E968FD
:1009A00020F4E050084320602878000706D520682E
:1009B000296920F4604040EAC100206000F018F886
:1009C0002168084AC1F30311515CC8400649086018
:1009D00006480068FFF7D0FE0020C4E7003C024054
:1009E000083802405E1700080C00002004000020B8
:1009F000154810B5006810F00C02144813D01449C3
:100A0000042A0FD0082A0ED10F4C241F2268236815
:100A100002F03F025B0207D52068C0F38810A0FBFC
:100A2000010106E0084610BD2168C1F38811A1FB51
:100A300000010023FFF74AFC2168C1F30141491C72
:100A40004900B0FBF1F010BD083802400024F4006A
:100A500040787D012DE9F84F04006ED02078DFF852
:100A60004C93C007A9F104054AD009F104000168BC
:100A7000C1F38101012908D00068C0F38100022878
:100A80000AD1D9F80000400206D52868800337D57E
:100A900060680028E1D033E06068B0F5803F10D096
:100AA000B0F5A02F286810D020F480302860286886
:100AB00020F4802028606068A8B1FFF735FE064664
:100AC0000DE0286840F48030F4E740F4802028608E
:100AD000F7E700BFFFF728FE801B642873D828685B
:100AE0008003F7D50CE0FFF71FFE064605E000BFC8
:100AF000FFF71AFE801B6428F0D828688003F7D41B
:100B00002078DFF8AC8280074FF0000A3ED5A74876
:100B1000001D016811F00C0F08D00068C0F38100BF
:100B200002280BD1D9F80000400207D428688007BA
:100B300016D5E068012800D112E033E1E068B8B1D1
:100B40000120C8F80000FFF7EFFD064605E000BFF2
:100B5000FFF7EAFD801B0228C0D828688007F7D578
:100B60002868216920F0F80040EAC10028600DE003
:100B7000C8F800A0FFF7D8FD064604E0FFF7D4FD53
:100B8000801B02281FD828688007F7D42078000728
:100B900022D5864F87486169703771B101210160A4
:100BA000FFF7C2FD064604E0FFF7BEFD801B0228EA
:100BB00009D838688007F7D50EE0C0F800A0FFF725
:100BC000B3FD064605E082E0FFF7AEFD801B02287C
:100BD0007DD838688007F7D42078400768D5DFF8DB
:100BE000CCB100270BF13C0BDBF80000C0000BD4AC
:100BF000DBF8001041F08051CBF80010DBF800006A
:100C0000012700F0805000906B4E3068C00510D472
:100C1000306840F480703060FFF786FD009005E09A
:100C2000FFF782FD0099401A022850D83068C005AD
:100C3000F6D55E4EA0686C3601280FD005283068C6
:100C400010D020F001003060306820F004003060E7
:100C5000A068B8B1FFF768FD00900FE0306840F081
:100C60000100F4E740F004003060F7E7FFF75CFDB7
:100C70000099411A41F28830814266D83068800775
:100C8000F4D50EE0FFF750FD009007E0FFF74CFDB4
:100C90000099411A41F28830814256D83068800765
:100CA000F4D42FB1DBF8001021F08051CBF8001004
:100CB000A069C8B33D49091D0968C1F38101022932
:100CC0004AD00228504607D0C8F8600000E03CE057
:100CD000FFF72AFD04463BE04746C8F86000FFF7EF
:100CE00023FD064605E000BFFFF71EFD801B02281E
:100CF0002BD828688001F7D4D4E907010843A16AFA
:100D00002E4A490802EB0141626A41EA8211084316
:100D100094F82C1040EA0161C9F8001001203866EF
:100D2000FFF702FD044606E03EE000BFFFF7FCFCD3
:100D3000001B022809D828688001F7D534E000BFDD
:100D4000FFF7F2FC001B022802D90320BDE8F88F50
:100D500028688001F4D427E00128F7D0D9F80000F2
:100D6000E26900F4800191421CD1226A00F03F0147
:100D7000914217D147F6C071626A0140B1EB821F00
:100D800010D1A26A4FF0FF3300F4403103EB52025E
:100D9000B1EB024F06D194F82C1000F07060B0EB6C
:100DA000016F01D00120D1E70020CFE704380240D5
:100DB00000004742800E4742007000400000FFFFE5
:100DC00010B5401EB0F1807F01D3012010BD4FF05F
:100DD000E02460610F21601700F0D1F80020A061CD
:100DE00007202061002010BDFEE700002DE9F04142
:100DF00086B014216846FFF70CFB2E4800240168DA
:100E000041F010010160016801F0100105910168D5
:100E100041F004010160016801F0040105910168DD
:100E200041F080010160016801F0800105910168D5
:100E300041F001010160016801F0010105910168C3
:100E400041F00201016000681B4F00F002004FF406
:100E500070760590002231463846FFF760FCDFF8D7
:100E60005C80002203214046FFF759FC7C200125CD
:100E70008DE8310069464046FFF732FB68038DE894
:100E8000310069460E48FFF72BFB0096CDE901546F
:100E9000694638460394FFF723FB03200090CDE911
:100EA0000154694640460394FFF71AFB06B0BDE8BB
:100EB000F08100003038024000040240001002407F
:100EC00000080240FEE7FEE770477047FFF732BCBC
:100ED00070B592B030216846FFF79BFA14210CA838
:100EE000FFF797FA1F480025016841F08051016023
:100EF000006800F0805011901B48016841F44041A7
:100F000001600068022400F440401190012000902C
:100F1000000401908001CDE906400F260896D820F4
:100F2000CDE9090404200B906846FFF793FD08B152
:100F300072B6FEE7FFF78AFC08B172B6FEE74FF41F
:100F4000A050CDE90E504FF48050CDE90C641090C4
:100F500005210CA8FFF7B2FC002801D072B6FEE70D
:100F600012B070BD40380240007000400248016875
:100F700041F470010160704788ED00E0FEE7090769
:100F8000090E002804DB00F1E02080F8001470470F
:100F900000F00F0000F1E02080F8141D7047000001
:100FA00070B5002401255B1E05EB531308E000BF5C
:100FB00051F8245052F82460354040F82450641C05
:100FC000A342F5D870BD10B501F01F040123A34062
:100FD0004C0950F824100AB1194300E0994340F835
:100FE000241010BD521E52099200121DFFF7E5B9E0
:100FF0004A0901F01F0150F82200C84000F001002A
:10100000704701F01F0301229A40490950F821302E
:10101000134340F82130704730B50E4A0346002094
:10102000918807E01468C0EBC00534F825409C4265
:1010300008D0401C8142F5DC106906E082889A42A3
:1010400001D1084630BD0068491C0028F6D1401E79
:1010500030BD00005C0100202DE9F0470D4CDDE9BA
:1010600008659A4617468846814685B17EB1282193
:101070002046FFF7CEF9C4F80090A4F80480A760DA
:10108000A4F80CA0C4E906560120BDE8F0870020B2
:10109000FBE700005C0100202DE9FC4180460020B8
:1010A00000906E46144C054601900CE02068C5EB9C
:1010B000C50100EB8100E1698847024629463046B8
:1010C000FFF781FF6D1CA088A842EFDC87B225697D
:1010D00009E0E169281D8847024639463046FFF796
:1010E00072FF2D687F1C002DF3D14146684600F049
:1010F00073F8BDE8FC8100005C0100202DE9F0419F
:10110000884606461F4619461046069DFFF770FFA3
:10111000C4B239464046FFF76BFFC1B22B462246A8
:101120003046BDE8F04100F04BBA00002DE9FC4725
:10113000824600201C46894601231546DDF828809A
:101140003F21009002464FF055364FF0333703EB06
:101150005113019017E000BF54F8201091B106EA36
:10116000510CA1EB0C0101F0333C07EA9101614401
:1011700001EB111101F00F3101EB014101EB0121F4
:1011800002EB1162401C8342E6D8002A1ED04023A5
:10119000224629466846FFF703FF4022214668465B
:1011A000FFF720FFA0B100254023224649466846AC
:1011B000FFF7F6FE402221466846FFF713FF48B1CD
:1011C000002143462A46504600F0FAF9BDE8FC8764
:1011D0000125E9E70121F4E72DE9F8432A4C0E4601
:1011E0008146002504F120080BE000962068C5EB3D
:1011F000C50100EB81002B464A464146FFF77EFFC2
:101200006D1CA088A842F0DC87B2256908E03B4647
:101210004A464146281D0096FFF770FF2D687F1C47
:10122000002DF4D108270DE00096A06805EBC5015C
:1012300000EB810307EB810108444A464146FFF772
:1012400075FF6D1CA089A842EEDC646908E0231DCF
:101250004A46414604F10C000096FFF767FF2468F8
:10126000002CF4D1002001243F234246494604EBE0
:10127000531304E051F8204042F82040401C8342C0
:10128000F8D8BDE8F88300005C01002010B5FFF736
:101290004BFABDE81040FFF7FFBE0000014610B555
:1012A0000E4807290BD2DFE801F00A04060C0E10E5
:1012B0001200042100E00821FFF72CFA58B10020A9
:1012C00010BD1021F8E72021F6E74021F4E74FF4A4
:1012D00000510348F0E7012010BD0000001002405B
:1012E0000008024010B5012805D0022807D00328C5
:1012F0000AD0002010BD022002E0032009E00120F6
:10130000FFF7CCFF48B9F8E70120FFF7C7FF20B986
:101310000220FFF7C3FF0028ECD0012010BD000021
:1013200010B500F00DF8054908704A7820EA02036C
:1013300042408B708243CA70487010BD3F0000204D
:1013400070B5144D002404212846FFF7E3F900B9D5
:10135000012408212846FFF7DDF900B902241021F5
:101360002846FFF7D7F900B9032420212846FFF7C4
:10137000D1F900B9042440212846FFF7CBF900B980
:1013800005244FF400510448FFF7C4F900B90624BE
:10139000204670BD001002400008024070B50024D5
:1013A00021460123425C1AB103FA01F22243D4B26E
:1013B000491C0629F6DB164D2878844226D0154EA6
:1013C00004F0010240213046FFF7A9F9C4F34002BE
:1013D00080213046FFF7A3F9C4F38002B1153046EF
:1013E000FFF79DF9C4F3C00271153046FFF797F976
:1013F000094EC4F3001201213046FFF790F9C4F3FF
:10140000401202213046FFF78AF92C7070BD0000AF
:101410003800002000040240001002400148FFF79D
:10142000BDBF000039000020FFF78CF9FFF750FD29
:10143000FFF7DCFC00F06AF900F004F800F06CF94A
:10144000FCE700007CB51D491D481E4ACDE900019E
:1014500003230621A2F1A800FFF7FEFD0120FFF7FC
:10146000DBFD06460220FFF7D7FD04460320FFF709
:10147000D3FD0546002E1FDB002C1DDB3146114835
:10148000FFF7BFFD21460F48FFF7BBFD0D48314672
:1014900024300646FFF7B5FD29463046FFF7B1FD7B
:1014A0000848214648300446FFF7ABFD2946204650
:1014B000BDE87C40FFF7A5BD7CBD0000111500080C
:1014C000C9140008F000002010B501880E48072953
:1014D0000BD2DFE801F00A04060C0E101200042102
:1014E00000E00821FFF716F958B1002010BD1021C7
:1014F000F8E72021F6E74021F4E74FF400510348D4
:10150000F0E7012010BD000000100240000802407A
:1015100070B50588A5F58070032801D2012200E08E
:101520000022254849B1012941D0022904D00329CC
:1015300002D1002A00D1007870BD204CD2B1012127
:10154000017040F20110B5F5807F06D0854209D1C7
:10155000607880F00100607070BD207880F001003C
:10156000207070BDB5F5817FFBD1A07880F00100BF
:10157000A07070BD00780028FBD12846FFF7B2FEAE
:101580000028F6D1012D08D0022D0BD0032DF0D16B
:10159000607980F00100607170BDE07880F001003A
:1015A000E07070BD207980F00100207170BD002ACC
:1015B000FCD00021017070BD4400002039000020E3
:1015C0002DE9F041044680694F4E1D4600282FD07A
:1015D00000278A4206D0A560F2B3A17841F002014B
:1015E000A17000E0C2B3A178C9072FD1A168028819
:1015F000691A91421CDBE18A61B121690089691A8B
:10160000814207DBE078400703D5B269022120461A
:101610009047E782E560A782A07840F00100A070C3
:10162000E078C00703D0B26900212046904765608A
:10163000BDE8F0810844E060A08A401CA082E07808
:10164000000703D5B269032120469047A06940896D
:1016500028B1E1686A1A00E00DE08242EADAE08A25
:101660000028E5D0A1696068C988281A88423DDC55
:10167000DEE7E782DCE7A178CA0730D0A2684088BD
:10168000AA1A8242D4DB21F00100A070E078800722
:1016900003D5B269012120469047A16960688A8814
:1016A000281A904210DBCB8898420DDCE08A401C5F
:1016B0000004000CE0822561B9D089898842B6D146
:1016C000E078400706D403E0E18A09B19042F7DBF5
:1016D000E782ACE7B269022120469047F8E7E28A48
:1016E00062B121690089691A8142A1DBE078400773
:1016F000BFD5B269022120469047BAE7880797D53F
:1017000021F00200A07093E75C0100200149032052
:1017100008707047100000202DE9F0410C4D0024A6
:101720002E1F10E0FFF700F804EB440205EB8201E6
:10173000D1E901373B44834203D8886055F8220041
:101740008047641CE4B230788442EBD3BDE8F0817A
:10175000140000204FF04070E1EE100A70470000C6
:10176000000000000000010203040607080914003D
:1017700014003200F4012C01F40105009C1700084C
:10178000000000205C010000E8010008E4170008E8
:101790005C0100208C060000440200083201821027
:1017A0005324F4131D142A08184113211373080A33
:1017B000138D12730805F2FF193002140F136E1700
:1017C0000B1908021C0A19031C0A19041C198809A0
:1017D000171C0A19061C99B1091F240A2101240AA1
:0417E00019022400C6
:04000005080001AD41
:00000001FF
