:020000040800F2
:100000007036002039030008134D0008D74500085A
:10001000114D00087D2300088156000800000000F3
:10002000000000000000000000000000374D000844
:100030002125000800000000354D0008094E000889
:100040005303000853030008530300085303000838
:100050005303000853030008530300085303000828
:100060005303000853030008530300085303000818
:100070005303000853030008530300085303000808
:100080005924000853030008052100085303000801
:1000900053030008530300085303000853030008E8
:1000A00053030008530300085303000853030008D8
:1000B00053030008530300085303000853030008C8
:1000C00053030008530300085303000853030008B8
:1000D0005303000875560008530300085303000833
:1000E0005303000853030008530300085303000898
:1000F0005303000853030008530300085303000888
:100100005303000853030008530300085303000877
:100110005303000853030008530300085303000867
:1001200065240008530300087124000853030008E5
:100130005303000853030008530300085303000847
:100140005303000853030008530300085303000837
:100150005303000853030008530300085303000827
:100160005303000853030008530300085303000817
:100170005303000853030008530300080000000065
:1001800053030008530300085303000853030008F7
:1001900053030008530300085303000853030008E7
:1001A00053030008530300085303000800F002F84B
:1001B00000F0B2F80AA090E8000C82448344AAF14F
:1001C0000107DA4501D100F0A7F8AFF2090EBAE84D
:1001D0000F0013F0010F18BFFB1A43F0010318477B
:1001E00058C7000078C700000A444FF0000C10F810
:1001F000013B13F0070408BF10F8014B1D1108BFA5
:1002000010F8015B641E05D010F8016B641E01F844
:10021000016BF9D113F0080F1EBF10F8014BAD1C94
:100220000C1B09D16D1E58BF01F801CBFAD505E0B2
:1002300014F8016B01F8016B6D1EF9D59142D6D30C
:10024000704700000023002400250026103A28BF34
:1002500078C1FBD8520728BF30C148BF0B60704738
:100260006E2900F08E84702900F0E78766290BF074
:100270002D8265290BF02A8267290BF027826129DC
:100280000BF0268203681B0A28BF41F08001692910
:1002900000F04281642900F03F81752900F03C8123
:1002A0006F2900F07487782900F0B387E92900F0FE
:1002B0000F87E42900F00C87F52900F00987EF2962
:1002C00000F07187F82900F0B2870368DB0928BFC6
:1002D00041F08001632901F0D981732901F0DE81A9
:1002E000E32901F0E981F32901F0EE810020704754
:1002F0001FB50BF0E6F900F0B3FF04000020002169
:100300000BF052F9401C6060002000210BF036F920
:10031000E0601FBD10B510BD01F08EFA1146FFF769
:10032000E7FF0AF08BF901F0B5FA03B4FFF7F2FF2B
:1003300003BC00F081FB00000948804709480047E2
:10034000FEE7FEE7FEE7FEE7FEE7FEE7FEE7FEE785
:10035000FEE7FEE704480549054A064B70470000E2
:10036000A94E0008AD010008703000207036002052
:10037000703200207032002053EA020C00F06980D5
:100380002DE9F04B4FF00006002B1FBFB3FA83F5A9
:1003900003FA05F424FA05F65E4012BF1643B2FADA
:1003A00082F502FA05F4C5F120051EBF22FA05FC0C
:1003B00044EA0C04203556EA044C4FEA144418BFB2
:1003C000641C4FF000084FF00009904271EB030CE1
:1003D00039D3002919BFB1FA81F701FA07F6B0FA4B
:1003E00080F700FA07F6C7F120071EBF20FA07FCC6
:1003F00046EA0C062037B6FBF4FCA7EB0507103FD6
:1004000007F01F0BCBF120060CFA0BFB2CFA06F6BB
:1004100044BFB3460026202FA4BF5E464FF0000B1A
:100420005BEA060C08BF4FF0010B19EB0B09ABFBA5
:10043000027C48EB0608C01B06FB02CC0BFB03CC7E
:1004400071EB0C01C1E70B46024641464846BDE848
:10045000F08B13B54FF000004FF00001AFF30080B8
:10046000BDE81C40704700007CB51D4616460C00D8
:10047000009001D02044401E074B7B442A46694629
:100480000190304600F0A5FD05461CB100206946EC
:1004900000F0B2FD28467CBD850B00000FB41CB5F2
:1004A000084B06AA7B4469460090059800F091FD30
:1004B00004460020694600F09FFD20461CBC5DF804
:1004C00014FB0000510B000070B5044685690068FC
:1004D000C10601D5302600E02026C00707D070BD38
:1004E000D4E9012130469047206A401C20626D1EED
:1004F000F6D570BD70B5044685690078C00707D190
:1005000070BDD4E9012120209047206A401C206260
:100510006D1EF6D570BD00002DE9F04106460024A1
:1005200010687529314616A510D000F096FA0028FB
:1005300002DA404213A507E031688A0701D512A507
:1005400002E0490704D511A5012401E000F08EFA6C
:1005500000210A2206F1240709E0B0FBF2FCB0FBFF
:10056000F2F302FB1C00303078541846491C002876
:10057000F3D123462A463046BDE8F04100F0A8BA40
:10058000000000002D0000002B00000020000000F3
:100590002DE9F05F894604464FF0000ADFF874B198
:1005A000FB44C0F820A02046E1688847002874D0AA
:1005B000252806D0D4E901219047206A401C2062FA
:1005C000F1E700265F462046E16888472028054677
:1005D00007DB312D05D2781910F8200C08B106433D
:1005E000F1E7B00701D526F00406C4F81CA00027E7
:1005F000C4F818A02A2D09D0284609F0BFFD38B349
:1006000004EB8708303DC8F8185019E059F8041B6E
:10061000204604EB87029161E1688847012F054677
:1006200018D1E069002820DA26F020061DE0D8F86D
:10063000180000EB800005EB40003038C8F81800C7
:100640002046E1688847054609F098FD0028EED16C
:10065000012F0AD02E2D08D12046E16888477F1C43
:100660000546022F46F02006C4DBA069002803DA05
:10067000404246F00106A061F00701D026F01006C6
:100680006C2D0BD0682D09D04C2D39D06A2D35D06A
:10069000742D35D07A2D33D016E038E0E1682F463E
:1006A00020468847B842054609D16C2F26D04FF422
:1006B0008060E168064320468847054604E06C2FC9
:1006C0001AD04FF4807006430DB3A5F141001928EC
:1006D00002D8203546F400664A4629462046266060
:1006E0004E46FFF7BDFD80B101280BD0F61D26F068
:1006F000070000F1080956E74020E4E78020D8E72A
:100700000020D6E706F104094DE7284652E7206AA3
:10071000BDE8F09FA8BC000010B5002000F098FDD7
:10072000FFF7F8FDBDE81040012000F085B9401E3C
:10073000CAB210F8011F8A4202D00029F9D1002064
:10074000704740EA010310B59B070FD1042A0DD36F
:1007500010C808C9121F9C42F8D020BA19BA8842A2
:1007600001D9012010BD4FF0FF3010BD1AB1D307E1
:1007700003D0521C07E0002010BD10F8013B11F817
:10078000014B1B1B07D110F8013B11F8014B1B1B40
:1007900001D1921EF1D1184610BD40EA0103024674
:1007A00030B59B0710D14FF0013400E008C208C9F2
:1007B0001D1B9D4315EAC41FF8D013F0FF0102F87A
:1007C000011B0DD01B0AF8E711F8013B002B02F8C2
:1007D000013B05D011F8013B002B02F8013BF3D19E
:1007E00030BD10B5431C02E010F8011B71B1810748
:1007F000FAD14FF0013202C88C1A8C4314EAC211AC
:10080000F9D0C01A0A0603D0C01E10BDC01A10BD10
:100810000A0401D0801E10BD0902FCD0401E10BD8C
:10082000032A40F2308010F0030C00F0158011F81C
:10083000013BBCF1020F624498BF11F801CB00F8F4
:10084000013B38BF11F8013BA2F1040298BF00F848
:1008500001CB38BF00F8013B11F0030300F0258005
:10086000083AC0F0088051F8043B083A51F804CB2C
:10087000A0E80810F5E7121D5CBF51F8043B40F8F2
:10088000043BAFF30080D20724BF11F8013B11F8FD
:1008900001CB48BF11F8012B24BF00F8013B00F841
:1008A00001CB48BF00F8012B704710B5203AC0F0CB
:1008B0000B80B1E81850203AA0E81850B1E8185061
:1008C000A0E81850BFF4F5AF5FEA027C24BFB1E89E
:1008D0001850A0E8185044BF18C918C0BDE810400F
:1008E0005FEA827C24BF51F8043B40F8043B08BF18
:1008F0007047D20728BF31F8023B48BF11F8012BDF
:1009000028BF20F8023B48BF00F8012B704702F0D7
:10091000FF0343EA032242EA024200F002B84FF02A
:1009200000020429C0F0128010F0030C00F01B80BC
:10093000CCF1040CBCF1020F18BF00F8012BA8BFCA
:1009400020F8022BA1EB0C0100F00DB85FEAC17C8E
:1009500024BF00F8012B00F8012B48BF00F8012B41
:1009600070474FF0000200B5134694469646203972
:1009700022BFA0E80C50A0E80C50B1F12001BFF458
:10098000F7AF090728BFA0E80C5048BF0CC05DF8BE
:1009900004EB890028BF40F8042B08BF704748BF0C
:1009A00020F8022B11F0804F18BF00F8012B704780
:1009B0004FF0013C50F8042B51F8043B9A4221D1EE
:1009C000A2EB0C03934313EACC1317D150F8042B7A
:1009D00051F8043B9A4215D1A2EB0C03934313EA5E
:1009E000CC130BD150F8042B51F8043B9A4209D197
:1009F000A2EB0C03934313EACC13DBD04FF00000BF
:100A0000704700BFD01A01BAB1FA81F101F01801A4
:100A100022FA01F0CB40C1F12001DBB2C0B2C01A12
:100A20002CFA01F3D11A914311EAC311E6D17047B0
:100A3000704770477047000001491820ABBEFEE7C1
:100A40002600020010B500F00FFC006810BD10B5C4
:100A5000044600F009FC046010BD09684A0501D590
:100A600040B27047C905FCD500B2704709684A0515
:100A700001D5C0B27047C905FCD580B2704770B5CA
:100A80000C460546012A05D02878800600D5EA697B
:100A9000002302E0012305E05B1C934202D2E05CEC
:100AA0000028F9D1A869E618C01AA861286A184474
:100AB00028622846FFF708FD04E0D5E9012114F873
:100AC000010B9047B442F8D32846FFF713FD70BDE1
:100AD0002DE9F0470D4699469246044600F1240858
:100AE0000168880604D5E06921F01001216000E06A
:100AF0000120A84201DD471B00E00027A1697A1907
:100B000002EB0900081AA0612078C00602D4204632
:100B1000FFF7DAFC002608E0D4E901211AF8060004
:100B20009047206A401C761C20624E45F4DB2078FA
:100B3000C0060AD52046FFF7C7FC06E0D4E901212C
:100B400030209047206A401C2062381EA7F1010720
:100B5000F4DC07E0D4E9012118F805009047206A89
:100B6000401C2062281EA5F10105F3DC2046FFF79A
:100B7000C1FC2078000602D50220BDE8F0870120E4
:100B8000FBE711680268006A530501D508700AE0A6
:100B9000D30501D5088006E0130603D5C217C1E9C5
:100BA000000200E008600120704770472DE9FF4F08
:100BB0000C461E464FF0FF378BB0D2E90001DDF83E
:100BC00060800A908A46C1F30A5505B93D46002166
:100BD00008464FF00000BAF1000F00F4400005DABB
:100BE00000EB80004FF4400101EA50004FEA9059B9
:100BF000B9F1010F00DDB9460A9850EA4A000ED05B
:100C000044F61050A5F2FF3545432F14B8F1000FFC
:100C10001ED07542291E1EDDC9F100021CE0B8F18C
:100C2000010F4FF0000001D0302103E0F24305E056
:100C30002154401CB042FBDB3046002200212154ED
:100C40000B99C1F80880C1E900200FB0BDE8F08F12
:100C5000BD1B6D1CDEE74A4600DA694206A800F0BB
:100C600037FD06AB93E8070003AB83E80700504667
:100C70000A9900F038FE8DE80700A0F500501F38F3
:100C800000900398002D0ADD42F21F014A460844F5
:100C9000002303A90390684601F0A1F809E0A0F53C
:100CA00000504A461F38002303A90390684601F00C
:100CB000ABF88DE807000004000C03D04FF0FF30C4
:100CC000410800E01046B8F1000F03D00022009266
:100CD00015461EE0751E05D400F0CAFA3032625582
:100CE0006D1EF9D5B3460122084302D000227F1CB5
:100CF00004E02078302801D100227F1E002A0997C5
:100D000084D01DE0112D07DA00F0B2FA30326255BE
:100D10006D1C50EA0102F5D1084302D00098C8B119
:100D20000EE00021681E05E0235C625C63542254DF
:100D3000401E491C8142F7DBAB46A81B401E0990B0
:100D4000002004F80B000B98099AC0F80880C0E94D
:100D5000002B7AE711264FF0000857E72DE9F04FF6
:100D600088460446D21D22F0070191B0D1E9000166
:100D7000CDE90A0109F040F802460B98C00F01D0F6
:100D80002D2007E02068810701D52B2002E02021DB
:100D900001EAC000032A099001D0072A05DB0346B7
:100DA0004146204600F028FC0BE12078800601D562
:100DB000E06900E00620B8F1650F814606D0B8F181
:100DC000660F18D0B8F1670F70D131E00020B9F18B
:100DD000110F009001DB112301E009F101030AAAC0
:100DE00001A90CA8FFF7E2FEDDE90C70002609F16D
:100DF0000105834647E001204B4600904FF0004735
:100E00000AAA01A90CA8FFF7D1FEDDE90DB00C99E3
:100E10005D46002610B909F101000D18B9EB050077
:100E200003D4C0F1FF3609F10105A5EB09002BE061
:100E3000B9F1010F01DA4FF001090020B9F1110FEA
:100E40000090484601DD112300E003460AAA01A9EB
:100E50000CA8FFF7ABFEDDE90C704D46002683467B
:100E6000207800070AD4AB4500DA5D4601A8012DC1
:100E700004DD411911F8011C302907D04F4502DA71
:100E800017F1040F04DA012082460FE06D1EEEE731
:100E9000002F02DCED1B3E4403E0781CA84200DD7D
:100EA0007D1CB81B00F1010A4FF0004720780007B5
:100EB00003D4AA4501DB4FF0FF3A0021B7F1004F00
:100EC0000DF143088DF8431024D002202B23002F6E
:100ED00001DA7F422D230A21021EA0F1010000DC6D
:100EE0005FB197FBF1FC97FBF1F201FB1C7C17460D
:100EF0000CF1300C08F801CDEEE7A8F10100037009
:100F00002188090501D5452100E06521A0F10108EE
:100F100000F8011C09980FA9A1EB0807FF1D00B1FB
:100F20000120411901EBEA70A1693844081A401EFA
:100F3000A0612078C00602D42046FFF7C5FA0998C0
:100F400028B1D4E901219047206A401C2062207812
:100F5000C00622D52046FFF7B7FA1EE0002E04DBBC
:100F6000B34502DD01A8805D00E03020D4E9012115
:100F70009047206A401C2062761CAAF101005FEABB
:100F8000000A0AD100F06CF9C0680168405CD4E93D
:100F900001219047206A401C2062281EA5F101050E
:100FA000DCDC07E0D4E9012118F8010B9047206A46
:100FB000401C2062381EA7F10107F3DC2046FFF732
:100FC00099FA032011B041E601694A1C02610878D0
:100FD000704700B58FB0CDE9013100210591054979
:100FE0007944CDE9031011466846FFF7D1FA0FB0F6
:100FF00000BD0000E5FFFFFF0A6802F8010B0A6070
:101000007047D1E900239A4202D2531C0B60107042
:10101000704700002DE9FF5F15468A460446DFF859
:10102000AC80F8440027D8E900103E46CDE9001016
:1010300010E03AF816106A4602A800F0BBFB411C0B
:1010400007D02178890603D5E269391891420DD875
:101050000744761C2078800602D5E069B84205DD99
:10106000AE42E6DB3AF816000028E2D1A069C01BC8
:10107000A0612046FFF728FAD8E90010CDE900105A
:10108000002017E03AF818106A4602A800F092FB18
:10109000B0F1FF3F81460BD000250DF1080B05E0B4
:1010A000D4E901211BF8050090476D1C4D45F7D38D
:1010B00008F10100B0428046E4DB206A3844206237
:1010C0002046FFF717FABDE8FF9F00003AB2000084
:1010D0002DE9F0418046D21D22F007020025D2E919
:1010E0000002F52915A614D0011E72F1000106DADE
:1010F0000023D0EB030063EB020211A608E0D8F84E
:1011000000108B0701D50FA602E0490701D50EA6F6
:1011100001251146002408F1240704E000F0A8F896
:1011200030323A55641C50EA0102F7D12B46324660
:1011300021464046BDE8F041FFF7CABC0000000070
:101140002D0000002B0000002000000030B4002122
:1011500000F1240408E002F00705D208303542EA25
:101160004372DB086554491C52EA0305F3D1046855
:10117000002310A2250707D5A40600D421B1C46915
:1011800001230DA2641EC46130BCFFF7A1BC10B5E1
:10119000044621461068FFF769FC02462046BDE878
:1011A00010400023D2E7D21D22F00701D1E900232D
:1011B000CCE700000000000030000000F0B40D4655
:1011C0000188090502D5214C7C4402E01F4C7C4477
:1011D0000E34002100F1240608E002F00F07120986
:1011E000E75D42EA03721B097754491C52EA030780
:1011F000F3D102780023120704D5702D06D009B16F
:10120000022311342246F0BCFFF762BC01231034E4
:10121000F8E770B504460D4621461068FFF726FC36
:10122000024629462046BDE870400023C6E7D21D8D
:1012300022F00703D3E90023C0E70368126843F0F4
:10124000200303600823C3610023B7E79CB00000BC
:1012500010B500F0D5FABDE8104000F0CBBA7047E9
:10126000004870472C300020004870470C300020A8
:1012700030B5B0F10A024FEA900E71F100034EEA68
:10128000817EB0EB0E0061EB91014FEA101E4EEA39
:10129000017E10EB0E0041EB11114FEA102E4EEAC9
:1012A000016E10EB0E0041EB11214FEA104E4EEA99
:1012B000014E10EB0E0041EB1141401841F10001CD
:1012C0004FEAD00040EA41704FEAD10110EB8005AF
:1012D0004FEA810444EA907444EB01046D1944EB35
:1012E0000404521BA3414FF0000348BF0A3200D54B
:1012F00030BD401C41F1000130BD00002DE9F04F30
:1013000004460D46D21D22F0070089B0D0E90097AF
:101310004846394608F070FD0246F80F01D02D23EB
:1013200007E02068810701D52B2302E0202101EA94
:10133000C0038DF820300BB1012000E00020032A0B
:10134000824601D0072A04DB2946204600F054F9E2
:101350003FE12078800601D40D2500E0E569C7F360
:101360000A560D2D49DA00214FEA175B08464FF067
:101370000000002F00F4400007DA00EB80004FF47B
:10138000400100EBD07001EA60008115012901DD08
:101390004FF0FF3100224FEA850CBCF1180F06D345
:1013A0001346ACF118004FF08052C24003E04FF4F6
:1013B000801323FA0CF30CF10C0CBCF1200F04D3B6
:1013C000ACF1200C09FA0CF001E007FA0CF000294E
:1013D0004FF0004801DD18B90FE00ED140450CD3A5
:1013E00019EB02095F4121B9404502D19F4329EA27
:1013F0000209BBEB175F00D0761C2088000502D5E0
:101400007B48784402E07A487844193808AA3023A7
:1014100002F80A30037C0AF10101002E0AF1020AE7
:1014200053546A4602DC4FF0300101E04FF03101C5
:101430004FF001088DF8001002D0A6F2FF3603E04D
:1014400059EA470100D06B4E002D02DC21780907D4
:1014500004D54FF002082E218DF80110C44600215A
:101460000BE0C7F303433F01C35C491C6D1E02F848
:101470000830052908F1010801DA002DF1DC00210E
:101480000CE000EB1973491C1B786D1E082902F84B
:1014900008304FEA091908F1010801DA002DF0DCE3
:1014A00021688B0602D516E0A8F10108E04505DDAC
:1014B00002EB080313F8013C302BF5D0B8F1000F14
:1014C00009DD02EB080313F8013C2E2B03D10907B9
:1014D00001D4A8F10108002D05DD3E2102F8081015
:1014E0006D1E08F10108407C002E02F8080008F18A
:1014F000010804DA2D20764202F8080002E02B20D1
:1015000002F808000A214FF47A70864208F10108B7
:101510000BDB96FBF0F3303302F8083096FBF0F368
:1015200008F1010800FB136601E0642E0CDB642067
:1015300096FBF0F3303302F8083096FBF0F308F135
:10154000010800FB136601E00A2E06DB96FBF1F0B2
:10155000303002F8080008F1010896FBF1F001FBB9
:101560001060303002F80800A16908F1010808EBAA
:10157000050202EB0A00081AA0612078C00602D416
:101580002046FEF7A1FF216A08AE01EB0A002062A7
:1015900004E0D4E9012116F8010B9047BAF1010AE1
:1015A000F7D22078C00602D52046FEF78DFF6E46A2
:1015B00009E016F8010B3E280FD0D4E9012190472D
:1015C000206A401C2062B8F10108F2D22046FEF7E2
:1015D00091FF09B00320BDE8F08F206A2844206203
:1015E00003E0D4E90121302090476D1EEBD3F8E7EA
:1015F000BDAE000002FCFFFF2DE9F0411F4604468E
:1016000003260168072A01F4006004DB08B116A56F
:1016100005E016A503E008B115A500E015A521F029
:1016200010002060A069C01EA0610FB1401EA06123
:101630002046FEF749FF4FB1D4E9012138469047D3
:10164000206A401C2062C01C206206E0206AFAE783
:10165000D4E9012115F8010B9047761EF8D22046F7
:10166000FEF748FFBDE8F0814E414E006E616E000E
:10167000494E4600696E660010B5436913B1AFF379
:10168000008001E0FFF7FBF9012010BD127800F1A6
:1016900024010A7000224A700122EDE711684FF020
:1016A000FF32E9E710B5436913B1AFF3008001E001
:1016B000FFF7B0FC012010BD128800F124018284E4
:1016C0000022C2840122EDE711684FF0FF32E9E702
:1016D0002DE9F047814616468AB0354878440DC852
:1016E0008DE80D0032487844801C03AC0DC884E8B6
:1016F0000D0041F69B300844372190FBF1F290FB3E
:10170000F1F5A5F1800501FB12041B3C02D56442F2
:10171000012000E00020DFF898A080460027FA446E
:10172000AAF1BE0A0EE0E0070AD03246684607EB8F
:10173000470101230AEB810100F066FB8DE80700F9
:1017400064107F1C002CEED1194F7F44AE3F19E08E
:10175000E80715D007EB04100DF1180A90E80E0009
:101760008AE80E00C068F04201D19819089032460C
:10177000012306A903A800F047FB03AB83E8070099
:101780006D10641C002DE3D14FF001033246694611
:10179000B8F1000F03A802D000F021FB01E000F037
:1017A00033FBC9E90001C9F808200AB0BDE8F08799
:1017B00074AC000070B516460C46054600F062F8A1
:1017C000036893F80101012806D0FF2C0FD8185D9B
:1017D00068B101202C7070BDD3F807013246214654
:1017E00003F2071303442846BDE8704018474FF042
:1017F000FF3070BD002801D0FFF71EB97047000010
:1018000010B5002102A000F04EF8012010BD00002C
:10181000534947414252543A2041626E6F726D61A2
:101820006C207465726D696E6174696F6E00000082
:10183000004870470C3000207546FFF7F9FFAE46B0
:1018400005006946534620F00700854618B020B5CC
:10185000FEF780FDBDE820404FF000064FF0000786
:101860004FF000084FF0000B21F00701AC46ACE848
:10187000C009ACE8C009ACE8C009ACE8C0098D46B5
:101880007047000010B5FFF7EBFC001D10BD00BF56
:10189000199D000010B50446AFF300802046BDE856
:1018A0001040FEF742BD70B505460C460A2000E028
:1018B0006D1C00F011F835B128780028F8D102E04D
:1018C000641C00F009F814B120780028F8D1BDE8B4
:1018D00070400A20AFF3008008B569468DF800001B
:1018E0000320ABBE08BD5FEA400C08BF91F0000FBB
:1018F0004FEA8C234FEAC12243EA51514FEA1C5070
:1019000018BF00F5F0404FEA300018BF41F0004129
:101910005FEA6C5C00F02980BCF1FF3F08BF40F03B
:1019200080407047130C06BF12044FF0100C4FF0AC
:10193000000C130E04BF12020CF1080C130F04BFAD
:1019400012010CF1040C930F04BF92000CF1020C75
:10195000D30F04BF52000CF1010C11464FF00002EE
:10196000A0F11F00A0EB0C00704711F0004F08BF62
:10197000704731F000413FF4D5AF0B0C06BF0904AE
:101980004FF0100C4FF0000C0B0E04BF09020CF1CD
:10199000080C0B0F04BF09010CF1040C8B0F04BFE2
:1019A00089000CF1020CCB0F04BF49000CF1010CB3
:1019B000CCF12003A0EB0C0022FA03F302FA0CF2A4
:1019C00041EA030100F10100704720F07F4C80EAFA
:1019D000030023F07F47ACEB070303F57C5300F0D3
:1019E000004003F1FF032DE980494FEA154B09B48C
:1019F0004FEA144325EA0B4E24EA03480FF204266B
:101A000006EB132749083E785FEA320203FB0667BC
:101A1000C7F5000707FB06F64FEA54374FEAD646EC
:101A200006F1020607FB066CCCF1005C4FEA1C478E
:101A30002CEA074C07FB06F40CFB06F504EB1546F5
:101A40004FEA961634BF00204FF000404FEAD137DE
:101A500006FB07FC4FEA1C4C0CFB0BF7D21B03FBED
:101A60000CF761EB07010CFB0EF7B0EB074072EBD4
:101A700017420CFB08F734BFA2EB0742B2EB074258
:101A800061EB17414FEA0C444FEA910706FB07FC54
:101A90004FEA1C4C0CFB0BF7B0EBC74072EB573214
:101AA00003FB0CF734BFA2EBC742B2EBC74261EBBA
:101AB00057310CFB0EF7B0EBC70072EB57720CFB03
:101AC00008F734BFA2EBC702B2EBC70261EB577154
:101AD000039F4FEA816141EA921104EBCC044FEA83
:101AE000D1374FEA826206FB07FC42EA90124FEAC6
:101AF00080604FEA1C4C0CFB0BF7D21B03FB0CF76E
:101B000061EB07010CFB0EF7B0EB074072EB1742DD
:101B10000CFB08F734BFA2EB0742B2EB074261EBC4
:101B200017414FEA8C554FEA910704EB9C2406FBC2
:101B300007FC4FEA1C4C0CFB0BF7B0EBC74072EBF9
:101B4000573203FB0CF734BFA2EBC742B2EBC742DC
:101B500061EB57310CFB0EF7B0EBC70072EB57721D
:101B60000CFB08F734BFA2EBC702B2EBC70261EB74
:101B7000577115EB4C254FEA816141EA92114FEA0A
:101B800082624FEAD13742EA901206FB07FC44F129
:101B900000044FEA80604FEA1C4C0CFB0BF7D21B91
:101BA00003FB0CF761EB07010CFB0EF7B0EB0740F2
:101BB00072EB17420CFB08F734BFA2EB0742B2EB03
:101BC000074261EB174115EB1C154FEA813141EAE1
:101BD00092414FEA823242EA90424FEA80304FEA25
:101BE0000C7644F1000448EA03434EEA0B484FF0F8
:101BF000000EB2EB080C71EB030724BF62463946B6
:101C00004EEB0E0E4FF0000B0018524149414BEBCA
:101C10000B0BB2EB080C71EB03077BF1000B24BF3D
:101C2000624639464EEB0E0E4FF0000B0018524143
:101C300049414BEB0B0BB2EB080C71EB03077BF14B
:101C4000000B24BF624639464EEB0E0E51EA0207E6
:101C500018BF46F0010616EB0E7655F1000254F15E
:101C6000000103D5BDE88901BDE80088BDE8890110
:101C7000BDE80048B619524141EB0101A3F101034F
:101C8000704780807F7E7D7C7B7A797877767675E9
:101C90007473727171706F6E6E6D6C6C6B6A6A6961
:101CA0006868676666656464636362616160605FFB
:101CB0005F5E5E5D5D5C5C5B5B5A5A595958585774
:101CC00057565655555554545353525252515150DC
:101CD00050504F4F4F4E4E4D4D4D4C4C4C4B4B4B2F
:101CE0004A4A4A4949494848484747474746464675
:101CF00045454544444444434343434242424241B0
:101D00004141002B9C4630D477002BD01CB54FEAC4
:101D1000370703B44FF010004FF01001BAF1000F75
:101D200006D0BCF1000FDCBF40F0080040F0080115
:101D30004FF000000FBCBDE810400BF1010BBBF1F0
:101D4000010F08BF5FEA170722BF12F1010211F16C
:101D500001014FF0004143F1000300F0004043EA6D
:101D600000007047F9D35708D0E746EA064613F15A
:101D7000400F4FEA16461FDD13F1200FDFBF164359
:101D80000A46002120335B42BED0C3F1200746EA59
:101D9000064602FA07F74FEA164646EA0706C3F177
:101DA000200722FA03F201FA07F721FA03F14FF0B4
:101DB000000342EA0702A7E746EA020646EA0646A9
:101DC0004FEA164646EA0106BCBF46EA0646360C0E
:101DD0004FF000034FF000024FF0000194E72DE9AF
:101DE000804C9A46934670B491E8380007C831EAAF
:101DF000400C48BF34EA430C03D5FFF7E6FDFFF77C
:101E000080FFF0BCBDE8008C2DE9804C9A469346DB
:101E100070B491E8380007C810F0804F08BF13F085
:101E2000804F03D100F005F8FFF76BFFF0BCBDE871
:101E3000008C20F07F4780EA030023F07F4C07EB03
:101E40000C03A3F57C5300F00040A3F1FE0392F0D5
:101E5000000F00F0B38095F0000F00F077802DE9BF
:101E600001494FEA11404FEA144621EA004800FBBD
:101E700006FC24EA064708FB06F607FB08F800FB09
:101E800007F718EB06484CEB164C4FEA124B18EBD1
:101E900007484FEA15464CEB174022EA0B4E0BFB66
:101EA00006FC25EA06470EFB06F607FB0EFE0BFBBB
:101EB00007F71EEB064E4CEB164C4FF000061EEBE0
:101EC000074E4CEB174B18EB0B0840F1000018EBDA
:101ED0000E0B58EB000840F100008F1A4FF0000184
:101EE0003CBFC943661B14BFB5EB040C00213CBFCB
:101EF000C943F61B4FEA17444EEA8E0E27EA044503
:101F00004FEA1C4704FB07622CEA074C05FB07F766
:101F10000CFB05F604FB0CFC16EB074642EB1742E4
:101F200016EB0C4642EB1C421BEB060658EB02027A
:101F3000414146EA9E0601D5BDE80189B6195241E4
:101F400041EB0101A3F10103BDE801894FEA14450A
:101F50004FEA114724EA054621EA074C05FB07F43E
:101F600006FB07F70CFB06F105FB0CFC11EB074128
:101F700044EB17444FEA124711EB0C4144EB1C446D
:101F800022EA074C05FB07F206FB07F70CFB06F6F7
:101F900005FB0CFC16EB074642EB174216EB0C4612
:101FA00042EB1C456A1854F1000148BF7047B6194E
:101FB000524141EB0101A3F10103704795F0000F7D
:101FC00037D04FEA11424FEA144721EA024624EA89
:101FD000074C02FB07F106FB07F70CFB06F402FBBC
:101FE0000CFC14EB074441EB17414FEA154714EB87
:101FF0000C4441EB1C4125EA074C02FB07F506FBAC
:1020000007F70CFB06F602FB0CFC16EB074645EB4C
:10201000174516EB0C4645EB1C42121951F1000115
:1020200048BF7047B619524141EB0101A3F10103CA
:1020300070474FEA14454FEA114724EA054621EA62
:10204000074C05FB07F106FB07F70CFB06F24FF008
:10205000000605FB0CFC12EB074241EB174112EBAB
:102060000C4251EB1C4148BF7047921841EB0101F3
:10207000A3F10103704710B50146806B026C12F0AA
:10208000500F05D0026CD20626D500F054FB10BDCF
:10209000016C41F40071016401688A6812F0405FCC
:1020A00017D1027EAAB9CA6A12F4700F02D08A68E8
:1020B00052050ED44A6822F020024A60016C21F4D5
:1020C00080710164016CC90403D4016C41F0010109
:1020D000016400F01FFB10BD806BC26CBDE81040B6
:1020E0000846104710B5806B40210164416C41F0F7
:1020F0000401416400F01FFB10BD10B5806B00F0BF
:1021000019FB10BD014800F017BB0000EC0C0020CB
:10211000464910B54A6822F440324A604A6843682A
:102120001A434A6001684A6822F480724A60016872
:102130004A68036942EA03224A6001684A6822F059
:1021400040724A6001684A6883681A434A600168BD
:102150008A6822F400628A6001688A68C3681A4348
:102160008A60816A6FF07062D14201688A6822F0E9
:1021700070628A6001688A680CD0836A1A438A6038
:1021800001688A6822F040528A6001688A68C36ADE
:102190001A4301E022F040528A6001688A6822F006
:1021A00002028A6001688A68037E42EA43028A600A
:1021B00090F82010002901684A680FD042F40062AC
:1021C0004A6001684A6822F460424A6001684A68CD
:1021D000174C436A04EB43331A4301E022F40062D4
:1021E0004A600168CA6A22F47002CA620168CA6A57
:1021F000838B104C04EB03531A43CA6201688A684C
:1022000022F400728A6001688A6890F8303042EAED
:1022100043228A6001688A6822F480628A600168C9
:102220008A68406942EA8020886010BD002301402E
:1022300000E0FFFF0000F0FF10B5044604290FD1B5
:1022400004F01CFF007B20B1012804D0022807D134
:1022500008E0064901E005492031204604F062FA11
:10226000002010BD01494031F7E70000AC2F0020ED
:102270002DE9F0410027062947D2DFE801F03F436E
:102280003F43033D224C657F052D2FD2606921A17C
:102290000068FEF78DFB244E002818D0606923A14A
:1022A0000068FEF785FBA8B1606925A10068FEF70C
:1022B0007FFB90B1606927A10068FEF779FB78B1D8
:1022C000606929A10068FEF773FB60B11DE086F824
:1022D00021501AE086F8225017E086F8235014E0C7
:1022E00086F8245011E086F825500EE00DD10849FB
:1022F000203104F017FA08E0012706E0044805F051
:1023000007F802E0024805F05DF83846BDE8F081C4
:10231000E02E00203E204D73672077696E206762B3
:1023200020626C7572000000780100203E20436F2F
:102330006E662077696E20676220626C757200009D
:102340003E2056616C2077696E20676220626C7552
:10235000720000003E205370696E2077696E20671E
:102360006220626C757200003E204C6973742077A5
:10237000696E20676220626C75720000FEE70000E3
:10238000042906D10448054990F8280000F001000E
:102390004874002070470000882E0020780100203B
:1023A00070B5042913D10B4C0BA160690068FEF7CE
:1023B000FFFA0C4D30B160690BA10068FEF7F8FA26
:1023C00018B104E0A08B688001E0A08B2880002079
:1023D00070BD0000582E00207E205469746C65206A
:1023E000416E6900780100207E20494E4420416EF4
:1023F0006900000010B5846B204600F0CFFB01207F
:10240000207110BD10B5846B204600F09DFB0120AB
:10241000207110BD10B5846B206940F0040020616C
:10242000204600F0BDFB0120207110BD10B5846B6B
:10243000206940F004002061204600F087FB012065
:10244000207110BD10B5806B00F0A9FB10BD10B558
:10245000806B00F07AFB10BD014800F0D3BC000097
:10246000A80D0020014800F0CDBC0000340D002074
:10247000014800F0C7BC0000340F00200168182399
:10248000CAB2103AB2FBF3F2054B6FF30901032A0B
:102490009B5CC36500D9091D816508467047000033
:1024A000D4B6000810B5014600208B698A6A4FF047
:1024B000C07453B1B3F5005F15D072B1012A0CD0CE
:1024C000022A0AD0032A09D104E01AB1012A06D04F
:1024D000022A03D1C96AC90100D5012010BDC96A09
:1024E000A142FAD010BD002AF7D0012AF2D0022A68
:1024F000F3D0032AF3D010BD30B50468256825F465
:1025000080252560046863608368402B036803D0DE
:1025100099600068C26030BD9A600068C16030BDDB
:10252000704772B6FEE700002DE9F0470D462DED2D
:10253000048BB0EE409A00EE105ADFED1A0A914675
:10254000B8EE400A06460024DFED178A80EE808A46
:102550004FF4805740F6FF781EE000BF00EE904A2F
:10256000B0EE490AF8EE600A00EE880A07F080FC37
:1025700000EE909AB8EE601AF0EE680A40EE010A9A
:10258000BCEEE00A10EE100A80B226F81400B84241
:1025900001D326F81480641CAC42DFD3BDEC048B5D
:1025A000BDE8F087D00FC94000F0FF44704700003D
:1025B00078B50024009490F83C20012A19D001221B
:1025C00080F83C200A6807230568092A13D9EE68B9
:1025D0000A3A02EB420293409E43EE600B788A680F
:1025E0000A3B03EB43039A400368DD682A43DA6041
:1025F00010E0022078BD2E6902EB420293409E4318
:102600002E610B788A6803EB43039A4003681D69C7
:102610002A431A614A681F23072A13D205686E6B82
:10262000521E02EB820293409E436E630A8893B26D
:102630000A79521E02EB820293400268556B2B43CB
:10264000536327E005680D2A12D22E6BD21F02EBCE
:10265000820293409E432E630B790A88DB1F92B25D
:1026600003EB83039A4003681D6B2A431A6311E04E
:10267000EE6A0D3A02EB820293409E43EE620B79C2
:102680000A880D3B92B203EB83039A400368DD6A2C
:102690002A43DA621B4B0568194A9D420AD10D682C
:1026A000122D07D1556825F400055560556845F48D
:1026B0008005556005689D421DD1134D0B68AB42E6
:1026C00001D0112B17D1536823F480035360536852
:1026D00043F4000353600968A9420CD10B490C4A2A
:1026E0000968B1FBF2F101EB8101490000E0491EEC
:1026F00000910029FBD180F83C40002078BD00000B
:102700000023014000200140120000100C000020B6
:1027100040420F0010B5054A0168914204D100F013
:10272000DDF903490120087010BD000000200140C0
:10273000700100207047704770B504460068066855
:10274000456816F0020F05F020012AD049B3216C2C
:10275000C90603D4216C41F400712164816811F031
:10276000405F17D1217EA9B9C16A11F4700F02D060
:10277000816849050ED4416821F020014160206C38
:1027800020F480702064206CC00403D4206C40F0DE
:10279000010020642046FFF7BDFF21686FF01200A2
:1027A000086016F0040F05F0800132D089B3206C68
:1027B000C00603D4206C40F4005020642068816877
:1027C00011F4401F1ED1816B11F4401F02D08168AB
:1027D000490517D44168490514D4816811F0405F58
:1027E00010D1217E71B9416821F080014160206CD7
:1027F00020F480502064206CC00503D4206C40F08D
:10280000010020642046FFF7D1FE21686FF00C0024
:10281000086016F0010F05F040010FD071B120687B
:102820000068C0070AD0206C40F480302064204645
:1028300000F043F821686FF00100086016F0200FE7
:1028400005F080610ED000290CD0606C40F00200D1
:10285000606420686FF0200505602046FFF76BFF7D
:102860002068056070BD70B504004FF0000503D00E
:10287000206C002610B107E0012070BD204600F05A
:102880001DF8666484F83C60206CC00610D4206C8F
:1028900020F4885040F0020020642046FFF738FC06
:1028A0006664206C20F0020040F00100206400E02B
:1028B000012584F83C60284670BD704770B586B02D
:1028C000064614216846FEF74CF8284930688842CD
:1028D00049D127480025016841F4807101600068F2
:1028E000234900F4807014390590086840F0040012
:1028F0000860086800F004000590086840F00100D6
:1029000008600868032400F00100059001208DE8AC
:1029100031006946174800F0F9FB20208DE83100AE
:102920006946154800F0F2FB154C1448C4E900054F
:102930000015A560C4E90350800060618000C4E90F
:10294000060525622046656200F02CFB08B1FFF702
:10295000E8FDB463002211461220A66300F038FFA0
:10296000122000F027FF06B070BD000000200140DB
:102970004438024000080240000002401064024057
:10298000340D0020F8B50E4600210446009190F861
:102990003C0013460A46012807D0012084F83C0079
:1029A00020688568ED0702D011E00220F8BD856837
:1029B00045F0010585604048404D0068B0FBF5F0EA
:1029C00000EB400000E0401E00900028FBD1206892
:1029D0008568ED0503D5856825F4807585602068D8
:1029E0008568ED075DD0226C40F20165AA4342F490
:1029F000807222644068400505D5206C20F40050A8
:102A000040F480502064206CC00404D5606C20F039
:102A10000600606400E0616484F83C10A16B294802
:102A2000274DC863A16B28480864A16B2748C86478
:102A300021686FF0220008602068416841F08061E1
:102A400041602068816841F480718160216832466C
:102A50004C31A06B00F010FB024668681C49C006B0
:102A6000206806D0884224D1816811F0405F13D0DD
:102A70001FE08842F8D0174B984203D1D1F80433B5
:102A8000DB06F1D0144B984213D1D1F8041301F0B6
:102A90001F011029E8D30CE0816841F0804181607A
:102AA00007E0206C40F010002064606C40F00100F2
:102AB00060641046F8BD00000C00002040420F008A
:102AC0000023014077200008FB200008E5200008D3
:102AD00000200140002101400022014010B50446C1
:102AE000002094F83C1001290CD0012184F83C10FE
:102AF00021688A6822F001028A6021688A68D20708
:102B000002D01DE0022010BD8A6822F480728A6023
:102B1000A16B91F83520022A07D1084600F016F97A
:102B200018B1216C41F04001216421684A6822F00B
:102B300080624A60216C21F4885141F001012164D6
:102B4000002184F83C1010BD70477047704770B585
:102B500000B3F9B14379012B1ED00126467102233F
:102B6000037105682C6802F0100340F6FE729A406B
:102B70009443D1E900210A439A4022432A60016824
:102B80000A68C0249C40A2430A600671002141717A
:102B9000084670BD012070BD022070BD70477047AF
:102BA000704770B5040003D02079002510B105E00E
:102BB000012070BD6571204600F008F802202071E8
:102BC000256101202071002070BD000070B586B025
:102BD000054614216846FDF7C4FE1F49286888424F
:102BE00037D11E480026016841F00051016000689D
:102BF00000F00050059019481038016841F00101BB
:102C000001600068694600F0010005901020009006
:102C10000320CDE90106124800F078FA124C114861
:102C200020604FF0606060604020C4E9020600014F
:102C30002061400060618000A0614011C4E9070686
:102C40002046666200F0AEF908B1FFF76AFCAC609E
:102C5000A56306B070BD000000740040403802401B
:102C60000000024088600240A80D00202DE9F041DC
:102C70000400069817460D461BD0617901291BD028
:102C80000126667102212171C5B1E2682949D1632B
:102C9000E26829491164E2682849D16421680A6818
:102CA00042F080520A6040B32268042828D01C32C7
:102CB00027E00120BDE8F0810220FBE7A26820495F
:102CC000D163A2681F491164A2681F49D1642168B9
:102CD0000A6842F480520A6020B12268042804D0B5
:102CE000103203E02268083200E00C3220680168EC
:102CF00041F400510160A06809E02268143200E04C
:102D000018322068016841F000510160E0683946DE
:102D100000F0B2F90021617120B1216941F0040194
:102D20002161C7E721680A6805F010039E4032431D
:102D30000A60BFE7052400084F2400082D2400087E
:102D4000F523000845240008152400082DE9F0416A
:102D50000446876D00F0FEFA064694F8350000251B
:102D6000022806D08020606584F834500120BDE838
:102D7000F0812068016821F0160101602068416936
:102D800021F080014161206C08B9A06C20B120685D
:102D9000016821F0080101602068016821F001014B
:102DA00001600CE000F0D6FA801B052807D920202E
:102DB0006065032084F8350084F83450D7E7206834
:102DC0000068C007EED194F85C103F208840B860DE
:102DD000012084F8350084F834500020C7E790F8CB
:102DE0003510022903D0802141650120704705215B
:102DF00080F835100068016821F0010101600020B1
:102E0000704700002DE9F84304464FF00009CDF863
:102E1000009063484FF41651A56D0068B0FBF1F7C0
:102E20002E6894F85C10082000FA01F131420FD0AE
:102E300021680A6852070BD50A6822F004020A606A
:102E400094F85C108840A860606D40F001006065F7
:102E500094F85C104FF0010808FA01F0304208D0F5
:102E600021684969090604D5A860606D40F0020038
:102E7000606594F85C1004208840304208D02168D6
:102E80000968890704D5A860606D40F0040060659A
:102E900094F85C1010208840304218D021680968EE
:102EA000090714D5A86020680168490304D50068A3
:102EB000000308D5A16C07E00168C90503D40168C7
:102EC00021F008010160216C09B12046884794F87F
:102ED0005C1020208840304231D021680968C90642
:102EE0002DD5A86094F8350005282068016806D023
:102EF000490347D5006800031DD4616C1CE021F034
:102F0000160101602068416921F080014161206C57
:102F100008B9A06C20B12068016821F008010160A7
:102F200094F85C103F208840A86084F8358084F8CD
:102F30003490216D1FE0E16B09B120468847606D38
:102F400000282BD0606DC00714D0052084F8350010
:102F50002068016821F0010101600098401C009088
:102F6000B84203D820680068C007F6D184F83580DD
:102F700084F83490E16C002910D001B02046BDE8FF
:102F8000F04308470168C905D5D4016821F0100154
:102F9000016084F8358084F83490CCE7BDE8F8838C
:102FA0000C0000202DE9F041044600F0D3F906465C
:102FB0005CB1022084F83500002584F83450206884
:102FC000016821F0010101600DE00120BDE8F08100
:102FD00000F0C0F9801B052805D92020606503207A
:102FE00084F83500F2E720680068C007F0D1226855
:102FF000116820480140D4E901031843D4E903369D
:103000003343184363691843A3691843E3691843BA
:10301000236A18430843616A042903D1D4E90B13D6
:1030200019430843106020684069666A20F0070170
:1030300030460E43012704280CD1A06A0643E06AFB
:1030400040B12046FFF72EFA20B14020606584F899
:103050003570BAE7206846612046FFF70FFA94F80A
:103060005C203F2191408160656584F835700020C7
:10307000ACE700003F8010F02DE9F0410446866D7A
:1030800090F83400002501280DD0012084F8340088
:1030900094F835700020012F07D084F83400022501
:1030A0002846BDE8F0810220FBE7022784F835704E
:1030B00060652046FFF720FA94F85C103F208840B6
:1030C000B0602068016841F016010160206C20B1F9
:1030D0002068016841F0080101602068016841F042
:1030E00001010160DCE7000070B5044600F032F930
:1030F0000546601C02D004480078044400F02AF918
:10310000401BA042FAD370BD000000202DE9F84F0B
:10311000DFF8F8A10022012403254FF00F090AF17E
:10312000040BAAF1040E00BF0B6804FA02F6334048
:10313000B34270D10F7907F00307012F01D0022F9E
:1031400016D187684FEA420805FA08FC27EA0C07FF
:10315000D1F80CC00CFA08FC4CEA070CC0F808C007
:103160004768B7430E79C6F3001696403E43466063
:103170000E79F643B6070AD0C7684FEA420C05FA43
:103180000CF6B7438E6806FA0CF63E43C6600E791D
:1031900006F00306022E10D1D60800EB8608D8F8F8
:1031A000206057074FEAD76C09FA0CF7BE430F6946
:1031B00007FA0CF73743C8F8207006684FEA420C4C
:1031C00005FA0CF7BE430F7907F0030707FA0CF76F
:1031D000374307604E6816F4403F1CD04C4E3768AA
:1031E00047F480473760366822F0030706F48046CC
:1031F0000096484E07EB060CDCF8086897073F0F6F
:1032000009FA07F826EA0806DFF80C81404503D1E1
:103210004FF0000841E072E0DFF80081404502D144
:103220004FF0010839E0DFF8F880404502D14FF057
:10323000020832E0DFF8EC80404502D14FF003088D
:103240002BE0DFF8E480404502D14FF0040824E091
:10325000DFF8D880404502D14FF005081DE0DFF8C7
:10326000D080404502D14FF0060816E0DFF8C48058
:10327000404502D14FF007080FE0DFF8BC80404521
:1032800002D14FF0080808E0DFF8B080404502D1D5
:103290004FF0090801E04FF00A0808FA07F848EA79
:1032A0000608CCF80888DAF800605746D1F804C060
:1032B0009E435FEACC2C00D51E433E60DBF80060E5
:1032C0005F46D1F804C09E435FEA8C2C00D51E43B4
:1032D0003E60DEF800607746D1F804C09E435FEAA6
:1032E0008C3C00D51E433E60084F083F3E68D1F835
:1032F00004C09E435FEACC3C00D51E433E60521C96
:10330000102AFFF411AFBDE8F88F0000083C01401F
:1033100044380240003001400000024000040240F6
:1033200000080240000C024000100240001402405D
:1033300000180240001C024000200240002402400D
:103340000069084000D0012070470AB181617047D0
:103350000904FBE701488068704700000000002076
:1033600090F83D20202A01D002207047242280F8C6
:103370003D200268136823F0010313600268536A5A
:1033800023F0100353620268536A0B4353620168CF
:103390000A6842F001020A60202180F83D100020F6
:1033A000704790F83D20202A01D002207047242247
:1033B00080F83D200268136823F00103136003685E
:1033C0005A6A22F00F020A4391B2596201680A68F0
:1033D00042F001020A60202180F83D100020704771
:1033E00070B5040025D094F83D00002520B984F87C
:1033F0003C50204600F04EF9242084F83D0020681F
:10340000016821F0010101602068016841F4004178
:1034100001602068016821F40041016000F0DCFADD
:103420004D4A6168914201D84C4900E04C498842BC
:1034300001D2012070BD4B492368B0FBF1F15E68F9
:1034400026F03F060E435E606368934206D94FF450
:10345000967359434FF47A73B1FBF3F12368491C17
:103460001E6A26F03F06314319626168914210D806
:103470004900401EB0FBF1F2521CC2F30B02042AB9
:1034800001D2042022E0B0FBF1F0401CC0F30B009D
:103490001CE0A268F2B301EBC10303EB0116431E6B
:1034A000B3FBF6F35B1C43F480431B0549D092B396
:1034B00001EBC10202EB0111401EB0FBF1F0401C18
:1034C000C0F30B0040F4804040F400402168CA691A
:1034D0004CF6FF739A431043C861D4E907100143C7
:1034E0002068026822F0C00211430160D4E90301A0
:1034F00001432068826848F2FF339A431143816098
:10350000D4E9050108432168CA6822F0FF0210438C
:10351000C86001E00EE016E02068016841F001019A
:1035200001602564202084F83D00256384F83E5026
:10353000002070BD01EB4106431EB3FBF6F35B1C9C
:10354000B3E70120C2E701EB4101401EB0FBF1F0FF
:10355000401CC0F30B00B7E7A086010080841E006A
:1035600000093D0040420F002DE9F84F1F469046EC
:103570008A460446DDF82890FFF7ECFE054694F8ED
:103580003D0020287FD11923012240492046009583
:1035900001F0B4F8002876D194F83C00012872D0EC
:1035A000012084F83C0020680168C90703D1016844
:1035B00041F0010101602068016821F400610160AF
:1035C000212084F83D00102084F83E000026266467
:1035D000C4F824806785608D20852D48E0622B46E5
:1035E0004A465146204601F00FF890B920684169DB
:1035F0008069009036E02A464946204601F024F9C9
:1036000050B1206C042804D12068016841F4007195
:1036100001600120BDE8F88F606A216800780861C8
:10362000606A401C6062618D491E6185218D491E62
:1036300089B2218522685369DB435B070BD451B102
:1036400000781061606A401C6062608D401E608579
:10365000208D401E20852A464946204601F022F84A
:103660000028CED1208D0028C5D154F83D0B01682B
:1036700041F400710160202004F81E09E6776677A6
:103680000020C7E7FFE70220C4E7000002001000A7
:103690000000FFFF10B586B0044614216846FDF710
:1036A00060F914492068884221D11348002102683A
:1036B00042F002020260006800F0020005904FF440
:1036C000407000901220CDE90101032003900420F6
:1036D000049069460948FFF719FD07481030016852
:1036E00041F400110160006800F40010059006B07C
:1036F00010BD000000540040303802400004024079
:1037000002488168027811448160704700000020FF
:103710000B4810B5016841F400710160016841F483
:1037200080610160016841F480710160032000F054
:103730006FF80F2000F006F800F024F8002010BD0C
:10374000003C024070B50D4D04464FF47A71287864
:10375000B1FBF0F00A490968B1FBF0F000F044FB5E
:1037600048B9102C07D200222146501E00F030F834
:1037700000206C6070BD012070BD000000000020C2
:103780000C0000200A4808B5016841F4804101603E
:10379000006800F4804000900548001F016841F077
:1037A00080510160006800F08050009008BD00006A
:1037B00044380240002809DB00F01F02012191403B
:1037C0004009800000F1E020C0F8001170470000BF
:1037D000F0B40E4B1B680C46C3F30223C3F107057C
:1037E000042D00D90425191D072901D2002300E06A
:1037F000DB1E012606FA05F1491E214099409E4034
:10380000761E16403143F0BC06F021BB0CED00E003
:10381000064900F0070208684FF6FF03184040EA27
:103820000220034A10430860704700000CED00E0DE
:103830000000FA052DE9F8431748016841F080516E
:1038400001600068154F00F08050012600903E6432
:10385000FFF780FD05464FF47A78114C05E000BF74
:10386000FFF778FD401B40450DD86068C003F7D5D1
:103870007E64FFF76FFD0546464607E0FFF76AFDE9
:10388000401BB04202D90320BDE8F8836068800382
:10389000F4D50020F8E700004038024000000E4256
:1038A000007000402DE9F0470E46050065D0DFF8B6
:1038B0001481D8F80000F7B200F00F00B04207D230
:1038C00088F80070D8F8000000F00F00B04254D122
:1038D00028683D4C810712D5400703D5206840F485
:1038E000E05020602878000703D5206840F460404D
:1038F00020602068A96820F0F00008432060287844
:10390000C0072DD0304968680839012812D0022834
:1039100013D0032811D00968890700292DDA2168FE
:1039200021F0030101432160FFF714FD814641F2BC
:10393000883A0EE009688903EFE709688901ECE736
:10394000FFF708FDA0EB0901514502D90320BDE8AE
:10395000F0872068696800F00C00B0EB810FEFD1B0
:10396000D8F80010404601F00F01B14207D90770A6
:10397000006800F00F00B04201D00120E7E728788E
:10398000400705D52068E96820F4E050084320602E
:103990002878000706D52068296920F4604040EAAD
:1039A000C100206000F038F82168084AC1F3031113
:1039B000515CC8400649086006480068FFF7C2FE2F
:1039C0000020C4E7003C024008380240DCB6000892
:1039D0000C00002004000020044805490068096824
:1039E000044AC1F38221515CC84070470C0000209A
:1039F00008380240ECB60008044805490068096828
:103A0000044AC1F34231515CC84070470C000020A9
:103A100008380240ECB60008154810B5006810F0F0
:103A20000C02144813D01449042A0FD0082A0ED1CE
:103A30000F4C241F2268236802F03F025B0207D567
:103A40002068C0F38810A0FB010106E0084610BD05
:103A50002168C1F38811A1FB00010023FCF78CFC55
:103A60002168C1F30141491C4900B0FBF1F010BDD0
:103A7000083802400024F40040787D012DE9F84F19
:103A800004006ED02078DFF84C93C007A9F104053C
:103A90004AD009F104000168C1F38101012908D06D
:103AA0000068C0F3810002280AD1D9F80000400262
:103AB00006D52868800337D560680028E1D033E058
:103AC0006068B0F5803F10D0B0F5A02F286810D006
:103AD00020F480302860286820F480202860606806
:103AE000A8B1FFF737FC06460DE0286840F48030A7
:103AF000F4E740F480202860F7E700BFFFF72AFCD6
:103B0000801B642873D828688003F7D50CE0FFF782
:103B100021FC064605E000BFFFF71CFC801B642863
:103B2000F0D828688003F7D42078DFF8AC828007CB
:103B30004FF0000A3ED5A748001D016811F00C0F98
:103B400008D00068C0F3810002280BD1D9F800002A
:103B5000400207D42868800716D5E068012800D104
:103B600012E033E1E068B8B10120C8F80000FFF7C7
:103B7000F1FB064605E000BFFFF7ECFB801B0228C7
:103B8000C0D828688007F7D52868216920F0F80098
:103B900040EAC10028600DE0C8F800A0FFF7DAFB9A
:103BA000064604E0FFF7D6FB801B02281FD82868D2
:103BB0008007F7D42078000722D5864F87486169AF
:103BC000703771B101210160FFF7C4FB064604E0C4
:103BD000FFF7C0FB801B022809D838688007F7D59B
:103BE0000EE0C0F800A0FFF7B5FB064605E082E056
:103BF000FFF7B0FB801B02287DD838688007F7D418
:103C00002078400768D5DFF8CCB100270BF13C0BDA
:103C1000DBF80000C0000BD4DBF8001041F080514D
:103C2000CBF80010DBF80000012700F08050009076
:103C30006B4E3068C00510D4306840F4807030603E
:103C4000FFF788FB009005E0FFF784FB0099401A1E
:103C5000022850D83068C005F6D55E4EA0686C3694
:103C600001280FD00528306810D020F00100306006
:103C7000306820F004003060A068B8B1FFF76AFB3C
:103C800000900FE0306840F00100F4E740F00400DD
:103C90003060F7E7FFF75EFB0099411A41F2883088
:103CA000814266D830688007F4D50EE0FFF752FBFA
:103CB000009007E0FFF74EFB0099411A41F288306F
:103CC000814256D830688007F4D42FB1DBF8001059
:103CD00021F08051CBF80010A069C8B33D49091DFF
:103CE0000968C1F3810102294AD00228504607D051
:103CF000C8F8600000E03CE0FFF72CFB04463BE026
:103D00004746C8F86000FFF725FB064605E000BF00
:103D1000FFF720FB801B02282BD828688001F7D4EE
:103D2000D4E907010843A16A2E4A490802EB014180
:103D3000626A41EA8211084394F82C1040EA01615A
:103D4000C9F8001001203866FFF704FB044606E0BE
:103D50003EE000BFFFF7FEFA001B022809D82868E2
:103D60008001F7D534E000BFFFF7F4FA001B02280A
:103D700002D90320BDE8F88F28688001F4D427E039
:103D80000128F7D0D9F80000E26900F480019142DF
:103D90001CD1226A00F03F01914217D147F6C07151
:103DA000626A0140B1EB821F10D1A26A4FF0FF336B
:103DB00000F4403103EB5202B1EB024F06D194F80C
:103DC0002C1000F07060B0EB016F01D00120D1E742
:103DD0000020CFE70438024000004742800E4742EF
:103DE000007000400000FFFF10B5401EB0F1807F62
:103DF00001D3012010BD4FF0E02460610F21601756
:103E000006F025F80020A06107202061002010BDE9
:103E100070B590F83C20012A32D0012480F83C4053
:103E2000022280F83D2003685A689D6822F07006DF
:103E30000A6832435A60134B02689A4214D0B2F1B6
:103E4000804F11D0104B9A420ED0104B9A420BD09B
:103E50000F4B9A4208D00F4B9A4205D00E4B9A4214
:103E600002D00E4B9A4204D1496825F080031943D1
:103E7000916080F83D40002180F83C10084670BDFC
:103E8000022070BD00000140000400400008004016
:103E9000000C0040000401400040014000180040B8
:103EA00010B5040003D094F83D0010B107E00120E4
:103EB00010BD002084F83C00204600F01FF80220CE
:103EC00084F83D00211D206800F0F6FF012084F8F1
:103ED000460084F83E0084F83F0084F8400084F8EF
:103EE000410084F8420084F8430084F8440084F8D8
:103EF000450084F83D00002010BD000008B50C4AC4
:103F000001680C48914207D1016841F0020101604B
:103F1000006800F0020009E0074A914207D10168F9
:103F200041F010010160006800F01000009008BD31
:103F300000040040403802400010004090F83D105E
:103F4000012901D001207047022180F83D1000684E
:103F50001149884214D0B0F1804F11D00F498842E6
:103F60000ED00F4988420BD00E49884208D00E4926
:103F7000884205D00D49884202D00D49884204D1BB
:103F8000816801F00701062903D0016841F00101B1
:103F90000160002070470000000001400004004064
:103FA00000080040000C00400004014000400140B7
:103FB0000018004070B5044690F83C000025012828
:103FC00017D0012684F83C60022084F83D00206868
:103FD000826822F0770222F47F42826008685028CB
:103FE00038D00DDC20284FD005DC90B3102811D13B
:103FF0004AE0022070BD302846D040280AD13BE07C
:1040000060282FD070280DD0B0F5805F03D0B0F5B8
:10401000005F12D0012584F83D60002084F83C0048
:10402000284670BDCB68D1E90121206800F0ACFFC3
:104030002068816841F0770109E0CB68D1E901216E
:10404000206800F0A1FF2068816841F48041816010
:10405000E1E719E0CA684968206800F0A7FF50212D
:10406000206806E0CA684968206800F0B0FF602157
:10407000206800F093FFCEE7CA684968206800F026
:1040800095FF40212068F4E7226801461046F0E7DA
:1040900038B5044690F84200202801D0022038BDEF
:1040A00051B14AB10120206300206063204601F035
:1040B00057FA216B012901D0012038BD21680A6817
:1040C0004968009121680C3151E8002F42F010023C
:1040D00041E80023002BF5D138BD000010B50C4697
:1040E0000D4A0168914216D100F01EF80B49224694
:1040F00001F5207006F0E6FC21460848FCF731FC8B
:10410000802206490648FFF7C3FF06480068016899
:1041100021F00801016010BD00100140940F002043
:10412000EC0E0020340F002010B5044600684069F2
:1041300094F84110C0F3C010212911D180B120683A
:10414000143050E8001F21F0800140E80012002ADE
:10415000F5D1A06B08B1FEF7F9FD204601F00BF98F
:104160002068406994F84210C0F38010222911D1D0
:1041700080B12068143050E8001F21F0400140E871
:104180000012002AF5D1E06B08B1FEF7DFFD2046F2
:1041900001F0CAF8002010BD70470000F8B50168B2
:1041A00004460868CA684B6910F00F0F4FF000050D
:1041B00059D003F0010602F49077374365D0C10768
:1041C00005D0D10503D5616C41F00101616441075F
:1041D00005D5D90703D0616C41F002016164810704
:1041E00005D5D90703D0616C41F004016164010772
:1041F00007D502F02001314303D0616C41F0080182
:104200006164616C00293AD0800604D5900602D51D
:10421000204601F0BEF820684069616CC0F3801050
:10422000090700D460B3204601F07EF82068406999
:10423000400621D52068143050E8001F21F04001CD
:1042400040E80012002AF5D1E06BA8B1724901657F
:10425000E06BFEF7C4FD002811D0E06B016D01B0EA
:10426000BDE8F040084783060FD593060DD52046DC
:10427000BDE8F84001F08DB82046FFF78DFFF8BD8E
:104280002046FFF789FF6564F8BD266B2023012EC9
:104290007ED1C6067CD5D6067AD5086848680090D7
:1042A00048694FF0020640064DD5E26B1068406841
:1042B0004FF480770004000C3AD0A18D814237D9A9
:1042C000E085D069B8422DD020680C3050E8001F3E
:1042D00021F4807140E80012002AF5D120681430E2
:1042E00050E8001F21F0010140E80012002AF5D13A
:1042F0002068143050E8001F21F0400140E800120F
:10430000002AF5D184F84230256320680C3050E84B
:10431000001F21F0100140E80012002AF5D1E06BE7
:10432000FEF714FD6663A08DE18D401A81B206E0B0
:10433000A18D8142A8D1D069B842A5D1666320463B
:10434000FFF7CCFEF8BDA08DE18D401A81B2E08D63
:104350000028F7D00029F5D020680C3050E8002F55
:1043600022F4907240E80027002FF5D12068143025
:1043700050E8002F22F0010240E80027002FF5D17D
:1043800084F84230256320680C3050E8002F00E0AC
:1043900006E022F0100240E80023002BF3D1CDE725
:1043A00005062BD5150629D594F841002128C9D139
:1043B000A068B0F5805F01D12069B0B1206A411CCE
:1043C0002162216800784860E08C401E0004000CE7
:1043D000E084B7D12068C16821F08001C160206805
:1043E000C16841F04001C160F8BD206A0088C0F397
:1043F00008004860206A801C2062E5E74006F3D58B
:104400005006F1D5CA68204622F04002CA6084F8FE
:10441000413000F0DFF8F8BD2D52000870B50400FF
:1044200004D094F84100002510B106E0012070BDD1
:1044300084F84050204600F023F8242084F84100FE
:104440002068C16821F40051C160204601F002F8E3
:104450002068016921F4904101612068416921F0DF
:104460002A0141612068C16841F40051C16065645E
:10447000202084F8410084F842006563002070BD6C
:1044800070B586B0064614216846FCF76AFA2349DF
:104490003068884240D122480025016841F010016F
:1044A0000160006800F0100005901D481438016894
:1044B00041F0010101600068694600F001000590CB
:1044C0004FF4C06000900220CDE901050320039065
:1044D000072004901348FEF719FE144C1248206080
:1044E0004FF00060C4E901054014C4E90350656160
:1044F000A561E561256220466562FEF753FD08B1BE
:10450000FEF70FF8F463002211462520A663FFF79B
:104510005FF92520FFF74EF906B070BD001001408D
:10452000443802400000024040640240340F002042
:10453000704770472DE9F843044690F841009846CB
:1045400016460D46202802D00220BDE8F88385B12A
:104550007EB100206064212084F84100FEF7FAFE5D
:10456000A6848146E684A0682027B0F5805F02D04B
:1045700003E00120E9E7206910B12E4600250EE096
:1045800000260CE08021204601F03AF8A8B9C6B117
:1045900016F8010B21684860E08C401EE084E08C36
:1045A0004B464FF00002CDF800800028EAD14FF0D2
:1045B0004001204601F024F840B184F84170032006
:1045C000C3E735F8020BC0F30800E3E784F8417055
:1045D0000020BAE77047FEE701684A69D2435205F6
:1045E0000FD46FF480624A61002140F8301F20220E
:1045F00042738173026942F0040202610173012077
:104600007047002070470000F8B50446C06A1E4697
:104610000D461746082807D0012805D010F5803F21
:1046200002D0206B122804D12068016841F4807107
:104630000160134600224FF001112046009600F061
:104640005DF840B120680068C00502D54FF40070E5
:1046500020640320F8BD2069B0F5804F0ED00620FD
:10466000216800EAD51040F0F000086133463A4670
:104670000B49204600F08AF878B902E005F0FE0008
:1046800000E0E8B221680861054933463A46891FCF
:10469000204600F07BF80028DCD00120F8BD0000A7
:1046A0000800010070B516460D4604461EE020467F
:1046B000FFF792FF08B1012070BD681C16D0FEF70D
:1046C00049FE801BA84200D885B920684069C043D4
:1046D00040070BD5002044F8300F20216173A073F0
:1046E000216941F0200121612073E4E720684069DD
:1046F000C0434007DBD4002070BD00002DE9F04727
:10470000984617460D460446C1F30746DDF820904B
:104710002AE000BFB8F1FF3F26D0FEF71BFEA0EB5A
:104720000901414502D8B8F1000F1DD12068012EC2
:1047300016D0806925EA00000004000C12D0002089
:10474000B84211D1002044F8300F20216173A073CA
:10475000216941F02001216120730120BDE8F0872B
:104760004069E7E70120EBE72068012E0AD0806965
:1047700025EA00000004000C06D00020B842C9D091
:104780000020EBE74069F3E70120F7E72DE9F04768
:10479000984616460D4604464FF000094FF0200A91
:1047A000C1F3074723E020684069C043400515D4A2
:1047B0002068016841F40071016021686FF4806035
:1047C0004861C4F8309084F83DA084F83E90216C94
:1047D00041F00401216484F83C9021E0701C06D073
:1047E000FEF7B8FDA0EB0800B04203D816B1012FC8
:1047F0001FD021E02068012F15D0806925EA000034
:104800000004000C18D000BF44F8309F84F80DA0BD
:1048100084F80E90216941F02001216184F80C9008
:104820000120BDE8F087406925EA00000004000C83
:10483000EAD12068406901E02068806925EA00002B
:104840000004000CAFD1ECE770B516460D460446E7
:104850001EE02046FFF7C0FE08B1012070BD681CB5
:1048600016D0FEF777FD801BA84200D885B92068D6
:104870004069C04300060BD5002044F8300F2021CA
:104880006173A073216941F0200121612073E4E785
:1048900020684069C0430006DBD4002070BD0000E2
:1048A0007FB500241B480094019402941849039496
:1048B000016001254FF480310561C0E901140476DF
:1048C00080F820400903C1620226C6614910C46015
:1048D000816280F830404561FDF7C5FF08B1FDF702
:1048E00020FE0A20CDE90005694602940948FDF73B
:1048F0005FFE08B1FDF715FE0520CDE9000669460B
:104900000448FDF755FE002801D0FDF70AFE7FBDE3
:1049100000200140EC0C00201CB500240C49009440
:104920000A48019408600846FEF73BF908B1FDF714
:10493000F8FD0420CDE90004002269460448FEF792
:1049400006F9002801D0FDF7ECFD1CBD0074004005
:10495000940D0020154808B5016841F480010160FC
:10496000016801F480010091016841F400110160C7
:104970000068002200F40010009011461020FEF79D
:1049800027FF1020FEF716FF002211463820FEF701
:104990001FFF3820FEF70EFF002211463A20FEF7D7
:1049A00017FFBDE808403A20FEF704BF3038024048
:1049B0002DE9F04387B014216846FBF7D2FF334856
:1049C0000024016841F010010160016801F010014C
:1049D0000591016841F004010160016801F00401E2
:1049E0000591016841F080010160016801F08001DA
:1049F0000591016841F001010160016801F00101C8
:104A00000591016841F002010160016801F00201B5
:104A10000591016841F0080101600068DFF87080CD
:104A200000F008004FF470460590002231464046E1
:104A3000FEF78BFCDFF85C904FF44077002239469C
:104A40004846FEF782FC7C2001258DE8310069464E
:104A50001148FEF75BFB68038DE8310069460F489B
:104A6000FEF754FB0096CDE9015469464046039495
:104A7000FEF74CFB0097CDE9015469464846039484
:104A8000FEF744FB07B0BDE8F08300003038024079
:104A900000040240000C02400010024000080240E6
:104AA000144810B5124901601349416000214FF4C8
:104AB00080428160C0E9031241618161C16101628C
:104AC000FEF78EFC08B1FDF72CFD00210948FEF72A
:104AD00047FC08B1FDF725FD00210648FEF761FC03
:104AE000002803D0BDE81040FDF71BBD10BD00003D
:104AF00000540040080E0020A086010010B586B0CA
:104B000000241748009401940294039404941349D8
:104B1000059401605921C0E901146321C0E903141F
:104B20008461FFF7BDF908B1FDF7FBFC4FF480503D
:104B3000009069460A48FFF73DFA08B1FDF7F1FC1D
:104B40002020CDE9040404A90548FFF761F90028F5
:104B500001D0FDF7E6FC06B010BD000000040040E7
:104B60005C0E00201CB500240E4800940C490194F2
:104B700001605921C0E9011463218461C160FFF71C
:104B80008FF908B1FDF7CDFC2020CDE9000469467E
:104B90000448FFF73DF9002801D0FDF7C2FC1CBD19
:104BA00000100040A40E00200C4810B50A49016016
:104BB0004FF4E1314160002181600C22C160C0E905
:104BC00004128161C161FFF729FC002803D0BDE810
:104BD0001040FDF7A6BC10BD00100140EC0E0020F7
:104BE00070B50D46064602F049FA0446042D3ED142
:104BF00020A12068FBF7DCFE00281BD020A1206844
:104C0000FBF7D6FE00281BD020A12068FBF7D0FEC2
:104C1000002818D01FA12068FBF7CAFEB0B128A158
:104C20002068FBF7C5FEA0B127A12068FBF7C0FEF6
:104C3000C8B11CE026A1334802F050FE314913E010
:104C400030493C3910E02F491C390DE02D49FC3129
:104C50000AE02D4A2B48637B5142803003F05EFA14
:104C60002849803100E02949304601F05BFD0020F1
:104C700070BD00002120576F756F5549000000007E
:104C80002B2053657474696E670000002B205761F8
:104C9000766500007E205468697320697320612066
:104CA000766F6C756D6E207061676520666F72201F
:104CB000746573742077696E20696E2077696E0061
:104CC00025205370696E00002D2041626F757400BD
:104CD000576F756F554920506167650A5374617944
:104CE0002074756E656420666F72206D6F7265202A
:104CF0007061676520646576656C6F706D656E7454
:104D000073000000342E002020A107008C2F00200B
:104D1000FEE7FEE70146064810B5406B4FF400720F
:104D2000FBF77EFDBDE81040014805F053BF0000D1
:104D3000F82A00207047704770B50C46054602F00F
:104D40009DF9042C3FD1027B20494FF4FA730D2AC0
:104D500039D2DFE802F0070D160D21262B30333350
:104D6000333333001AA1274802F0B8FD254927E064
:104D7000244801220021243003F0E0FE214924319F
:104D80001EE0437B1F484CF250320021803003F07C
:104D9000C5F91C49803113E0806800B10120887397
:104DA00011E0806800B10120C8730CE0806800B198
:104DB0000120487407E01349543101E01149AC3136
:104DC000284601F0AFFC002070BD000078010020F3
:104DD00053657474696E6720506167650A596F7511
:104DE0002063616E206368616E676520746865206A
:104DF00073657474696E67206F66207468697320C8
:104E000055490000342E0020FEF77ABC70B592B0F0
:104E100030216846FBF7A5FD14210CA8FBF7A1FD86
:104E20001F480025016841F080510160006800F0D2
:104E3000805011901B48016841F4404101600068B6
:104E4000022400F4404011900120009000040190E1
:104E50008001CDE906400F260896D820CDE9090447
:104E600004200B906846FEF709FE08B172B6FEE713
:104E7000FEF7E0FC08B172B6FEE74FF4A050CDE9B2
:104E80000E504FF48050CDE90C64109005210CA811
:104E9000FEF708FD002801D072B6FEE712B070BD23
:104EA00040380240007000400248016841F470013F
:104EB0000160704788ED00E0F0B50268274B284D8F
:104EC000284E294F294C4FF0804C984209D060451C
:104ED00007D0A84205D0B04203D0B84201D0A042CA
:104EE00004D122F0700E4A6842EA0E0298421BD0AA
:104EF000604519D0A84217D0B04215D0B84213D09F
:104F0000A04211D01A4DA8420ED01A4DA8420BD083
:104F1000194DA84208D0194DA84205D0184DA842F5
:104F200002D0184DA84203D122F44075CA682A4322
:104F30004D6922F080022A438D68C5620D68856242
:104F4000984201D0A04201D109690163016841F092
:104F500004010160012141610260F0BD00000140D7
:104F60000004004000080040000C00400004014024
:104F7000004001400044014000480140001800404A
:104F8000001C00400020004010B5846842EA032263
:104F900024F47F440A432243826010BD826822F0D9
:104FA00070020A4342F007018160704710B5036A3E
:104FB000046A24F001040462846924F0F00444EAE1
:104FC000021423F00A020A438461026210BD10B584
:104FD000036A046A24F010040462846923F0A003C5
:104FE00024F4704444EA023243EA0111826101620E
:104FF00010BD00002DE9F04186B002F0F3FD00F095
:10500000A1FC00F0B1FC012001F034FB6C486D49BB
:10501000428841F8182FC2880A6130F80E2B0A62C4
:1050200010F8012B0A6310F8012B0A6410F8012B09
:105030000A6510F8102B0A66624A0378D03252F8DB
:105040002330CB66437852F82330CB67837852F80D
:105050002330C1F88C30C37852F82330C1F89C302B
:1050600000795A4B52F82000C1F8AC005648009025
:10507000A2F598720621564803F00CFA55480090A4
:10508000534800234F4A0D21243001F0C1FD5248FE
:105090004C4A00900023E8320321504801F0B8FD4B
:1050A0004E48002501234E4A06212030009501F08C
:1050B000AFFD4B4A4948002360320921403000953A
:1050C00001F0A6FD464A45480023F0320821603031
:1050D000009501F09DFD3E48424B434A0221443079
:1050E00003F0AEFE3A4800220223114660300095DC
:1050F00002F0A0FB01244FF002083C49CDE9024830
:1051000000233348049101941A461946B4300094A0
:1051100001F03CF91427CDE9017435486426009666
:10512000CDE9034000232A481A461946843003F08B
:105130005DFC3048CDE9010440420090002327483F
:105140001A461946D838CDE9034502F021FF2A480E
:105150000090234A21480123483A0621AC3802F046
:1051600065F81E480021AC3802F054FDCDE9017409
:105170001A48002300961A4620A18C38CDE9034531
:1051800003F034FC2748CDE901450096CDE90350F2
:1051900012480023322219465C3803F027FC2249CA
:1051A000CDE9024800230D48049101941A4619469E
:1051B0002C38009401F0EAF806B0BDE8F081000058
:1051C00078010020F4060020E14B00087CBF0008B5
:1051D000D42D0020394D0008392200088C2F0020E2
:1051E0000C080020115700087C09002081230008CA
:1051F000A123000820A107007122000854686973E8
:10520000206973207465737420666F7220506F700C
:105210002D75702077696E646F77206E6573746981
:105220006E67000085560008E956000810B5806BCF
:105230000021C185FEF7B0FF10BD70B5846B2068FA
:10524000406994F84110C0F3C0100025212904D111
:1052500018B1E584204600F08EF82068406994F883
:105260004210C0F38010222904D118B1E5852046F0
:1052700000F05AF8606C40F0100060642046FEF7C1
:105280008BFF70BD10B50146806B096809684FF04F
:105290000002C9052ED4C28501680C3151E8003FD7
:1052A00023F4807341E80034002CF5D101681431F7
:1052B00051E8003F23F0010341E80034002CF5D110
:1052C0000168143151E8003F23F0400341E8003405
:1052D000002CF5D1202180F84210016B012909D161
:1052E00001680C3151E8003F23F0100341E800341D
:1052F000002CF5D14263016B012902D0FFF718F9A8
:1053000010BD818DFEF7EAFE10BD10B5806B012146
:105310004163016B012902D0FFF70BF910BD818DAC
:105320004908FEF7DBFE10BD01680C3151E8002F83
:1053300022F4907241E80023002BF5D1016814316A
:1053400051E8002F22F0010241E80023002BF5D1A3
:10535000016B012909D101680C3151E8002F22F0BD
:10536000100241E80023002BF5D1202180F84210E3
:1053700000210163704701680C3151E8002F22F0D1
:10538000C00241E80023002BF5D1202180F8411014
:10539000704708B590F84210222901D0022008BDBC
:1053A00082684FF480539A4201D1016921B1816A28
:1053B0009A421BD04AB10AE00268816A5268C2F37D
:1053C00008020A80816A891C08E0026972B10268D9
:1053D000526802F07F020A70816A491C8162C18DA5
:1053E000491E0904090CC18503D01BE002685268FC
:1053F000F1E70168CA6822F02002CA600168CA6841
:1054000022F48072CA6001684A6922F001024A618E
:10541000202180F8421000214163026B012A03D051
:10542000FFF786F8002008BD016301680C3151E8E0
:10543000002F22F0100241E80023002BF5D1016873
:105440000A68D20602D50A6849680091818DFEF784
:1054500045FEE7E770B5044600680169E26821F49B
:105460004051114301612169A068E2690843616903
:10547000114308432168CA6849F20C639A43024306
:10548000CA6020684169A26921F4407111434161F9
:1054900031492068884202D03049884202D1FEF763
:1054A000ABFA01E0FEF798FAE269002319216425BE
:1054B0003226B2F5004F626828D0A0FB0101930F9D
:1054C0009200FAF759FF0146B0FBF5F06FF01802B1
:1054D000504301EB800006EB0010B0FBF5F000F04C
:1054E000F002B1FBF5F002EB0012B1FBF5F06FF04A
:1054F0001803584301EB800006EB0010B0FBF5F0F9
:1055000000F00F0021681044886070BDA0FB01010D
:1055100092185B41FAF730FF0146B0FBF5F002014B
:10552000B1FBF5F06FF01803584301EB800006EB78
:10553000C000B0FBF5F000F0F80002EB4002B1FB58
:10554000F5F0584301EB800006EBC000B0FBF5F02E
:1055500000F00700D6E700000010014000140140F1
:1055600038B5816204468285002013466064222299
:1055700084F84220E56B1F4AEA63E56B1E4A2A6401
:10558000E56B1E4AEA64E26B10650A462168E06B2F
:10559000091DFDF771FD30B110206064202084F8F2
:1055A0004200012038BD20680168406800902069F1
:1055B00048B120680C3050E8001F41F4807140E889
:1055C0000012002AF5D12068143050E8001F41F085
:1055D000010140E80012002AF5D12068143050E89B
:1055E000001F41F0400140E80012002AF5D10020E0
:1055F00038BD0000855200080B5300083B520008DC
:105600002DE9F843984617460D460446089E24E0C7
:10561000701C22D0FDF79EFEA0EB0800B0421AD805
:10562000CEB12068C168490717D5802D15D0402D0F
:1056300013D00168C94309070FD4016800254068E9
:1056400000902046FFF770FE0820606484F8405008
:105650000120BDE8F8830320FBE72068006835EAF5
:10566000000004D00020B842D2D00020F1E7012091
:10567000F9E700000148FEF791BD0000EC0E0020A4
:10568000FEE7000010B5C269502A08D109B102290D
:1056900005D1144A03A19161114601F043F800209D
:1056A00010BD000054686520766F6C756D6E2069C2
:1056B0007320746F6F20686967682C20646F20798D
:1056C0006F752077616E7420746F20696E637265E8
:1056D00061736520697420636F6E74696E75653FD0
:1056E00000000000602F00204F20084A052902D04A
:1056F000042902D007E0D06105E00449303191F877
:105700002810C907F7D0002070470000302F002074
:1057100070B5184A04464FF4DB75537E506903EBAD
:10572000C302C2EB831205EBC202805CC0061FD528
:1057300031B101290CD0022902D0032918D107E088
:10574000002219460B4803F0A7FA88B90AA106E01F
:1057500001221946074803F09FFA48B912A10548EB
:105760001C3002F0BBF8034920461C3100F0DAFF80
:10577000002070BD182E0020617272697665207459
:1057800068652068656164206F6620627566662CB6
:105790000A43616E2774206C6566742073686966BD
:1057A0007420776176652E00617272697665207467
:1057B0006865207461696C206F6620627566662C6E
:1057C0000A43616E27742072696768742073686980
:1057D000667420776176652E0000000070B5B0F920
:1057E0000040B0F90250AC4211D086882D1B3544E0
:1057F000B1FBF2F62DB2B1FBF2F195FBF6F695FB9B
:10580000F1F2344401FB12510480818005E0002153
:105810008180187808B1012000E00020187070BD68
:1058200002490968C1F8140200F040BFA00100203D
:10583000074A126892F84E3260F3C50382F84E327E
:10584000002082F84F02A2F85212A2F850027047CC
:10585000A001002070B5284C216891F84F22AABB06
:10586000B1F85022B1F852329A4203D81044A1F84C
:10587000500221E091F84E02002300F00702C0F32D
:10588000C205AA4209D24FF0005202EBF0004FEAE3
:10589000707081F84E02A1F8503291F84E0200F07B
:1058A0000702C0F3C205AA4206D9521E62F30200E3
:1058B00081F84E02A1F8503291F84E0200F0070232
:1058C000C0F3C200824202D1012001E002E00020C8
:1058D00081F84F02002000F0CDFE206890F84E02C3
:1058E00000F0070000F00AF8012000F0C3FE206875
:1058F00090F84F0270BD0000A00100202DE9F0419A
:1059000000281AD00E49002511F8106001EB400064
:10591000477800243246294620B200F02BF8601C5C
:105920003A46294600B200F025F8A41CA4B2802C07
:10593000F0D36D1CEDB2042DEBD3BDE8F081000077
:1059400060BF000807484FF40071006800788207C4
:10595000044800F10400006801D5FAF7E0BFFF2217
:10596000FAF7D5BF880600200149D1E900010847B0
:105970008C06002030B57F281ADC032918DC0028AB
:1059800016DB002914DB0B4B0A4C00EBC1111B6822
:1059900004F104041B782068DD0702D0435C534007
:1059A00005E09B07435C01D5134300E09343435458
:1059B00030BD0000880600200FB42DE9F84F0C46DA
:1059C0000E99804610988AB20C992038C6B20831D8
:1059D00001201D460FFA81F9B2F5327F45D005DC72
:1059E000442A0AD0B2F5197F1CD11CE0B2F54C7FD5
:1059F0005CD0B2F5996FF7D178E0002706EB460648
:105A000007EB460021462B5C40460C9A00F039FB20
:105A1000641CB8F9040024B2A04203DB7F1CFFB26F
:105A2000062FEDD394E000EB4600002700EB400A80
:105A300006EB460607EB860021462B5C40460C9A97
:105A400000F01FFB07EB4A004A462B5C214640460C
:105A500000F017FB641CB8F9040024B2A04277DB05
:105A60007F1CFFB2062FE5D372E000EB4600C6EBC9
:105A7000C60A0027C0EBC00607EB4A0021462B5C94
:105A800040460C9A00F0FDFAF0194A462B5C21467C
:105A9000404600F0F6FA641CB8F9040024B2A042B3
:105AA00056DB7F1CFFB2072FE6D351E0002705EB42
:105AB000061A00BF07EB061021462B5C40460C9AE5
:105AC00000F0DFFA07F108014A461AF801302146D2
:105AD000404600F0D6FA641CB8F9040024B2A04293
